:020000040800F2
:1000000060050020F1A00008159E0008179E00085A
:10001000199E00081B9E00081D9E0008000000009D
:100020000000000000000000000000006F6A0008EF
:100030001F9E000800000000296A0008219E000899
:10004000B1A10008B5A10008B9A10008BDA1000830
:10005000C1A10008C5A10008C9A10008CDA10008E0
:10006000D1A10008D5A10008D9A10008299E000847
:10007000DDA10008E1A10008E5A10008E9A1000850
:10008000EDA10008F1A10008F5A10008F9A1000800
:10009000FDA1000801A2000805A2000809A20008AD
:1000A0000DA20008399E000811A2000815A2000840
:1000B00019A200081DA2000821A2000825A200081C
:1000C00029A200082DA2000831A2000835A20008CC
:1000D00039A200083DA2000841A2000845A200087C
:1000E00049A200084DA2000851A200082DE9F04FD6
:1000F00080460FF23060A5B015461E46D0E90023B9
:10010000CDE91223002004910D900DF1500A6FF0FB
:10011000004900E065190020ADF8020012AB4FF075
:10012000FF3229460DF1020001F093F80446012C3C
:1001300004DA2878441EA441E443E40FBDF8020029
:1001400025280CBFA4F1010BA346BBF1010F0EDB68
:100150002F4617F8011B0498C0470028049000F0B0
:10016000F3800D98401CBBF1010B0D90F1D1BDF84F
:100170000200252807D100200790089009900A90D6
:100180000B900C9005E00028C4D10D98D2E240F00D
:10019000010015F8011F2029F9D023290DD02B29A2
:1001A00004D02D2906D030290AD00CE040F00200FE
:1001B00080B2EEE740F00400FAE740F00800F7E70D
:1001C00040F01000F4E72A290ED13168316051F86F
:1001D000042B3160002A0F9204D5514240F00400F4
:1001E0000F9180B26D1C11E000210F9109E00F9971
:1001F000494505D001EB810302EB430130390F91F2
:100200006D1C2A78A2F130010A29F0D329782E2911
:1002100003D04FF0FF310E911DE015F8011F2A2980
:1002200007D1316831606D1C51F8042B31600E929A
:1002300011E000210E9109E00E99494505D001EB2E
:10024000810302EB430130390E916D1C2A78A2F133
:1002500030010A29F0D3ADF840000FF2D0402978E0
:1002600001F014F808B115F8010B8DF842009DF863
:100270004200682802BF29786829622005D06C28CE
:1002800004BF28786C2803D171208DF842006D1CC2
:1002900014A8069015F8014BB4F125002AD01C389B
:1002A00000F0D480001F022840F2D080133800F004
:1002B000F580093800F0CA80801E00F05C81401E85
:1002C00000F03581401E022840F2C080001F00F07F
:1002D0002E81401F00F08B80401E00F0DF80401E0A
:1002E00035D0C01E0BD0801E00F0D880C01E00F09C
:1002F000D58063E125208DF85000012067E19DF84D
:1003000042006C283068306014D050F8047B3060B4
:1003100005970E9C002C04D5384600F0C3FF044618
:1003200006E022460021384600F0D8FF00B1C41B89
:1003300008944DE150F8042B306002A9404600F0CB
:1003400033FA002840F144814FF0FF30F2E1316888
:1003500031603C2451F8040B31600021CDE90201E9
:1003600014A80590DDE90201069F11B908B90E9A9B
:10037000B2B10206120FA0EB02123032D2B2631EEB
:100380003A2AA8BF27320009DA5540EA0170090964
:1003900008BF00281C4603D0059AE3199A42E8D307
:1003A000E0190590C4F13C010E980891814209DAE8
:1003B000401A0A904FF6EF71BDF840000840ADF8C2
:1003C000400005E1002840F103819DF8400000F065
:1003D0001400102840F0FC800F98079A801A0A9A9F
:1003E000801A441A012CC0F2F3800A94F0E09DF8C0
:1003F000420062281AD0682806D06A280CD06C28DF
:100400001CD0712808D019E03068306050F8041B07
:1004100030600D980880DBE03068306050F8042BC5
:1004200030600D98C117C2E90001D1E0306830603A
:1004300050F8041B30600D980870C9E030683060D7
:1004400050F8041B30600D980860C1E03068C01D92
:1004500020F007023260D2E9000108323260CDE9B3
:100460000201002902D507982D210AE0BDF84000BD
:10047000810702D507982B2103E0C00705D507980F
:10048000202100F80A10401C079014A807990818AA
:100490000590214602A800F091FB99E09DF84200EA
:1004A0006C280DD0712818BF6A2809D13068C01D8A
:1004B00020F007023260D2E900010832326005E024
:1004C0003168316051F8040B31600021CDE902013F
:1004D0009DF84200682803D1DDE9020180B20BE0FB
:1004E000622803D1DDE90201C0B205E0742818BF1B
:1004F0007A2804D1DDE902010021CDE902019DF84D
:10050000400000072ED5DDE90201002908BF0028C0
:1005100028D044F02000782824D10798302100F812
:100520000A10401C411C079100F80A401AE09DF88F
:100530004200314600F001F9CDE90201002902DA5A
:1005400007982D210AE0BDF84000810702D50798E1
:100550002B2103E0C00705D50798202100F80A10D9
:10056000401C079014A8079908180590214602A876
:1005700000F0A0FA2CE09DF842006C2809D0012080
:1005800007903068306050F8041B30608DF85010D0
:100590001EE03068306001AA50F8041B3060ADF8EE
:1005A00004100020ADF8060002A94FF0FF300E90B5
:1005B000404600F0F9F800280AD5C5E625208DF858
:1005C0005000012007901CB18AF8014002200790DA
:1005D0000F980799401A0A99401A0899401A0B99DE
:1005E000401A0999401A0C99441A9DF84000400796
:1005F00010D42020012C8DF800000BDB27460123AE
:100600006A4602A9404600F000FE00287FF49CAE36
:100610007F1EF4D1DDF81CB0BBF1000F14AF0DD07C
:1006200017F8011B0498C047002804903FF48CAED3
:100630000D98401CBBF1010B0D90F1D130208DF8CD
:1006400000000A9F012F0ADB01236A4602A94046E7
:1006500000F0DBFD00287FF477AE7F1EF4D1DDF8DB
:1006600020B0059FBBF1000F0DD017F8011B0498B7
:10067000C047002804903FF467AE0D98401CBBF1C2
:10068000010B0D90F1D130208DF800000B9F012F50
:100690000ADB01236A4602A9404600F0B6FD0028A5
:1006A0007FF452AE7F1EF4D105980899DDF824B08E
:1006B0000F18BBF1000F0DD017F8011B0498C047AD
:1006C000002804903FF440AE0D98401CBBF1010B94
:1006D0000D90F1D130208DF800000C9F012F0ADB26
:1006E00001236A4602A9404600F08FFD00287FF4EE
:1006F0002BAE7F1EF4D19DF8400040077FF50BAD77
:100700002020012C8DF80000FFF605AD01236A467C
:1007100002A9404600F079FD00287FF415AE641E62
:10072000F4D1F8E40000000000000000686A6C7476
:100730007A4C000025B0BDE8F08F622826D06828EA
:100740001DD06A2808D06C2827D0712804D07428BE
:1007500023D07A280CD020E00868C01D20F00700C4
:100760000860D0E900230830086019461046704739
:100770000A680A6052F8040B0A60002170470A6890
:100780000A6052F8040B0A6000B20BE00A680A60C3
:1007900052F8040B0A6040B204E00A680A6052F89A
:1007A000040B0A60C11770472DE9F44F0D4694B051
:1007B000D5F830A0BAF1000F804648BF6FF0004A6C
:1007C00000F0B8FD696B401801900FF66C20D0E97D
:1007D0000023CDE9022395F83800400702D40198A0
:1007E000412805D240200DF110090190002609E0B2
:1007F00000F0A6FD5FEA0009F8D14FF0FF3056E1A6
:10080000AAEB040ABAF1010FC0F2CE801498018855
:1008100002AA0DF1010000F0EBFD0028044600F1F2
:10082000DE801498008810B9641E00F1D880A245BB
:10083000C0F2BA80686901992218914280F0A280C2
:100840006E634042296A401AA969401A696A401ACF
:10085000E969401AA96A461A95F83800400710D489
:100860002020012E8DF800000BDB374601236A465D
:100870002946404600F0C9FC002840F0B0807F1EA9
:10088000F4D1D5F814B0BBF1000F4F460DD017F8D6
:10089000011BA868C0470028A86000F0A080E86A93
:1008A000401CBBF1010BE862F1D130208DF8000053
:1008B0002F6A012F0ADB01236A462946404600F0D1
:1008C000A4FC002840F08B807F1EF4D1D5F818B02E
:1008D000EF68BBF1000F0CD017F8011BA868C047E8
:1008E0000028A8607BD0E86A401CBBF1010BE862DD
:1008F000F2D130208DF800006F6A012F09DB01234F
:100900006A462946404600F080FC002867D17F1ED9
:10091000F5D1E868A969D5F81CB00F18BBF1000F34
:100920000CD017F8011BA868C0470028A86056D053
:10093000E86A401CBBF1010BE862F2D130208DF86F
:100940000000AF6A012F09DB01236A4629464046B1
:1009500000F05BFC002842D17F1EF5D195F83800ED
:1009600040070DD52020012E8DF8000008DB012363
:100970006A462946404600F048FC80BB761EF6D108
:1009800000266E61224668690DF10101484400F0BD
:100990003DFD6869201868611498801C1490801EC1
:1009A000008800287FF42CAF686B6969401A296AB7
:1009B000401AA969401A696A401AE969401AA96A85
:1009C000A0EB010A95F83800400710D4BAF1010FE6
:1009D0000DDB5446A8682021C047A86010B94FF02D
:1009E000FF365DE0E86A401C641EE862F2D16B6984
:1009F0004A462946404600F008FC0028EFD12C6A00
:100A0000012C0ADBA8683021C0470028A860E6D086
:100A1000E86A401C641EE862F4D1AB69EA682946C2
:100A2000404600F0F2FB0028D9D16C6A012C0ADBA9
:100A3000A8683021C0470028A860D0D0E86A401CD0
:100A4000641EE862F4D1E868A969EB690A182946CE
:100A5000404600F0DAFB0028C1D1AC6A012C0ADB69
:100A6000A8683021C0470028A860B8D0E86A401CB8
:100A7000641EE862F4D195F8380040070ED5BAF14B
:100A8000010F0BDBA8682021C0470028A860A6D072
:100A9000E86A401CBAF1010AE862F3D16E616E6344
:100AA00004A881451CBF484600F0ECFC304615B058
:100AB000BDE8F08F2DE9FA4E05460A462F696F2AE8
:100AC00008BF082405D041F02000782814BF0A246C
:100AD00010243C26D5E90001642A18BF692A814602
:100AE0008A4605D1002903DAD9F100096AEB4A0ADE
:100AF000BAF1000F08BFB9F1000F0CD1286B50B943
:100B0000082C36D195F83800000732D530203B2626
:100B100087F83B002DE0E31748465146224600F097
:100B2000F1FCA4FB0023A9EB02023032D2B2A6F101
:100B3000010B3A2A5E4603DB9DF80030513B9A18C0
:100B40000BF8072081465FEA010A08BFB9F1000FE0
:100B500003D0E868F1198842DDD3082C09D195F853
:100B60003800000705D5F05D302802D0761E302011
:100B7000F055C6F13C00A861F119E960296B884283
:100B800008DA081A28624FF6EF71288F0840288784
:100B9000BDE8F38E00290ED595F8381001F0140148
:100BA000102908D1696B6A69891A2A6A891A0E1A8A
:100BB000012EA8BF2E62BDE8F38E00002DE9F24F92
:100BC00004468EB0D4E90001CDE9020104AF9DF8DE
:100BD000380040F0200BBBF1610F0AD0206B0028D9
:100BE00048BF062004D408BFBBF1670F01D1012024
:100BF00020636168C1F30A5040F2FF7290421CD139
:100C0000080304BF2068002809D10320A0619DF8D3
:100C1000380061381A2836D30FF2306108E003201B
:100C2000A0619DF8380061381A2829D30FF21461A9
:100C3000E068032200F0EAFBBEE1012816DA204654
:100C400000F0D7FC012811DB00250020BBF1610F6B
:100C500020D1E168302201F8012B4A1CE2609DF8A6
:100C60003820612A0CBF782258220FE0626840F2D7
:100C7000FE3161F31E52451A62604FF0FF30E5E726
:100C80000FF2BC51D4E70FF2C051D1E70A7061698D
:100C9000891C616110B90026002584E1BBF1610F58
:100CA00040F09880206B00284CBF2126461CD4E9D8
:100CB00000ABDDE902010022002300F0BBFC36B2EC
:100CC0003ABF8BF00040CDE902A0CDE902AB06F1BE
:100CD00001082D1FB8F1010F8DF810200DF111073B
:100CE00036DBDDE902010022002300F0BBFC2FD23D
:100CF0001C2102A800F0CEFCDDE9020100F050FD4D
:100D0000A8F10708B8F1010F814609DB00F074FD76
:100D100002460B46DDE9020100F086FDCDE9020145
:100D2000F81D072105E009F00F0200F8012D4FEA38
:100D30002919B9F1010F01DB491EF4D5491E5CBF29
:100D4000002200F8012DF9D5C71DB8F1010FC8DA4E
:100D50000DF11100391AB142B8BF0E4636B230005B
:100D60000DF111072FD4884206DA04A941184978F9
:100D70000829A8BF0F2100DA002104AA821800E088
:100D8000761E12F80139401E8B42F9D00F2904D18A
:100D900004A941184A78521C4A70002802D504AFB1
:100DA000761C2D1D36B2701E0DD4C1190A78303252
:100DB000D2B23A2A03DB9DF838303A3B9A18401EEB
:100DC00001F80129F2D5206B002840F1EC80701E5B
:100DD0002063E8E0DDE902010022002300F02AFCA4
:100DE0003CBF81F00041CDE902012DB247F297509E
:100DF00068434B49DFF82C9190FBF1F52DB2C5F11A
:100E0000070ABAF1010F90461CDBDDE902675FEAD1
:100E1000CA7007D542464B463046394600F0C4FDFD
:100E200006460F464046494642464B464FEA6A0A46
:100E300000F0BAFDBAF1000F80468946E7D1CDE94E
:100E4000026724E0CAF1000A0026374F14E05FEA87
:100E5000CA7007D542464B463046394600F0A4FDDD
:100E600006460F464046494642464B4600F09CFD2A
:100E70004FEA6A0A80468946BAF1000FE7D1DDE9F8
:100E8000020132463B4600F061FECDE90201BBF1B2
:100E9000660F0CBF05F10A000620216BDFF88C906D
:100EA0004618142EA8BF132630208DF810000DF11F
:100EB0001107012E3CDBDDE9020100F087FC07F1A0
:100EC000080104220A23B0FBF3F303EB8307A0EB32
:100ED0004700303001F8010C0A20B3FBF0F000EBC2
:100EE0008007A3EB47033033521E01F8023DE9D1DE
:100EF000083E012E01F10807DBDBDDE9020100F00D
:100F000065FC00F083FC02460B46DDE9020100F0BF
:100F10008BFC00224B4600F047FDCDE90201CAE7F9
:100F2000A0860100000024400000F03F84D79741D4
:100F30000DF11100381A0DF1110702E0401E6D1E6F
:100F40007F1C39783029F9D0BBF1660F02D12DB260
:100F5000691C04E0BBF1650F0CBF01210021226B6D
:100F60008E1836B2B042B8BF064636B231001AD437
:100F7000814204DAC85D3528A8BF392000DA302064
:100F8000CA19521E00E0761E12F80139491E83422A
:100F9000F9D0392802D1C85D401CC855002902D5B6
:100FA0007F1E761C6D1C2DB29DF83810009533B253
:100FB0003A46204600F003F80FB0BDE8F08F2DE967
:100FC000F04786B006468A4690461D4600F007FF69
:100FD000012D406A376B90F8009002DA01250FF27C
:100FE00070284AF02000BDF93840662808BF641C0C
:100FF00012D0672876D114F1040F79DBBC4277DA7E
:1010000096F83800641C000702D4BD42B8BF2F46D2
:1010100024B23F1B48BF002724B2F068B169012CFD
:1010200021DA4A1C30230B54012F03DA96F83810CA
:10103000090702D502F80090521CB261E742B8BF1E
:101040007C4224B26142E7197162AF42B8BF3D46AB
:10105000B3692DB2F5612A464146181800F0D6F959
:10106000781BB062BAE00818A54216DA2A46414653
:1010700000F0CCF9B1696918601B012FB161706291
:1010800003DA96F83800000705D5F06801F80090FB
:10109000F069401CF061B762A0E02246414600F0D2
:1010A000B5F9B06920182D1B012F03DA96F8381016
:1010B000090703D5F16800F80190401C2DB2B0611A
:1010C000AF42B8BF3D46F068B3692DB22A4604EB83
:1010D0000801181800F09AF9B0692818B061781B57
:1010E00070627BE0BAF1610F14D14FF0700A16E024
:1010F000BD4204DA96F83810090758BF2F467F1E04
:1011000048BF0027BAF1670F14BF4FF0450A4FF0F0
:10111000650A04E0BAF1410F08BF4FF0500AB16907
:10112000F0684A1CB261012F18F8013B0B5403DA36
:1011300096F83810090715D5531CB36102F80090D2
:10114000012F0FDB6D1E2DB2AF42B8BF3D462DB251
:101150002A464146181800F059F9B0692818B061BC
:10116000781B7062F068B1690918200081F800A04E
:1011700004D42B20487001F1020804E02D224A70AB
:1011800001F102086442002502AF08E00A22684625
:1011900000F03EFE019807F8010B6D1C009C21B287
:1011A0000129F3DA022D06DA4AF02000652804BF8F
:1011B000302008F8010B4DB9302008F8010B07E08A
:1011C0006D1E02A8285C303008F8010B012DF7DAFB
:1011D000F068B1690818A8EB0000F06196F83800D3
:1011E00000F0140010280DD17069B1690818716AF7
:1011F0000818F1690818B16A0818716B8842BCBFF9
:10120000081A306206B0BDE8F087F8B504460D460E
:1012100016461F46002077B116F8011BA868A047A4
:10122000A86030B1E86A401CE86200207F1EF3D15C
:10123000F2BD4FF0FF30F2BD0000000000000000E2
:101240006E616E004E414E00696E6600494E46006A
:101250003000F8B504460D4616461F4600F0E0FD86
:101260003B4632462946204601B0BDE8F04000F03A
:10127000EEBD8268521C8260426832B10268531C23
:10128000036011704168491E416070470278C9B21D
:101290008A421AB11CBF10F8012FF9E718BF0020CD
:1012A0007047010200F10103810704D010F8011B0F
:1012B00089B18107FAD10268B2F10131914311F08D
:1012C000803F04BF50F8042FF6E710F8011B11B15E
:1012D00010F8011BFBE7C01A70470102C9B283076F
:1012E00006D0521E22D310F8013B9942F7D11FE0DD
:1012F000083A13D302F1040241EA012141EA014113
:1013000050F8043B121F21BF4B40A3F1013C2CEAD3
:10131000030C1CF0803FF3D0C9B2001F083210F854
:10132000013B521E28BF91EA030FF8D818BF0120D5
:10133000401E704780B500F073FD012002BD000023
:1013400070B5054605F10F00C408C046C046E4006C
:10135000A54232D2082C04D2082402E0083000F062
:1013600091F82248026811000CD1011D0A6802B3ED
:101370001368A34238BF111DF8D310E01D68A542C1
:101380000DD2191D0B68002BF8D11268011D00E069
:10139000191D0B6893420CD01D68A542F8D361B1AA
:1013A0000D682A68A2F10803A3420AD26A680A609B
:1013B0000FE000F06FFD0028D0D1C046C0460020ED
:1013C00070BD63190B60121B6E685E600B681A605B
:1013D0002C60096800291DBF4A68002A091D0021E8
:1013E0000160C046C04605F1080070BDD01E002057
:1013F00070B504460D46164600F012FD32462946E9
:101400002046BDE8704000F015BD000062B38B07B8
:1014100008D0521E11F8013B00F8013B00F0248077
:101420008B07F6D1830740F0208000BF103A07D326
:1014300030B4B1E83810103AA0E83810F9D230BC16
:10144000530724BFB1E80810A0E8081044BF51F8C2
:10145000043B40F8043BD20724BF31F8022B20F8AC
:10146000022B44BF0B7803707047083A07D3B1E8EA
:101470000810083A40F8043B40F804CBF7D2530771
:10148000E4E7000000B9704738B5A0F1080420680F
:10149000082833D310F0070F30D1C046C046184893
:1014A000416809B18C4203D26160446017E019467B
:1014B0004B680BB1A342FAD30B685D18AC421BD347
:1014C000A54204D12268D2180A600C4607E04A6897
:1014D0001AB123681B199A420ED362604C6061688E
:1014E00051B1226813198B4206D1002303600868AA
:1014F0008018206048686060C046C04631BD00006A
:10150000D01E00201B4213D1094236D12AB1844695
:10151000B0FBF2F002FB10C2704700F0D1BCFCD36C
:101520000022002370470B000200002100207047BA
:10153000904271EB030CF6D370B5B1FA81F4B3FAB3
:1015400083F52C1BA340C4F1200532FA05F6334382
:10155000A2405FF00046E64002E05B085FEA32022C
:10156000841A71EB030524BF204629467641F4D343
:1015700002000B003000002170BD012ACFD970B5E8
:10158000140C20D0B1FA81F4B2FA82F5C4F120042F
:101590006419B4F12006D6D3B2405FF00044F440A1
:1015A000002502E052085FEA3303C61A71EB020E0F
:1015B00024BF3046714664416D41F3D302000B00F5
:1015C0002000290070BD0C46B1FBF2F102FB114571
:1015D0002D0445EA1045B5FBF2F402FB145580B228
:1015E00040EA0545B5FBF2F002FB105240EA044028
:1015F00070BD30B4436803F0004201211B031B0B94
:10160000436004BF0368002B08D10DE00368DD0FC1
:1016100045EA440444605B000360491E4468E302F9
:10162000F4D523031B0B436043681A43426008460A
:1016300030BC70474FF4001C1CEB410F94BF1CEBF7
:10164000430F09E041EA030C50EA4C0C52EA0C0C3F
:1016500003D2994208BF9042704714BF8B42824226
:10166000704700004FF4001C1CEB410F94BF1CEBB3
:10167000430F09E041EA030C50EA4C0C52EA0C0C0F
:1016800003D28B4208BF8242704714BF99429042F6
:101690007047000070B504460D466068C0F30A50FC
:1016A00040F2FF71884207D16068000304BF2068E0
:1016B000002817D0022070BD20B92046FFF799FFFF
:1016C000012866DA012D0FDB40F2FF71091A8D4205
:1016D0000AD36068002847BF00202F4900202F4907
:1016E000C4E90001012070BD4142A942616806DAE7
:1016F0006FF31E51401941EA0050606040E0401E07
:1017000063684519012205F1350062F31F5335283E
:1017100001F00041636003D361600020206070BD70
:10172000002015F11F0F04DA206823600022203505
:1017300062606A4212D0401E25688041C2F12003D7
:10174000C0439D4045EAD07025686668D54006FADA
:1017500003F32B4323606368D340636062680A43EA
:10176000B0F1004F626003D80DD12078C0070AD5D0
:101770002068401C2060206828B96068401C6060B8
:101780004FF0FF3070BD6068884204BF20680028B9
:10179000F6D1002070BD00BF0000F0FF0000F07F18
:1017A000F446400D40EAC120490006D200F014F88A
:1017B000004248BF6FF00040604700F00DF84FF066
:1017C000004188428CBF084640426047400D40EAD5
:1017D000C120490080F00D8040F00040490DA1F586
:1017E0008061491C05D4D1F11F0154BFC840C01706
:1017F00070474FF000007047010040F10980F44647
:10180000404200F005F851F000416047010000BF80
:1018100009D0B0FA80F18840C91CC1F5846109057E
:1018200001EBD02140057047F0B44FF0004591EA3C
:10183000030F44BF6B4000F045BB00BF841A71EB3F
:10184000030604D26E40001BB141121973414FF4DC
:10185000001C1CEB410F34BF7CEB430684E00C0DF5
:10186000A4EB1356362E7DDC012E43DC45EAC32360
:1018700043EA525312BFD20292025B08240545EAA2
:10188000C12141EA5051D2EBC020994125D407D162
:10189000B0FA80F610FA06F164D00020203608E095
:1018A000B1FA81F6B140C6F1200220FA02F21143EA
:1018B000B0404FEAF474B4EB465434F001064FEAFA
:1018C00074040AD8D6F50016760D04F00044F040F2
:1018D00061FA06F25040F1404840C00A40EA4150E7
:1018E00021F0004128BF5FEA500550F1000044EBB1
:1018F000D12137E045EAC323DB0A45EAC121C90A01
:10190000B6F120050EDD42EA0242120CC5F12006B6
:1019100003FA06F6EB4042EA06056D42984161F192
:1019200000010DE062FA06F5F240554063FA06FC4C
:1019300082EA0C02F3405A406D42904161EB030190
:1019400011F4801F05D1641E620502D06D00404174
:10195000494121F48011430875F1004350F1000022
:1019600041EB0451F0BC70471CEB410F15D223F042
:10197000004352EA43060BD04FEA4C0CBCEB410F3C
:1019800004D80C0D661E342EB7DDEBE7801A9941A2
:1019900050EA410608BF0021E4E708BF1CEB430FF3
:1019A00028BF6FF00001DDE7B0B581EA030C0CF051
:1019B000004C40F2FF7515EA11541DBF15EA13578C
:1019C000AC42AF4239E0E41923EA455343F48013B3
:1019D000C90241F0004141EA505EC7021100A7FB75
:1019E000020200284FF00000EEFB01204FF0000142
:1019F000E3FB072118BF42F00102401800214941D2
:101A0000E3FB0E01A4F580640F0302D252004041B3
:101A1000494154F101046CDD470872F1004250F174
:101A2000000051EB0451A1F580115CBF41EA0C01AB
:101A3000B0BD4CEA05510020B0BD05EA1357AC42D9
:101A400014BFAF4241E050EA410E1CBF52EA430EC0
:101A500002E061460020B0BD24423C441BD15FEA55
:101A6000070EF6D0090302BF01460020AEF1140EA6
:101A7000B1FA81F7AEEB070401FA07FE0C37C7F1A4
:101A8000200100FA07F7C8404EEA000E23EA45534A
:101A900043F48013A2E733F00043B3FA83F704BFA3
:101AA000B2FA82FE77440B3FE41BB7F1200E2FBF42
:101AB00002FA0EF3BB40C7F1200E22FA0EFE38BF29
:101AC00043EA0E03BA40641C82E750EA410E14BF99
:101AD00052EA430E6FF000014FF4001717EB430F6B
:101AE0008ABF194617EB410FB5E74CEA05510020B4
:101AF000B0BDD4F10104B4F120070FDAC4F120071E
:101B0000520828BF42F0010210FA07F501FA07F760
:101B1000E1BF2A43E0403843E1400FE0352C98DC38
:101B2000C7F1200452EA400220FA07F218BF42F03F
:101B3000010231FA07F0A1400A43002172F100428C
:101B400050F1000051EB0C01B0BD00002DE9F04157
:101B500040F2FF7581EA030C0CF0004C15EA1154B9
:101B60001DBF15EA1357AC42AF42E9E0BC41C1F3D7
:101B70001301C3F31303801A994143F4801304D271
:101B8000641E4000494180185941C90241EA505140
:101B9000B1FBF3F603FB1611A2FB0675D7EBC020D1
:101BA000A94102D2761E80185941C90241EA50511A
:101BB000B1FBF3FE03FB1E11A2FB0E75D7EBC02099
:101BC000A94103D2AEF1010E80185941890241EAC0
:101BD0009051760546EA8E2EB1FBF3F603FB161103
:101BE000A2FB0675D7EB8020A94102D2761E801891
:101BF0005941C90241EA50514EEA060EB1FBF3F6D3
:101C000003FB1611A2FB0675D7EBC020A94102D237
:101C1000761E80185941C90241EA5051B1FBF3F7D1
:101C200003FB1711A2FB0735D3EBC020A94167F1D5
:101C300000070CBF004247F0010766F3D5274FEAC3
:101C40001E31B80814F5806414DDBD0775F100423B
:101C500050EB0E5051EB045111F5801F5CBF41EA6F
:101C60000C01BDE8F0814CF07F6141F0E0410020C3
:101C7000BDE8F081BD076D0840EA0E5041F48011C7
:101C8000D4F10104B4F120060ADAC4F120060200FE
:101C9000E04001FA06F3E1401843B24015430EE07C
:101CA000342C14DCC6F1200445EA40056D0820FA06
:101CB00006F2154321FA06F0A1400D43002175F10B
:101CC000004250F1000051EB0C01BDE8F081002012
:101CD0005FEA0C01BDE8F081CFB992185B41B3FA1D
:101CE00083F704BFB2FA82F6BF190B3FB7F12006A3
:101CF0002FBF02FA06F3BB40C7F1200622FA06F610
:101D000038BF3343BA401CB1E419641E2FE77F4249
:101D100031F00041B1FA81F404BFB0FA80F6A419A1
:101D20000B3CB4F120062FBF00FA06F1A140C4F12C
:101D3000200620FA06F638BF3143A0403C1B16E7C8
:101D4000AC421ABF05EA1357AF4214E050EA41060D
:101D50001CBF52EA4306BFE750EA410730466146DE
:101D60001CBF41EA0551BDE8F08152EA430C08BFAF
:101D7000C143BDE8F08100204FF4001616EB410F7F
:101D800098BF16EB430F08BF16EB410F24BFC143AA
:101D900005E016EB430F0CBF61464CEA0551BDE868
:101DA000F081000080B5134800F0F6F80FF24C0205
:101DB0000FF244010160426241600FF2440282630B
:101DC00081600FF24402C160016141618161816201
:101DD000C16201634163C2630164416401BD10B526
:101DE000044800F0D9F80446206808B9FFF7DAFF84
:101DF000204610BD5C000020000000002E00000006
:101E000066616C7365000000747275650000000007
:101E100091FBF2F303FB1211C0E90031704700009F
:101E200080B5DFF80C0000F0B7F8806902BD000053
:101E3000EC00002030B430B90FF24800D0E9004582
:101E4000C2E900451BE00170012030BC704730B48E
:101E500031B90FF23800D0E90045C3E900450EE082
:101E60001AB930BC6FF00100704708B10A780280DF
:101E70000978481E804130BCC043C00F7047002025
:101E800030BC7047000000000000000000000000AF
:101E9000000000000749086808B1002070470648A4
:101EA000C008C00008600549C908C900091A0160D6
:101EB000704700BF4C1F002067050020600700200E
:101EC00070470000841A71EB030603D2001BB14176
:101ED000121973414FF4001C1CEB410F34BF7CEB13
:101EE000430443E00C0DA4EB1356352E50DC45EAB9
:101EF000C323DB0A45EAC121C912B6F120050DDD75
:101F000063FA05F6EB4086EA0305124218BF45F076
:101F10000105C01851F100010CD213E062FA06F578
:101F2000F2405540F3415A40B340F3405A408018C4
:101F3000594107D349085FEA30005FEA350528BFF9
:101F400045F0010501F58011420875F1004250F19C
:101F5000000041EB0451F0BC4FF4001C1CEB410F9E
:101F600038BF70470020090D090570471CEB410F71
:101F700010D252EA43060BD0BCEB410F05D80C0D32
:101F8000AB43661E342EB5DD02E0AB4380185941E9
:101F9000F0BC7047F0BC704770470000BF000303FF
:101FA0000304030504060D00FE09FE0AFF01650295
:101FB000C008B52005006E0721074A43C7930022D9
:101FC000081D5A87844500230C3E460F8962A1589C
:101FD000481400240B3E46978C4263A18900250FCC
:101FE0004E428FE41021CA142987880400260C3E33
:101FF000428F8C44931D22A20227061A5B87012878
:102000000CDC3E97442411E9269209290DDC3E8719
:102010004C2413E9229288002A0B2E4A874842B1A9
:102020005044022B0A2E4A975064128A002C089CB6
:102030003ECF4409002D060E5287012E089C3E8F8C
:102040008422012F0C4E42A79A50A628130A013071
:102050000C4E42978C22E249421301310A4E4297BC
:102060006C44D49301320B4E420F454412CA74346F
:10207000330D4E428751A6461592241400340E4E5D
:10208000429F50362245B4D8841200350E4E42C7C6
:102090002128AC4C8442928402360E4E42D7482608
:1020A00014562624928402370D4E428751269409F5
:1020B00065423500380E4E420F45C424A18898244D
:1020C0001400390D4E420F45C43229AA8946003A00
:1020D0000CC4428F842287492812003B0BC43E8FD8
:1020E0008422874D94003C084E42A74C571D3D0763
:1020F000264A871D6A3E094E428754371D013F0E0E
:102100004E420F454412CA14E5301100400C4E42B5
:102110000F45C4723858A405410C4E42978C226278
:102120003A8C9804420D4E424749A2179244970BAD
:1021300000430B4E420F4544D4938402440B4E425D
:102140004749A2FFCB0500450B4E42C721A85811B5
:102150002A1A460B4E42C721A858116A04470D4E51
:10216000420F4544D45222492800480B4E428788EA
:10217000D361C449004909CC420745A42F044A0B46
:102180004E4217518F240905004B0E4E4287884559
:10219000429A91244A24014C084E4287503F1A4DDE
:1021A0000B4E42878874780871124E0D4E4287A8F4
:1021B00052391C244D24014F0B4E420F45C44F127F
:1021C0000A00500B4E424745C474116A04510B5625
:1021D0003E0F45C4A743842A520D4E424745C4745E
:1021E0002149944802530E4E420F4544945285248F
:1021F00009050054094E428749A89F00550A4E42DE
:1022000087883F492800560C4E4287889384C4260D
:102210001401570A4E428788D3E19300580E4E426C
:1022200087882421D164248A8824590C4E428788C7
:102230002421D1843A015A0C4E428751269429CA4E
:1022400084065B08DC3E87497F225C0C4E42875047
:102250002A942A4A85025D08DC3E07497F325E08DF
:102260001E5A978C22125F060E3E8701600793620A
:10227000874800610A36420F5572A24C14620E4E16
:102280004287508B64422255281200630B36420F5E
:10229000454454925000640B4E42A71609A5C4321F
:1022A00051650B36420F4574184A2900660C4E42A0
:1022B000D748A2282B09B501670D463ACF45D34828
:1022C0004A11492800680B4E4287508B6442E22431
:1022D000690ACC428F483AD285006A0D5D3A9F3A2E
:1022E00060A68D42914C006B0D4E4287508B84341A
:1022F000234994046C08CC42C748BF106D0936428C
:1023000047E5F050126E0A36428744322171126F4F
:102310000A36420F45C4494201700D463A8744329D
:102320002155288A8A00710B463A8F8452A24C1498
:1023300035720A3642874432216A04730D36420FE1
:102340004524994A44120A00740C46428F50561292
:102350006A114D00750936428788978902760B36D7
:102360004287884942A28900770C364287887438B0
:1023700058421100780C364287484213CA2822017D
:10238000790C463A8788CB449124A1007A083642DA
:10239000874D47037B0D5D3ED744A628198A648A82
:1023A000037C074A43C703017D0E5D3EC750A62448
:1023B0009C08652A23007E081D5A8FE41401A0059D
:1023C000006E07A107524307E970A21046465F8CD2
:1023D00022894C42929024851802A30D4E42D74880
:1023E000A2282B09952C00A40C364687E810096515
:1023F000398404A50E4E4287882421514C229350E3
:1024000004A6085243C7217808A70F56420F454437
:10241000A58848122A494201A807165E878824A980
:10242000104E420F453491504A94896424A100AA69
:102430000A3E4A47F5203B840DAB113E46972422C5
:1024400089484291982426894902AC08264AC7A1A6
:102450009A00AD068C520701AE104E420F4534A9CA
:102460004426159508494201AF07155EC76100B0C3
:102470000A26560F4544925000B10D4E42975074B3
:102480002809E5904301B20A3452C7242292281148
:10249000B30A3452C724A236A900B40793620F05C9
:1024A00000B50A463A8788A783340AB6104E42CF51
:1024B000E11069894C429290242409B7061253070F
:1024C00001B807933A0F0500B90934528F64A48507
:1024D00000BA093D4ECFC4661917BB123E464744A9
:1024E000169145649150441291444400BC0D5642EB
:1024F0008F6CA8E93692848802BD0D56428F6CA875
:10250000489908658A04BE115642C72C22938A2234
:10251000128A6C24091105BF0F564297500E13CA38
:10252000144524090500C00E56428F540E935144A1
:10253000A4C38824C10E56429F3A4C4611910E23E3
:102540009200C20F5642D7482287C82822D261443F
:1025500012C30F56429724450E925144A4C38824B7
:10256000C40F564287882487C82822D2614412C5E6
:102570000F5642972C14A2C92822D2614412C611C8
:102580004E428F451411454491098914114508C7DD
:102590000C5E3A0F4544D49384A606C80E56428F6B
:1025A000540E39048515A1D000C90D56429F3AE456
:1025B000101456844203CA0E5642D748223E048560
:1025C00015A1D000CB0E56428788243E048515A164
:1025D000D000CC0AD442874C4A11E942CD0AD442F9
:1025E00097444A11E942CE0B5542CF449924D389EE
:1025F00000CF0D564287882407D084BA5100D00CF2
:102600004E424749A24B455F2E00D10F56429724B8
:10261000450E10552A87499300D20D56428F540E0D
:10262000A28878925000D30C56429F3A8822E24901
:102630004201D40E5642D748220750443C49280054
:10264000D50E56429724450EA18878925000D60E9A
:1026500056428788240750443C492800D70B2E4611
:1026600087484293514402D80E4E3E6F842269AA95
:102670005424942800D90C56428F540E11F149422B
:1026800001DA0C56429F3A44C427090500DB0C5678
:1026900042D7482216F1494201DC0B56428FCE2226
:1026A0003E492800DD0E56429F3A4424098568427F
:1026B0004D00DE0C4E4287B02262BA081501DF0DD4
:1026C0004E3E0F4544BA88982E5100E00D4E428F81
:1026D000540EA24A4E948902E10C4E429F3A882A37
:1026E0003951260AE20E4E42D7482207502527CA02
:1026F0004401E30E4E429724450EA14A4E948902AE
:10270000E40C4E428FEE00AAE4449928E50F5642AD
:10271000D72C129B43A8921365A200E60F36420FF6
:102720004D12A144441149441201E70C463A0F45A9
:10273000445492D0D400E80E4E428F540EA2880E1C
:1027400043290500E90D4E429F3A88223A0CA51410
:1027500000EA0E4E42D7482207504487A19402EB6C
:102760000D4E428FEE008AE830945200EC0ACC42C3
:10277000874C3AD28500ED0ACC4297443AD2850084
:10278000EE0A4D42CF4479A61301EF0A4D428784E9
:10279000229EE944F01056428744342285441411A5
:1027A00027090500F10E4E429724450E9048262435
:1027B0004E02F20D4E428F540EA28838492800F383
:1027C0000C4E429F3A8822E224A100F40E4E42D7DA
:1027D00048220750449C241400F50E4E429724458D
:1027E0000EA18838492800F60E4E428788240750EB
:1027F000449C241400F70C3E4697500EB1438422AB
:1028000000F80E4E3E6F8422A2942A2409250AF96C
:102810000B4E428F540E11F13251FA0B4E429F3A39
:1028200044C4CB4401FB0B4E42D7482216F132512F
:10283000FC0B4E4287882416F13251FD0E5E3A9F02
:102840003A44C465A248925000FE0E563A8750455D
:10285000322155288A8A00FF0F5E3A878824167134
:1028600099289224140000000004FFFF00000000DB
:10287000BF0003020304030504050D00FE09FE0A60
:10288000FF015F02C408642005006E072107494369
:10289000C7210922079B5A476209230E3D464F294B
:1028A0004906A53228A52401240F4D425736285148
:1028B000926D49940C5A04250D4D424FA474CC8A54
:1028C000498B9400260E45424F9644495689A229C9
:1028D00052022706195BC700280BDB3E5712255111
:1028E000B7280B290CDB3E47166551972889002A2B
:1028F0000A2D5257A5B23445002B0A2D4A57180D00
:102900005218012C079B3E8F52022D060D52C720F4
:102910002E089B3E4FB224002F0B4D42672DCC8AD0
:10292000591802300B4D425796D4BC25B508310BCF
:102930004D42572625614F8300320B4D42CF92699D
:1029400061D67110330C4D42C72066B535D492055F
:10295000340F4D425F984949949492410B130035CE
:102960000C4D42C7B1620A432D5900360D4D42CF7E
:102970009289E19064B66401370C4D42C7206661CC
:102980001666610D380D4D42CF92D99225B3250BB5
:1029900000390D4D42CF92D992210CB564013A0B0A
:1029A000C33E4FB2E448B224003B0AC33E4FB2E4F8
:1029B0008852023C084D4267D6B5033D09254AC7F7
:1029C000A06383003E094D4247DAAD23003F0C4D22
:1029D00042CF92696156CCA108400D4D42CF9299E9
:1029E0009644492CE910410C4D425796D46CC39043
:1029F000D90242104D42C71055A2244AA64A944417
:102A00008302430B4D42CF9289BD250B0044124DEA
:102A100042C71055A2244AA2244AA2241A140045EF
:102A20000B4D42C7B13824617110460B4D42C7B1FE
:102A30003824612300470C4D42CF92894D9B962C40
:102A400000480B4D4247E6360C995B004908CB42E3
:102A5000C712F5654A0B4D42D716F6124512004BC8
:102A60000D4D4247664A4A5A1255322D4C094D4285
:102A700047D88F83004D0D4D4247A62D4BA2249A77
:102A80005B004E0D4D4247364D4AA224D24D0B4FAE
:102A90000A4D42CF92F92D5900500C4D42C7906417
:102AA000B641091B01510A553ECF92F9A5B2065213
:102AB0000D4D42C79064B6412955322D530C4D42FD
:102AC000CF9289E91A6AC90254094D42C72085FD8F
:102AD0000455094D4247E66FC902560D4D4247E67F
:102AE00096949228C9C208570D4D4247E6255112C7
:102AF0002551BA00580E4D4247A625A524AB44499E
:102B00004D0B590C4D4247A625A5240B3B015A0CF1
:102B10004D42C720666156CCC2415B09DB3EC710FF
:102B2000F5A7015C0B4D4247988669310D035D099D
:102B3000DB3EC7D49F86005E081D5A5796D4025FBD
:102B4000060D3EC720600612634714610B3542CF65
:102B50009A0C9AA42801620C4D4247581C92CC6DE5
:102B60005000630A3542CF9289B56401640B4D422F
:102B700067CBA0B9254300650C3542CF920D439831
:102B8000250B00660C4D42975409B3210ADB006700
:102B90000C453ACF92D99221D49205680A4D42470A
:102BA000D862D2DC026908C3424F2875196A0B54F7
:102BB0003A5FACB54952A2006B0D4D4247D8949490
:102BC000B424AA64016C08CB4287D42F036D0D3561
:102BD0004287D2A2244AA2245A006E093542476293
:102BE000D2DC026F0A3542CF92B9250B00700C453A
:102BF0003AC79064B641098B00710A453ACFA0D913
:102C000092216C720935424762121B01730C3542E6
:102C1000CF92256A92250B00740C45424F980D51B6
:102C2000D81429007509354247E6495102760B351B
:102C30004247664B4A491601770B3542476649942D
:102C400044E902780B35424796D4C22CA905790C89
:102C5000453A47E6A428A1962C007A093542C7A038
:102C6000751C047B0B5D3E9F1436A961AB007C068E
:102C70004943C7037D0B5D3E871AB64A6193067EC2
:102C8000091D5A4FA4245202A005006E07A108494D
:102C90004347320C01A20E454657B65494288992F8
:102CA000CA1601A30D4D42975409B32D2C290A00D1
:102CB000A40C354647964C4994444B16A50F4D42FB
:102CC00047A625A52419A46890C208A6084943C7A9
:102CD000900C01A70ED4428F12894A2425A2942871
:102CE00000A807936247A204A90F4D46CF9229C9B5
:102CF000215A96444B1600AA0C3D4ACF9A0C5A32E0
:102D0000A48300AB0B354657D25392255912AC071A
:102D10001D4AC72016AD068B52C700AE0E4D46CFDA
:102D2000920DC92119945BB200AF060D62C720B0A5
:102D300009A4568F12498902B10C3D4657180D520D
:102D400098038300B2082B564F53920CB3072B56AF
:102D50004FB705B40612638F02B50A453A47E669D4
:102D600050C410B6124D42CF30244332244392282F
:102D70005112255112B7060A538700B806123B8F2D
:102D800002B9082B564F225506BA0A3D4ACF92D9AE
:102D9000927910BB0C35464792255912253D01BC4E
:102DA0000C55424F26D6E64C4AA231BD0C55424F37
:102DB00026D6D62C09B36CBE0F55424F9664699443
:102DC00064512625D118BF0C4D42570E855931D379
:102DD0009205C00E55424F9A435952D38621D302D1
:102DE000C10D55425F1DCA929A360C9916C20E55F6
:102DF00042975407B2A4A60D43A605C30E554257E9
:102E0000D28E64494D1B864C0BC40F55424F29C9C5
:102E1000912CA969C3906901C50F55425796646109
:102E200096D4B461C8B400C6114D424FB24449941F
:102E30004489322551122503C70B5D3ACF9289BDD3
:102E4000255B0DC80D55424F9A03C77048C27010DC
:102E5000C90D55425F1D38864312868300CA0D5541
:102E60004297541DC67048C27010CB0E55424F2970
:102E70008987311C92301C04CC0AD34247162E514C
:102E80009701CD0AD34257122E519701CE0BD4424F
:102E90008F128553D66901CF0AD34247A2644BD41F
:102EA00065D0114D42C71055A2241A92521225D155
:102EB000A000D10D554257D29C699392489B16D2DF
:102EC0000C55424F9A234BE62D5900D30B55425FC8
:102ED0001D59326FC902D40B554297545E326FC9E7
:102EE00002D50C554257D20E2C99B76401D60D5518
:102EF000424F29C98125F3962C00D70A2D464796C3
:102F0000D42AB500D8105D3E67B244974449946412
:102F10009A922504D90B55424F9A03996FC902DA48
:102F20000B55425F1DC87C4B1600DB0B5542975476
:102F3000CD7C4B1600DC0B55424F298933DF9205BF
:102F4000DD0C55425F1DC8B4A4163601DE0D4D429E
:102F5000473824996D50C22200DF0E4D428F5489AC
:102F600092521255328B02E00D4D424F9A236B3232
:102F70006892A204E10C4D425F1D599341931425C0
:102F8000E20C4D4297545E9341931425E30D4D425C
:102F900057D20EACC9A0498A12E40E4D424F29C93E
:102FA00081351934495102E50E55429754D2813585
:102FB0001934495102E60B3542CF96244B29E902D8
:102FC000E70B453ACF9289B564AB01E80E4D424F0D
:102FD0009A234B360C61962C00E90D4D425F1D592A
:102FE000B26108B36401EA0D4D4297545EB26108C4
:102FF000B36401EB0F4D424F29C981251B86304B2D
:103000001600EC09CB4247164A5D06ED09CB425744
:10301000124A5D06EE0ACC428F12855AA705EF0AC6
:10302000CB4247A264529701F00D55424F2D53A356
:1030300025734B1600F10B4D4257D29C9834B700C4
:10304000F20C4D424F9A234BE6962C00F30B4D4267
:103050005F1D5932B76401F40B4D4297545E32B78D
:103060006401F50C4D4257D20E2C995BB200F60D5F
:103070004D424F29C98125734B1600F70C3D465729
:103080009803830E841100F80E453E67B2444BA2AC
:103090002453B28400F90B4D424F9A0399274509F6
:1030A000FA0B4D425F1DC83C294A00FB0B4D42976D
:1030B00054CD3C294A00FC0B4D424F2989334F8A9D
:1030C00012FD0D5D3A5F1DC89C1425D49205FE0DBE
:1030D000553A47583169DAA4286108FF0E5D3A4F26
:1030E000298933274509B5640100000004FFFF006A
:1030F0000000000070B5040000250026002C01D15E
:103100000120BAE094F83D00002805D1002084F8A1
:103110003C00200000F0DEFC242084F83D00206804
:103120000068400840002168086001F035F806009A
:103130006068DFF8D012884208D2DFF8CC028642FD
:1031400001D2012000E00020C0B207E0DFF8BC029D
:10315000864201D2012000E00020C0B2012801D146
:1031600001208AE0DFF8A802B6FBF0F00500206835
:1031700045606068DFF88C12884201D2681C08E064
:103180004FF4967000FB05F04FF47A71B0FBF1F04C
:10319000401C216808626068DFF86812884214D217
:1031A000701E61684900B0FBF1F0401C0005000D85
:1031B000042801D204203EE0701E61684900B0FB83
:1031C000F1F0401C0005000D35E0A068002809D191
:1031D000701E616803225143B0FBF1F0401C0005F2
:1031E000000D0AE0701E616819225143B0FBF1F036
:1031F000401C0005000D50F48040000501D1012065
:1032000019E0A068002809D1701E616803225143AB
:10321000B0FBF1F0401C0005000D0AE0701E616873
:1032200019225143B0FBF1F0401C0005000D50F491
:10323000804050F400402168C861E069216A084379
:10324000216808602069E168084321688860606936
:10325000A16908432168C8602068006850F0010037
:103260002168086000202064202084F83D000020B0
:103270002063002084F83E00002070BD2DE9F84353
:1032800004000D0016001F00DDF820805FF000092B
:1032900001F003F8814694F83D00202840F0AF800B
:1032A000CDF8009019230122DFF86811200000F00A
:1032B00065FA002801D00220A2E094F83C00012821
:1032C00001D102209CE0012084F83C0020680068C5
:1032D000C00705D42068006850F00100216808602C
:1032E0002068006830F4006021680860212084F8BC
:1032F0003D00102084F83E0000202064666267854F
:10330000DFF81401E062608D20854B4642462900BB
:1033100089B2200000F04EF900280CD0206C04285F
:1033200004D1002084F83C00012069E0002084F8EA
:103330003C00032064E00020009020684069009079
:103340002068806900900098208D002846D04A4669
:103350004146200000F0A6FA00280CD0206C04287A
:1033600007D12068006850F40070216808600120CF
:1033700046E0032044E0606A411C616200782168F5
:103380000861608D401E6085208D401E208520686C
:10339000406940070ED5208D00280BD0606A411C83
:1033A0006162007821680861608D401E6085208D13
:1033B000401E20854A464146200000F09CFA002825
:1033C000C2D0206C042807D12068006850F4007037
:1033D00021680860012013E0032011E020680068E4
:1033E00050F4007021680860202084F83D0000201F
:1033F00084F83E00002084F83C00002000E0022019
:10340000BDE8F283A186010080841E0000093D0012
:1034100040420F00020010000000FFFF2DE9F04FB6
:1034200083B005000E0017009846DDF830900D9C23
:10343000DDF838A05FF0000B00F02FFF834695F811
:103440003D00202840F0AE80CDF800B019230122C5
:10345000DFF85C11280000F091F9002801D002206B
:10346000A1E095F83C00012801D102209BE0012059
:1034700085F83C0028680068C00705D42868006803
:1034800050F00100296808602868006830F4006086
:1034900029680860212085F83D00402085F83E001D
:1034A00000202864C5F824906C85DFF80001E862EC
:1034B000688D2885CDF804B0CDF800A043469BB2B6
:1034C0003A0092B2310089B2280000F0DBF80028FF
:1034D0000CD0286C042804D1002085F83C00012081
:1034E00061E0002085F83C0003205CE0288D002886
:1034F00033D05A465146280000F0D4F900280CD0A9
:10350000286C042807D12868006850F400702968E6
:103510000860012047E0032045E0686A411C6962B9
:10352000007829680861288D401E2885688D401E16
:103530006885286840694007D8D5288D0028D5D0EF
:10354000686A411C6962007829680861288D401EFC
:103550002885688D401E6885C8E75A465146280070
:1035600000F0C9F900280CD0286C042807D128687D
:10357000006850F4007029680860012013E00320FF
:1035800011E02868006850F4007029680860202065
:1035900085F83D00002085F83E00002085F83C00BD
:1035A000002000E00220BDE8FE8F00000000FFFFC9
:1035B000020010002DE9F04182B004000D00160059
:1035C0001F00D4F82C80B8F1040F06D0B8F1010F19
:1035D00003D0DFF89C01804506D12068006850F4D4
:1035E00080702168086008E0206B122805D12068EF
:1035F000006850F480702168086000973300002252
:103600005FF00111200000F0B9F8002801D003207C
:1036100036E02069B0F5804F04D115F0FE00216836
:1036200008611CE015F4407080B2C00950F0F00051
:10363000C0B2216808613B003200DFF83811200079
:1036400000F0E0F8002806D0206C042801D1012009
:1036500016E0032014E02800C0B2216808613B0096
:103660003200DFF81411200000F0CCF8002806D05A
:10367000206C042801D1012002E0032000E000209A
:10368000BDE8F6812DE9F84304000D0016001F0087
:10369000DDF82080DDF824902068006850F4807008
:1036A00021680860CDF80090434600225FF00111C8
:1036B000200000F063F8002801D0032056E015F048
:1036C000FE00216808614B4642462B49200000F06D
:1036D00099F8002806D0206C042801D1012045E08B
:1036E000032043E00020009020684069009020689B
:1036F0008069009000984A464146200000F0D2F8C8
:1037000000280CD0206C042807D12068006850F4F1
:10371000007021680860012028E0032026E0BFB285
:10372000012F04D13000C0B2216808611DE03000D3
:1037300080B2000AC0B2216808614A4641462000B2
:1037400000F0B0F800280CD0206C042807D12068C5
:10375000006850F4007021680860012006E0032032
:1037600004E03000C0B2216808610020BDE8F283A7
:103770000000FFFF08000100020001002DE9F041F8
:1037800004000D0016001F00DDF81880280CC0B2E0
:1037900001280AD120684069284080B2A9B2884235
:1037A00001D101200BE0002009E020688069284059
:1037B00080B2A9B2884201D1012000E00020002897
:1037C00001D0012000E00020F6B2B04217D117F17D
:1037D000010FDBD0002F05D000F05FFDB0EB08003B
:1037E0008742D3D200202063202084F83D000020AF
:1037F00084F83E00002084F83C00032000E0002014
:10380000BDE8F081F8B504000D0016001F00280C7B
:10381000C0B201280AD120684069284080B2A9B20C
:10382000884201D101200BE0002009E02068806976
:10383000284080B2A9B2884201D1012000E00020D6
:1038400000282DD120684069400515D52068006802
:1038500050F40070216808607FF48060216848613E
:103860000420206400202063202084F83D000020F4
:1038700084F83C00012014E016F1010FC7D0002E9F
:1038800004D000F00AFDC01B8642C0D20020206395
:10389000202084F83D00002084F83C00032000E054
:1038A0000020F2BD70B504000D00160020684069CC
:1038B00000061ED4200000F047F8002801D00120A7
:1038C00018E015F1010FF1D0002D04D000F0E5FC57
:1038D000801B8542EAD2206C50F02000206400203A
:1038E0002063202084F83D00002084F83C00032061
:1038F00000E0002070BD70B504000D0016002068C7
:10390000406940071ED4200000F01EF8002801D0B6
:10391000012018E015F1010FF1D0002D04D000F0C6
:10392000BCFC801B8542EAD2206C50F02000206451
:1039300000202063202084F83D00002084F83C0013
:10394000032000E0002070BD0100086840694005C8
:103950000FD57FF480600A6850610420086400205D
:103960000863202081F83D00002081F83C00012000
:1039700000E000207047000080B56648006850F005
:103980000100644908606348006810F0010000907D
:1039900000986148006850F080505F4908605E48B8
:1039A000006810F0805000900098032000F0E6FCC2
:1039B000002200217FF00B0000F0E6FC0022002135
:1039C0007FF00A0000F0E0FC002200217FF00900F7
:1039D00000F0DAFC002200217FF0040000F0D4FCAB
:1039E000002200217FF0030000F0CEFC00220F2116
:1039F0007FF0010000F0C8FC00220F215FF0FF30D3
:103A000000F0C2FC45490968080030F0E06050F061
:103A100000704249086001BD10B586B004002068FE
:103A20003F4988423CD13B48006850F40070394916
:103A300008603848006810F4007000900098022078
:103A400001900320029001A9364800F0DDFC3648C1
:103A500036490860002035494860002033498860B5
:103A600080203249C8604FF48070304908614FF4BB
:103A700000602E49486100202C4988614FF40050B5
:103A80002A49C861294800F047FE002803D0802158
:103A9000274801F02BF8254820622448446217E0AB
:103AA00020682449884213D11A48006850F4806085
:103AB000184908601748006810F48060009000986A
:103AC000012001900320029001A9164800F09CFCFF
:103AD00006B010BD10B586B00400206816498842B3
:103AE00015D1C0200190122002900320049001A95A
:103AF000124800F089FC0848006850F4001006499C
:103B000008600548006810F400100090009806B0A6
:103B100010BD0000181002401C10024004000140BB
:103B2000002401400008014008000240601D002000
:103B3000C49C00080028014000540040000C0140D3
:103B400070B582B0040000252078C00740F1848061
:103B5000DFF8D406006810F00C0004280BD0DFF862
:103B6000C806006810F00C0008280ED1DFF8B8066F
:103B70000068C00309D5DFF8AC06006880036BD588
:103B80006068002868D1012004E26068B0F5803FD9
:103B900008D1DFF89006006850F48030DFF8841612
:103BA000086038E06068002810D1DFF87806006807
:103BB00030F48030DFF86C160860DFF868060068C3
:103BC00030F48020DFF85C16086024E06068B0F50F
:103BD000A02F10D1DFF84C06006850F48020DFF8E9
:103BE00044160860DFF83C06006850F48030DFF8C7
:103BF000341608600FE0DFF82C06006830F48030DF
:103C0000DFF820160860DFF81C06006830F480201A
:103C1000DFF810160860606800280ED000F03DFB49
:103C20000500DFF800060068800315D400F035FBBE
:103C3000401B6528F5D30320ACE100F02EFB050006
:103C4000DFF8E0050068800306D500F026FB401B86
:103C50006528F5D303209DE1207880075CD5DFF847
:103C6000C805006810F00C0F0BD0DFF8BC05006829
:103C700010F00C0008281AD1DFF8AC050068C0036A
:103C800015D4DFF8A0050068800704D52069012855
:103C900001D001207EE1DFF88C05006830F0F800EB
:103CA000616950EAC100DFF87C15086034E02069E2
:103CB00000281ED00120DFF88015086000F0EDFA22
:103CC0000500DFF860050068800706D400F0E5FA1B
:103CD000401B0328F5D303205CE1DFF848050068AA
:103CE00030F0F800616950EAC100DFF8381508606B
:103CF00012E00020DFF84015086000F0CEFA050061
:103D0000DFF820050068800706D500F0C6FA401BE2
:103D10000328F5D303203DE1207800072CD5A069C6
:103D2000002816D00120DFF81415086000F0B5FA5D
:103D30000500DFF800050068800706D400F0ADFA42
:103D4000401B0328F5D3032024E1012000F057FA9B
:103D500012E00020DFF8E414086000F09EFA05008D
:103D6000DFF8D0040068800706D500F096FA401B03
:103D70000328F5D303200DE12078400740F1A78008
:103D80000026DFF8BC040068C00010D4DFF8B004DF
:103D9000006850F08050DFF8A8140860DFF8A00435
:103DA000006810F080500090009801200600DFF8B5
:103DB00094040068C00516D4DFF88804006850F445
:103DC0008070DFF88014086000F067FA0500DFF803
:103DD00074040068C00506D400F05FFA401B652833
:103DE000F5D30320D6E0E068012808D1DFF85804B5
:103DF000006850F00100DFF85014086037E0E06818
:103E0000002810D1DFF84004006840084000DFF8C7
:103E100038140860DFF83004006830F00400DFF880
:103E20002814086023E0E068052810D1DFF81804A2
:103E3000006850F00400DFF810140860DFF8080490
:103E4000006850F00100DFF8001408600FE0DFF8B0
:103E5000F803006840084000DFF8EC130860DFF862
:103E6000E803006830F00400DFF8DC130860E06865
:103E7000002810D000F011FA0500DFF8CC0300682C
:103E8000800719D400F009FA401B41F289318842B9
:103E9000F3D303207EE000F000FA0500DFF8A8036A
:103EA0000068800708D500F0F8F9401B41F289311D
:103EB0008842F3D303206DE0F6B2012E07D1DFF87C
:103EC0008003006830F08050DFF874130860E06908
:103ED00000285ED0DFF85003006810F00C000828BE
:103EE00055D0E06902283FD10020DFF86013086058
:103EF00000F0D3F90500DFF82C030068800106D537
:103F000000F0CBF9401B0328F5D3032042E0206AE0
:103F1000B0F5803F09D1DFF81003006830F40030BD
:103F2000A1680843DFF800130860DFF8FC020068AE
:103F300030F47410216A0843616A0843DFF8E8121C
:103F400008600120DFF80413086000F0A6F90500FE
:103F5000DFF8D002006880011BD400F09EF9401BFE
:103F60000328F5D3032015E00020DFF8E0120860F5
:103F700000F093F90500DFF8AC020068800108D575
:103F800000F08BF9401B0328F5D3032002E0012049
:103F900000E0002076BD70B504000D000026DFF8BB
:103FA000B002006810F00700A84211D2DFF8A002AA
:103FB0000068C008C0002843DFF894120860DFF8EA
:103FC0009002006810F00700A84201D00120A3E091
:103FD0002078800709D5DFF85002006830F0F00043
:103FE000A1680843DFF8401208602078C00758D560
:103FF0006068012806D1DFF82C020068800312D423
:10400000012089E06068022806D1DFF81802006804
:10401000800108D401207FE0DFF8080200688007F3
:1040200001D4012078E0DFF80002006880088000F9
:10403000616808437C49086000F02FF90600606859
:1040400001280ED17848006810F00C00042828D010
:1040500000F023F9801B41F289318842F2D303201A
:104060005AE0606802280ED16F48006810F00C001A
:10407000082816D000F011F9801B41F289318842DE
:10408000F2D3032048E06848006810F00C0F08D015
:1040900000F003F9801B41F289318842F3D30320F9
:1040A0003AE06B48006810F0070085420ED268487D
:1040B0000068C008C000284365490860644800687B
:1040C00010F00700A84201D0012025E02078400729
:1040D00007D55548006830F4E060E168084352496C
:1040E00008602078000708D54F48006830F4605019
:1040F000216950EAC1004C49086000F00EF85549AA
:10410000494A1268C2F30312515CC840484908602A
:10411000002000F0EDFC002070BD70B586B001A855
:104120004D491022FDF782F94C480088ADF8000097
:10413000002100220023002400203B4D2D6829008F
:1041400011F00C05042D02D0082D03D01DE0374DD1
:1041500028001CE001ADC1F38346755D2C00CD0342
:104160000DD56D46304E3668C6F34046755D2A0063
:104170002E4D05FB04F5B5FBF2F52B0003E0384DA1
:1041800005FB04F52B00180001E0284D280006B0BF
:1041900070BD27480068704780B5FFF7FAFF3149C6
:1041A000214A1268C2F30222515CC84002BD80B5A8
:1041B000FFF7EFFF2B491C4A1268C2F3C222515C81
:1041C000C84002BD0F220260174A126812F00302B3
:1041D0004260154A126812F0F0028260124A1268B8
:1041E00012F4E062C260104A1268D20812F4E0626F
:1041F0000261174A126812F007020A60704781B024
:104200000B490968C9084FF47A72B1FBF2F101FB5E
:1042100000F1009100BF00994A1E00920029F9D1D7
:1042200001B07047001002400410024000127A00F2
:104230004400002024100240000042428004424218
:104240001C100240007000402010024060004242FA
:1042500000200240E0A00008C0A00008A212000850
:1042600000093D0060A1000880B50D48006850F0CD
:1042700010000B490860032000F080F8002000F0D7
:1042800037FCFFF779FB002002BD074800680549AD
:1042900009780818044908607047034800687047A7
:1042A0000020024058010020001F002010F00702EB
:1042B0004D4B1B6819004FF6FF0319404B4B53EA57
:1042C00002231943484B1960704747480068C0F300
:1042D00002207047012110F01F029140444A40B271
:1042E000430942F82310704710B440B2002808D5A3
:1042F0000A01404B40B210F00F04E31803F8042CFD
:1043000003E00A013C4B40B2C25410BC704770B489
:10431000030013F00704D4F10706052E01D304208F
:1043200001E0D4F10700261D072E01D2002500E090
:10433000E51E012616FA00F0401E0840A8400121A3
:10434000A940491E1140084370BC704710B50400D5
:10435000601EB0F1807F01D301200EE0601E27496E
:1043600008600F215FF0FF30FFF7BEFF00202449F7
:104370000860072023490860002010BD10B5040024
:104380002000FFF793FF10BDF8B504000D001600E4
:104390000027FFF79AFF0700320029003800FFF7D7
:1043A000B6FF0100200040B2FFF79EFFF1BD10B53F
:1043B0000400200040B2FFF78DFF10BD10B50400CF
:1043C0002000FFF7C3FF10BD042806D10D4909687E
:1043D00051F004010B4A116005E00A49096831F007
:1043E0000401084A116070470CED00E00000FA0576
:1043F00000E100E018ED00E000E400E014E000E07F
:1044000018E000E010E000E02DE9F841002300246E
:10441000002500265FF0000E5FF0000C6246102AB7
:1044200080F04D815FF0010C1CFA02FC6346D1F86C
:1044300000C013EA0C0C64469C4240F03E81D1F867
:1044400004C0BCF1000F3DD0BCF1010F24D0BCF181
:10445000020F2BD0BCF1030F4CD0BCF1110F1FD0B9
:10446000BCF1120F28D0DFF87082C4452AD0DFF8E3
:104470006C82C44526D0DFF86882C44522D0DFF8BC
:104480006482C4451ED0DFF86082C4451AD0DFF8CC
:104490005C82C44516D031E0D1F80CC066462DE0F0
:1044A000D1F80CC01CF1040C664627E0D1F80CC012
:1044B0001CF1080C664621E0D1F80CC01CF10C0C74
:1044C00066461BE0D1F808C0BCF1000F03D15FF0D5
:1044D000040C66460DE0D1F808C0BCF1010F04D110
:1044E0005FF0080C6646036103E05FF0080C664667
:1044F000436103E05FF0000C6646FFE7FF2C01D844
:10450000070000E0071DFF2C02D85FEA820E03E0DF
:10451000B2F1080C5FEA8C0ED7F800C05FF00F080C
:1045200018FA0EF83CEA080C16FA0EF858EA0C0CC9
:10453000C7F800C0D1F804C05FEACC0C40F1BD80E0
:10454000DFF8ACC1DCF800C05CF0010CDFF8A08142
:10455000C8F800C0DFF898C1DCF800C01CF0010802
:10456000CDF80080DDF800C0DFF888C15FEA92086E
:104570005CF828C065465FF00F0C12F003085FFA84
:1045800088F85FEA88081CFA08FC35EA0C05DFF8B1
:1045900068C1604502D15FF0000C16E0DFF85CC135
:1045A000604502D15FF0010C0FE0DFF854C16045B7
:1045B00002D15FF0020C08E0DFF848C1604502D18B
:1045C0005FF0030C01E05FF0040C12F003085FFAE7
:1045D00088F85FEA88081CFA08FC5CEA0505DFF841
:1045E00014C15FEA92084CF82850D1F804C05FEA81
:1045F000CC3C0AD5DFF810C1DCF800C054EA0C0C42
:10460000DFF80481C8F800C009E0DFF8FCC0DCF87E
:1046100000C03CEA040CDFF8F080C8F800C0D1F814
:1046200004C05FEA8C3C0AD5DFF8E0C0DCF800C0CB
:1046300054EA0C0CDFF8D480C8F800C009E0DFF8B9
:10464000CCC0DCF800C03CEA040CDFF8C080C8F83D
:1046500000C0D1F804C05FEACC2C0AD5DFF8B0C0A6
:10466000DCF800C054EA0C0CDFF8A480C8F800C0E5
:1046700009E0DFF89CC0DCF800C03CEA040CDFF87D
:104680009080C8F800C0D1F804C05FEA8C2C0AD52D
:10469000DFF880C0DCF800C054EA0C0CDFF874804E
:1046A000C8F800C009E0DFF86CC0DCF800C03CEAE4
:1046B000040CDFF86080C8F800C0521CAFE6BDE80B
:1046C000F181D2B2002A02D089B2016102E089B23E
:1046D0000B0403617047000000001110000012106D
:1046E00000002110000022100000311000003210E4
:1046F000181002400800014000080140000C014071
:104700000010014000140140000401400404014075
:10471000080401400C04014001000022002901D1DD
:10472000012034E00868DFF8A03218181423B0FB29
:10473000F3F080000864DFF89402C863022081F877
:1047400021000868006802006FF30D1248688B684A
:104750001843CB6818430B6918434B6918438B699E
:104760001843CB691843024308680260002088623E
:104770000020C8620020086300204863002088638E
:10478000012081F82100002081F8200000207047DE
:104790002DE9F04104000D0016001F005FF0000835
:1047A00094F82000012801D102203BE0012084F888
:1047B000200094F8210001282DD1022084F8210046
:1047C0000020A0632068006840084000216808605D
:1047D0003B0032002900200000F008F9E06A0028C0
:1047E00006D02068006850F00E00216808600BE0D9
:1047F0002068006830F004002168086020680068C4
:1048000050F00A00216808602068006850F001003C
:104810002168086004E0002084F82000022080461F
:104820004046C0B2BDE8F081010000200A6812686D
:1048300032F00E020B681A600A68126852085200C1
:104840000B681A6001220B6C9A40CB6B5A600122F4
:1048500081F82120002281F82020C0B2704770B575
:104860000400E06B0568206806680420216C88401D
:1048700005423ED070073CD520680068800605D40C
:104880002068006830F00400216808602068504902
:10489000884201D1042023E020684E49884201D19A
:1048A00040201DE020684C49884202D14FF48060CE
:1048B00016E020684949884202D14FF480400FE059
:1048C00020684749884202D15FF4802008E02068D0
:1048D0004449884202D15FF4800001E05FF08060CB
:1048E00041490860E06A00286DD02000E16A8847ED
:1048F00069E00220216C8840054244D0B00742D5CF
:1049000020680068800608D42068006830F00A003B
:1049100021680860012084F8210020682C49884221
:1049200001D1022023E020682A49884201D12020B9
:104930001DE020682849884202D14FF4007016E03B
:1049400020682649884202D14FF400500FE02068C9
:104950002349884202D15FF4003008E020682149F1
:10496000884202D15FF4001001E05FF000701E4940
:104970000860002084F82000A06A002823D02000CE
:10498000A16A88471FE00820216C884005421AD0A0
:10499000300718D52068006830F00E0021680860E4
:1049A0000120216C8840E16B48600120A063012058
:1049B00084F82100002084F82000206B002802D019
:1049C0002000216B884770BDF8FFFDBF000002404A
:1049D000080002401C000240300002404400024037
:1049E000580002406C0002400400024030B4012430
:1049F000056CAC40C56B6C60046863604468102C47
:104A000004D10468A2600468E16003E00468A16066
:104A10000468E26030BC704780B5FFF725FC00F009
:104A2000AFF800F021F900F069F900F0A1F900F009
:104A300031FA00F0D1F900F014FB01BD00B599B0D6
:104A400014A81C491422FCF7F1FC002114A800F062
:104A500049FB194908600FA818491422FCF7E6FC25
:104A600000210FA800F03EFB154908600AA815496F
:104A70001422FCF7DBFC00210AA800F033FB1249EA
:104A8000086005A811491422FCF7D0FC002105A8F4
:104A900000F028FB0E49086068460E491422FCF716
:104AA000C5FC0021684600F01DFB0B49086019B0E9
:104AB00000BD0000E89F0008E81E0020FC9F0008E1
:104AC000EC1E002010A00008F01E002024A000080A
:104AD000F41E002038A00008F81E002080B5FFF763
:104AE0009BFFFFF7ABFF00F0F8FAFEE7FEE70000E0
:104AF00070B588B00400002500260022210019208E
:104B0000FFF742FC1920FFF752FC1948006850F4E7
:104B10000060174908601648006810F400600090B3
:104B2000009801A902A8FFF74DFBFFF740FB050025
:104B30001048B5FBF0F0401E06000F480F49086012
:104B400040F2E7300D49C8600C48466000200B4930
:104B50000861002009498860084800F0F1FA00283F
:104B600003D1064800F009FB00E0012008B070BD49
:104B70001810024040420F00002C0140A41D0020EC
:104B800000B593B00220099001200D9010200E90E6
:104B90000020109009A8FEF7D3FF002803D01521AC
:104BA0002648FFF7A3FF0F20049000200590002067
:104BB00006900020079000200890002104A8FFF72D
:104BC000EAF9002803D023211C48FFF78FFF0220B9
:104BD000009000200290684600F0D8FB002803D027
:104BE0002A211648FFF782FFFFF7D3FA4FF47A71B4
:104BF000B0FBF1F0FFF7E2FB0420FFF7E5FB00223A
:104C00000F215FF0FF30FFF7BFFB13B000BD10B501
:104C1000040020680A49884201D1FFF736FB10BD25
:104C200010B50400FFF7B5FA0649B0FBF1F0A4B2E5
:104C30006043002801D0401EFBE710BD109D000816
:104C4000002C014040420F0010B50400FFF7A1FA0C
:104C50004FF47A71B0FBF1F0A4B26043002801D0A8
:104C6000401EFBE710BD000000B585B0204800687D
:104C700050F004001E4908601D48006810F0040050
:104C8000009000981A48006850F008001849086021
:104C90001748006810F008000090009801224FF4B7
:104CA00087611448FFF70DFD4FF4876001900120E4
:104CB0000290002003900320049001A90D48FFF703
:104CC000A3FBC0200190002002900020039001A9C6
:104CD0000848FFF799FB0720019000200290002070
:104CE000039001A90448FFF78FFB05B000BD00BF8A
:104CF0001810024000080140000C014080B519481E
:104D0000006850F00100174908601648006810F06C
:104D10000100009000980020134948604FF40060A3
:104D20001149486100201049886000200E49C86080
:104D30004FF400700C49086120200B4988614FF442
:104D400000500949C8610948074908600648FFF74B
:104D5000E3FC002205210B20FFF716FB0B20FFF7D9
:104D600026FB01BD14100240601D00200800024017
:104D7000E0B540484049086000203F498860012074
:104D80003D49C86000203C4948615FF460203A49D1
:104D9000C861002038494860012037490861364819
:104DA00000F016FC002803D01D213448FFF79EFEBA
:104DB00001200090012001900020029069462E48B9
:104DC00000F019FE002803D027212C48FFF78EFEA3
:104DD000294800F065FF07BDE0B52948294908606A
:104DE00000202849886001202649C8600020254904
:104DF00048615FF460202349C86100202149486070
:104E00000120204908611F4800F0E2FB002803D080
:104E10003D211A48FFF76AFE002000900120019012
:104E2000052002906946174800F0E5FD002803D0F0
:104E300047211248FFF75AFE124800F031FF07BD24
:104E4000F8B504001425104E104F2A003100380028
:104E5000FCF7DCFA01200E490870F1BD80B5142280
:104E60000949054800F058FC01BD80B5024800F032
:104E70000BFD01BD00240140E41D0020549D0008ED
:104E800000280140141E0020101D0020C01C00201E
:104E9000501F002080B51348134908601348124979
:104EA000486000201049886000200F49C8604FF416
:104EB00080400D49086100200B49486100200A49E3
:104EC000886100200849C861002007490862064837
:104ED000FEF710F9002803D016210548FFF706FE5B
:104EE00001BD00BF005400406C1C0020A0860100E2
:104EF000949D000834B584B004000D004FF4FA60AE
:104F000002900120019004A800900123EDB22A0034
:104F100092B2E4B2210089B20248FEF77FFA05B0EE
:104F200030BD00006C1C002010B504003B220021A5
:104F30002000C0B200F083F8C0B200F072F80200A6
:104F4000D2B200216820FFF7D5FF10BD10B50400D4
:104F50003B2200212000C0B200F071F8C0B200F086
:104F600060F80200D2B201216820FFF7C3FF10BD34
:104F700010B50400172200212000C0B200F05FF835
:104F8000C0B200F04EF80200D2B202216820FFF752
:104F9000B1FF10BD10B50400072201212000C0B2EE
:104FA00000F04DF8C0B200F03CF80200D2B203218C
:104FB0006820FFF79FFF10BD10B504000C220121EF
:104FC0002000C0B200F03BF8C0B200F02AF80200A6
:104FD000D2B205216820FFF78DFF10BD10B5040087
:104FE000632200212000C0B200F029F8C0B200F016
:104FF00018F80200D2B206216820FFF77BFF10BD2F
:1050000070B504000D0016002000C0B2FFF7B0FF1D
:105010002800C0B2FFF79AFF3000C0B2FFF784FF4C
:1050200070BD0100C9B20A2091FBF0F0C9B2C0B254
:105030000A2202FB101252EA0010C0B270470300AD
:10504000DBB2C9B28B4202D20800C0B208E0D2B2D1
:10505000DBB29A4202D21000C0B201E01800C0B226
:10506000704780B5002200210020FFF7C9FF012012
:10507000FFF790FF0120FFF79FFF1220FFF7AEFF21
:1050800001BD38B504000D0000222900C9B220007E
:10509000C0B2FFF7B5FF31BD70B504000D001600BA
:1050A0002000C0B2FFF776FF2800C0B2FFF784FFF0
:1050B0003000C0B2FFF792FF70BD10B504000120B0
:1050C00000F027F8FBE700000100002009B2842966
:1050D00002D009B2CA1C1018704780B500F083FFD7
:1050E000002002BD3EB504000D00B4F90800FFF732
:1050F000EBFF02A9019100902B00226992B2216876
:10510000606800F047FE012801D0002000E002980E
:105110003EBD38B504000120B4FBF0F5002D01D0F0
:10512000280000E0012000F037FF002032BD80B5EC
:1051300001F088F9012801D001F0AFFA01BD0000AB
:1051400010B50400002C01D1012014E094F83D00BA
:10515000002805D1002084F83C00200000F00CF865
:10516000022084F83D00211D206800F0D4F80120C1
:1051700084F83D00002010BD704701000868C06839
:1051800050F001000A68D0600868006850F0010023
:105190000A6810600020704710B50400206800699C
:1051A00080071AD52068C068800716D57FF00200F6
:1051B00021680861012020772068806910F0030FC2
:1051C00003D0200000F0A4F805E0200000F09FF8D4
:1051D000200000F09EF8002020772068006940073A
:1051E0001AD52068C068400716D57FF004002168F2
:1051F0000861022020772068806910F4407F03D086
:10520000200000F085F805E0200000F080F8200084
:1052100000F07FF8002020772068006900071AD589
:105220002068C068000716D57FF008002168086173
:10523000042020772068C06910F0030F03D02000FD
:1052400000F066F805E0200000F061F8200000F0B2
:1052500060F80020207720680069C0061AD5206811
:10526000C068C00616D57FF01000216808610820CC
:1052700020772068C06910F4407F03D0200000F040
:1052800047F805E0200000F042F8200000F041F867
:105290000020207720680069C0070AD52068C06810
:1052A000C00706D57FF00100216808612000FFF7E4
:1052B000AEFC2068006900060AD52068C0680006B8
:1052C00006D57FF0800021680861200001F019FAFE
:1052D0002068006940060AD52068C068400606D5E7
:1052E0007FF0400021680861200000F013F820687A
:1052F000006980060AD52068C068800606D57FF060
:10530000200021680861200001F0FAF910BD704703
:10531000704770477047002203681A00184B984284
:1053200008D0B0F1804F05D0164B984202D0164BF2
:10533000984203D132F070024B681A43104B9842E6
:1053400008D0B0F1804F05D00E4B984202D00E4BE2
:10535000984203D132F44072CB681A4332F0800293
:105360004B691A4302608B68C3620B688362044B0B
:10537000984201D10B690363012343617047000028
:10538000002C01400004004000080040F8B5040073
:10539000002500262078C00766D5002781480068D0
:1053A000C0000DD47F48006850F080507D490860EF
:1053B0007C48006810F080500090009801200700A1
:1053C00079480068C00513D47748006850F48070AD
:1053D00075490860FEF761FF050073480068C00565
:1053E00006D4FEF75AFF401B6528F6D3032052E08F
:1053F0006E48006810F440700600002E23D06068EC
:1054000010F4407086421ED06848006830F4407046
:10541000060001206649086000206549086063486D
:105420000660F0070FD5FEF738FF05005F480068FB
:10543000800708D4FEF731FF401B41F289318842D2
:10544000F4D3032027E05948006830F440706168C5
:10545000084356490860FFB2012F05D15148006842
:1054600030F080504F4908602078800707D55148B8
:10547000006830F44040A16808434E490860207835
:10548000C00607D54B48006830F48000E168084347
:10549000484908600020F2BD2DE9F04385B00400C2
:1054A00001A845491022FBF7C1FF44480088ADF828
:1054B00000000025002600275FF000085FF00009CB
:1054C0002000012832D002285BD0102865D139484D
:1054D000006880463A480068C00126D501A8C8F394
:1054E0008341085C07005FEAC8300FD56846314940
:1054F0000968C1F34041085C05005FEAC83009D57E
:105500003048B0FBF5F07843060003E02E4800FB7E
:1055100007F0060027480068400201D5B14604E0C4
:1055200070000321B0FBF1F0814636E01F480068AF
:10553000804640F2023010EA0800B0F5817F03D1C6
:105540004FF4004081461BE018F44070B0F5007F36
:1055500007D11E480068800703D549F640408146C0
:105560000EE018F44070B0F5407F07D11448006891
:10557000800303D54FF22440814601E0002081469C
:105580000BE0FEF714FE0B490968C1F38131491C99
:105590004900B0FBF1F08146FFE7484605B0BDE8A1
:1055A000F08300001C1002400070004020100240F8
:1055B0004004424204100240D0A00008DA12000861
:1055C0000010024000127A0000093D002410024041
:1055D0002DE9F04104000025002600275FF00008B7
:1055E000002C01D1012095E0A068002801D060695D
:1055F0000028A06A002807D10020E062002084F87B
:1056000024002000FEF708FA200000F0E1FA05006F
:10561000A06AC00676D4EDB2002D73D1A06A30F432
:10562000885050F00200A0626068E1690843E168B8
:1056300050EA41000743A068B0F5807F02D0A0681F
:10564000012802D14FF4807000E000200643606919
:10565000012811D1E068002806D1A069401E40034E
:1056600050F40060064307E0A06A50F02000A062FA
:10567000E06A50F00100E0622068406830F4694060
:1056800030432168486020688068DFF824150840AE
:10569000384321688860A068B0F5807F02D0A06898
:1056A000012802D14FF4807000E00020B0F5807F27
:1056B00003D12069401E000580462068C06A30F48E
:1056C000700058EA00002168C86220688068DFF82E
:1056D000E4140840B84208D10020E062A06A30F02B
:1056E000020050F00100A06212E0A06A30F0020057
:1056F00050F01000A062E06A50F00100E06201206A
:10570000050005E0A06A50F01000A062012005002D
:105710002800C0B2BDE8F081F8B504000D00160005
:1057200000272068DFF89814884204D02068DFF84A
:105730008814884205D1DFF88404006810F47020D2
:1057400000E00020002840F09A8094F8240001280E
:1057500001D1022097E0012084F82400200000F00D
:10576000EFF90700FFB2002F40F08580A06ADFF854
:105770005814084050F48070A0622068DFF8381494
:10578000884209D1DFF83404006810F4702F01D189
:10579000012002E0002000E0012000280ED0A06AD5
:1057A00030F48010A06220684068400523D5A06ACC
:1057B00030F4005050F48050A0621CE0A06A50F415
:1057C0008010A0622068DFF8F813884204D02068B7
:1057D000DFF8E413884205D1DFF8E003006810F435
:1057E000806000E00020002805D0A06A30F400505E
:1057F00050F48050A062A06AC00404D5E06A30F082
:105800000600E06201E00020E062002084F824004D
:105810000FF20940216A88620FF25540216AC8627E
:105820000FF25D40216A08637FF002002168086082
:105830002068806850F480702168886033002A00F6
:10584000206810F14C01206AFEF7A2FF20688068F2
:1058500010F46020B0F5602F06D12068806850F405
:10586000A000216888600CE02068806850F48010F7
:105870002168886005E0002084F8240001E0012010
:1058800007003800C0B2F2BD38B50400002594F816
:105890002400012801D1022026E0012084F8240000
:1058A000200000F095F90500EDB2002D17D1206819
:1058B000806830F4807021688860206AFEF7B4FF49
:1058C0000500EDB2002D06D1A06A30F4885050F0EA
:1058D0000100A06203E0A06A50F04000A062002036
:1058E00084F824002800C0B232BD10B5040020683E
:1058F000406880062CD520680068800728D5A06AFB
:10590000C00603D4A06A50F40070A06220688068CA
:1059100010F46020B0F5602F13D1E068002810D19A
:105920002068406830F0200021684860A06A30F4A8
:105930008070A062A06AC00403D4A06A50F0010085
:10594000A0622000FFF77CFA7FF012002168086057
:1059500020684068000637D520680068400733D5C6
:10596000A06AC00603D4A06A50F40050A062206868
:10597000806810F4E040B0F5E04F0DD0206840683A
:1059800040051AD42068806810F46020B0F5602FBC
:1059900013D1E068002810D12068406830F0800002
:1059A00021684860A06A30F48050A062A06AC005F7
:1059B00003D4A06A50F00100A062200000F0E6F9D4
:1059C0007FF00C00216808602068406840060ED512
:1059D00020680068C0070AD5A06A50F48030A06231
:1059E000200000F006F87FF001002168086010BD7B
:1059F00070477047704778B4020000230020009081
:105A000092F82400012801D1022097E0012082F8B9
:105A100024004868072812D21068406B1F244D6884
:105A20006D1E05267543AC40A0430C684D686D1E85
:105A300005267543AC4020431468606327E048683E
:105A40000D2812D21068006B1F244D68ED1F05262B
:105A50007543AC40A0430C684D68ED1F05267543A7
:105A6000AC4020431468206311E01068C06A1F2412
:105A70004D680D3D05267543AC40A0430C684D684C
:105A80000D3D05267543AC4020431468E06208686C
:105A90000A2812D31068C06807240D680A3D03263F
:105AA0007543AC40A0438C680D680A3D03267543DE
:105AB000AC4020431468E0600FE0106800690724E0
:105AC0000D6803267543AC40A0438C680D6803261F
:105AD0007543AC402043146820610868102802D048
