:020000040800F2
:1000000060060020A5E80008A5E40008A7E40008B1
:10001000AFE40008B7E40008BFE4000800000000F7
:10002000000000000000000000000000A36E0008B7
:10003000C7E40008000000005D6E0008C9E4000885
:10004000E1E90008E5E90008E9E90008EDE9000850
:10005000F1E90008F5E90008F9E90008FDE9000800
:1000600001EA000805EA000809EA0008D1E40008EE
:100070000DEA000811EA000815EA000819EA00086C
:100080001DEA000821EA000825EA000829EA00081C
:100090002DEA000831EA000835EA000839EA0008CC
:1000A0003DEA0008E1E4000841EA000845EA0008EA
:1000B00049EA00084DEA000851EA000855EA00083C
:1000C00059EA00085DEA000861EA000865EA0008EC
:1000D00069EA00086DEA000871EA000875EA00089C
:1000E00079EA00087DEA000881EA0008BF000402FE
:1000F00004050405051018FFFB0EFB10FD02470563
:100100006111AB200500307E210A021D7EF881A21C
:100110006E10221278367F980C2683C960B208458B
:100120004291500223241AF57D8AC422B1482C1230
:100130008BC42299C14D241689453283A3482C12C1
:100140008BC422B1482C9201241B49B77D0AD60DDD
:1001500012919022960826938364A16E95480C64B0
:10016000C1460025170C13FE196662A99E65829B85
:10017000D9A3612696EA59263801261ADA14FE59BF
:100180008422AA6434A88B4414994891269549691D
:100190002A421B012709731C7FF8452401281134CA
:1001A000BFFD89642299924C1F658A32A1002912F1
:1001B00034B77D08654299A24C9F644A32910C0085
:1001C0002A1299F67E0A1649228AC120B452682C56
:1001D00054022B0DBB54FE8A7635385045BB022C99
:1001E0000A65B87DB998D884002D071AF47E781076
:1001F0002E06331C7E782F1529D77DAC0BE682B9ED
:10020000602E980BE682B9602E18043012F916FEA3
:10021000196924A944CEBF4BA4221AD106310CF986
:1002200016FE112D82FD1F0D0E3212FA14FE1984D6
:1002300044915C22972CEC0F0707023315FA147EC9
:10024000198852CA86A941549AAC142644A2410680
:10025000341AFA147ED3256291582495097593CAED
:10026000A422B1C8E020972C1B0C3515FA14FE18F7
:100270000C24C92E0621CB68B26142A5196800364C
:1002800019F9167E1A6464BAC2C820920825643A25
:1002900077895842141A44003711F9147E789093E4
:1002A00005EB82ED8275C12200381EFA14FE19A4F6
:1002B0004299582416894562995068B089258286EA
:1002C000895844241A64003918F916FE196914AAC9
:1002D0009D5D22A5D0243293605D30261988003AB6
:1002E00008B31C7E780F783B0DE5B87D790F9E2C06
:1002F000263621003C0ABB52FED47928D57A3D0926
:100300004CB27EF81E39783E0BBB547ED07A2AD48C
:1003100079093F13E816FE1848528958AE594A9594
:10032000CB03651A0040252AD5FD1984449958222B
:1003300097C825528B502491A9C854642A3215A11C
:1003400048223550469322D140024120ED127E19B9
:100350004C13C94C3013CCE452B1542C951A1CE503
:1003600042B94C32924C0C5283004221EC127E78FE
:1003700010CA658291602418C9650603512E138C3A
:100380000423C14830924B0C0E22004317EB147E1D
:100390001A4422A24442A6084A7B1B4CC82422D5F8
:1003A0002003441EEC127E7894930423C9443291B6
:1003B0004C2413C94432914C2413C1484E31B80126
:1003C000451EEC127E78A0C96572995CA62E931B1F
:1003D000E832B94C2E1809468291E0E04100461BF4
:1003E000EB147E7820C94572915C2413CBC406B20D
:1003F0004C2C138B361C0C4200471CEC127E1A440A
:1004000032A24444260926B25D0D06C94830A2CB6B
:10041000A862030D004821ED127E186806925C2840
:1004200017CA8572A15C6870940BE542B9502E948E
:100430000BE52203CD40490BE9167E7814EC7F349E
:10044000384A15EC14FE191C66FB2697C96572998B
:10045000582A241BC4004B20ED127E1868069958B8
:10046000AA2C94CB0423C98452120CE552B1AA5889
:100470002A17198806014C12EC127E380866FBBB5D
:100480004C2E93CBE4060F024D26ED127ED82D7430
:10049000129D24914A4412A944A426D2265293C8FC
:1004A00044329B4832928C2423C9C42035084E27FD
:1004B000EE107E188406135D28110B4552A1482AC0
:1004C0009409D584DA846A42A948281509C512A17D
:1004D0009C643092004F17ED127E1AC8541A9D2466
:1004E00099C8FA36918CE8342AD940045019EB1493
:1004F0007E7814CBE422B9482E928BC432834128F3
:10050000DAE1601002511C0DD37D1AC8541A9D24E3
:1005100099C8FA36918CE8342AD940A911290619CC
:1005200000521DED127E7856950BE542B9502E14FF
:100530004B0D06B1502E15AB8AA57291816A5319E5
:10054000EA14FE194412A2846E28950EA2D2A47059
:10055000A74825220309005413EB147EF828240A27
:100560008942A2AA68BF1B0C22005520EC127E18FB
:1005700048068A6024180946829160241809468238
:1005800091602418096662A9C106561EED127E18F4
:1005900068068A642499C98572A9B2542C95CB0443
:1005A00033C14C3211DDC600572AED127E186806A1
:1005B0008A6424190995844A32894C2493C8942466
:1005C00022A14426114A6412A144261152895422C0
:1005D0009504581EED127E186806925CAA2C95CBE5
:1005E0002413D98A642698C9A5EA42B9C8403310B1
:1005F0005918ED127E18A406915CAA2C95CB0433F1
:10060000C94436DCCBC120035A17EA147E7820D4C3
:100610002562915432D83215892572C2C181005B9E
:100620000B33BF7D1844FAFF93015C1529D77D0871
:100630002683C96032980C2683C96032980C065D07
:100640000B33BB7D98F4FF2783005E0C59767FCA7D
:10065000AD3255895C005F071F707DF8016007456A
:10066000987F10396118BB147E19A86AA3A1812252
:100670009392E422B9482E93120D1403621EFD12C8
:100680007E1877325025521A5D2619494692916498
:100690002419D1651229C564A0016315BB14FE1984
:1006A00028222A492E114C44DBE6142AD140036447
:1006B0001EFD127E1CB71A4832AA442627494692CC
:1006C000916424194966721A552235900C6515BB40
:1006D00014FE198854925C22A91C3C8866A332CD72
:1006E00060026612FA167E1A884499646C7094EC63
:1006F000CF06170067210D73FD194816AA44262757
:10070000494692916424194966721A55223590849B
:100710006BB3AAC10A681DFD127E18773288254284
:1007200029592817CA8572A15C2817CA8572918138
:100730006620690E09177E0AD60307C1FED1E000C4
:100740006A1158777DCBD54306035DFF6731C540FD
:10075000036B1AFB147E987633C8845299582497F9
:10076000080E23B94C2C942A190D026C0CFB14FEB4
:100770001848FB7F3538106D1CBE107E584C461A49
:100780004D514DA8265413AA09D5846A4235A18A31
:100790008144236E1CBD127E980C6289504A16CA91
:1007A0008572A15C2817CA8572A15C64A019086FC4
:1007B00014BB14FE198854925C22E96522175189F2
:1007C000061A0070210D737D980C54899446974940
:1007D00046929164241949467499444A1319A8C24F
:1007E0004D073B00711F0D73FD194816AA442627BB
:1007F000494692916424194966721A5522359084AB
:10080000BB1C0C7210BB14FED88C129A8C32DA7797
:100810008313007314B9167E1928AA14B144F23256
:10082000A85B25120309007410FA147E49B61BDC7C
:1008300024FB6948348800751ABC127E586D729981
:100840005C2697C96572995C269789892A528388A4
:10085000007619BD127E186806925C28972A4BC54F
:1008600052B94C30934C44B731007720BD127E18FA
:10087000A4068964241909D5348A2422A1482212A5
:100880008A2422A944338D4CA3017819BB147E1805
:100890006406895C2655934B242B7299544D2E3156
:1008A000C80C0279200C737D18840689602498890D
:1008B0008562A1542C14CB0423C144549A8D6673D1
:1008C00083410A7A0EB9167E789093E5FA4C373850
:1008D000087B0D35BBFD9184FA892AD4AF047C08CE
:1008E00011BF7DF881007D0E35BB7D5085FA9524C2
:1008F000D44F34007E0D3CD27E198414120BD120CB
:1009000002A00500307EA10C027D7D18C412158363
:100910000F02A21408177ECA355B24348A94AE30C5
:10092000A7D1CC723500A315EA147E9A6534C97636
:1009300083412CD93096C80D0E1200A41AAA547EF9
:1009400008261283442694894562915824960965A5
:100950001283446100A51DEB147E186406895C2691
:10096000154AD5C432B9446A70168D0DCEA2B9C1EC
:100970002002A60A31BF7D38D00C0602A7222AD554
:100980007D1A6C529158241609CE32A25428154A69
:100990008552214D6C188945629154663002A80930
:1009A00027987FD00C3202A922DD327E1AC8549AD1
:1009B0006424A3882432118D2494910425414D8B05
:1009C000CC2692CCA864031100AA1497B8FE184450
:1009D000429941249308253292856E3008AB19BCA8
:1009E00012FED28834228D4823D28834328D4C2393
:1009F000D3C834328D00AC084BB47E78206DAD077F
:100A00001AF47E7810AE22DD327E1AC8549A64241D
:100A100032C82432359A1ACD20A48984342D2299E3
:100A2000486546251B8800AF0717987F3808B00D2A
:100A300077387FD954A4AC1299CC04B110DB34FEC2
:100A40008A7635385045BB470C0E04B20E96F87EB8
:100A5000996444A95037834100B31196F8FE1824D5
:100A600042A95066961225060900B408459AFF91DE
:100A7000B801B51E0C737D586D72995C2697C965D7
:100A800072995C2697896944894C62109164BB0411
:100A9000B62B2BD5FD190C1492124D24A289443487
:100AA00091882612D1443292AA492E928BE422B91F
:100AB000482E928BE422B948681019B70633DC7EC1
:100AC00078B80B549A7DC98424090500B90C97F8AD
:100AD0007ED128627D331804BA0F97B87ED954A40A
:100AE000AC1299CC723008BB19BC127ED0C834321B
:100AF0008D4C23D3C834228D4823D28834228D0ACA
:100B0000BC240E117E912AD2C1502E15EB2A178AD1
:100B100028060349221729CB4462914C2A12AA19AC
:100B20000CC2E101BD220E117E912AD2C1502E15B8
:100B3000EB2A174A1C0C1499582294CAA562A9588A
:100B40002A16CE040703BE260E11FE182443E958C8
:100B50002A165A0543C14CA8242219442A7291B27C
:100B60004C2416C9A422A19AC1201C1EBF13E8B6AA
:100B7000FD91E981B9942A966B964845060A00C012
:100B8000233D13FE11BB470DA689642698096672A2
:100B9000A9582A964A0D8E72A15C2619492606A9E3
:100BA0004100C1233D137E94BA870DA6896426981F
:100BB000096672A9582A964A0D8E72A15C261949B7
:100BC0002606A94100C2273D13FE920E82129948C3
:100BD0008F194C13C94C3013CCE452B1542C951AD4
:100BE0001CE542B94C32924C0C528300C3262D13A3
:100BF000FED9A41456993D68304D2433C14C30932E
:100C00004BC552B1546A70940BE532C94832314831
:100C10000D02C4232D13FE31D3E82906D344321329
:100C2000CC0433B9542C154BA50647B9502E938CE0
:100C3000241383D420C5273D13FE5A66829960266B
:100C4000B91B4C13C94C3013CCE452B1542C951A37
:100C50001CE542B94C32924C0C528300C626EF0E72
:100C60007E1A1CC812A9925449AA2413CB94650673
:100C7000B24CD560930AA532A1542455924A0D2452
:100C80008303C71B2B957D1A4422A2854C1194F631
:100C90003698904944AA41309B8B045500C8213CAA
:100CA00013FED1BA470C0E34B94C2E93CBD46572D7
:100CB000035D2697C90523C14830121C3C08C92191
:100CC0003C137E54BA870C0E34B94C2E93CBD465AA
:100CD00072035D2697C90523C14830121C3C08CA1F
:100CE000243C13FE520E721295483E38D0E432B9BD
:100CF0004C2E5397C90D74995C26178C0423C14858
:100D000070F020CB232C13FE91C8247AF0E040939E
:100D1000CBE432B94C5D2637D06572995C30128CC9
:100D20000423C1C18300CC0E3917FE103A1E1C05E6
:100D3000FB1F0D0ECD0D39177EF37A7014EC7F3446
:100D400038CE113917FE910D421223E9E028D8FF61
:100D50006870CF102917FED048347AD0E028D8FF29
:100D60006870D020ED10FE185CE534C14C32928CD6
:100D700024078358241949469291642498C9490646
:100D80003700D12D2E117EDAC41466993D66101AF3
:100D90004C74A1442C14498522A9502654136A137B
:100DA000AA09A522A15424144B847292C14802D2EC
:100DB0001A3D13FE11BBC70D642A8D4E924C647D03
:100DC0009B4846741A956C2002D31A3D13FE94BAC0
:100DD000C70D642A8D4E924C647D9B4846741A95CB
:100DE0006C2002D41E3D137E930E821299480F1A76
:100DF000C8541A9D2499C8FA36918CE8342AD940EF
:100E000004D51E2D137EDAA41456993D6A20536929
:100E100074926422EBDB4432A2D3A864031100D69F
:100E20001B2D13FE31D3E86906329546274926B2B9
:100E3000BE4D24233A8D4A361001D715BB547E4847
:100E4000267299544D2E91ACC8655235B94432D8AA
:100E500027FE10FE4E0D24219548268A45CA329160
:100E60005826920A4542A9482616A9CBE842324D97
:100E700042A4090D5200D9233C13FED1BA470C24D9
:100E8000034530128C0423C14830128C0423C1481E
:100E900030128C0433B1D46003DA233C137E54BA8D
:100EA000870C24034530128C0423C14830128C0473
:100EB00023C14830128C0433B1D46003DB273C13C8
:100EC000FE520E721295483E900C14C14830128C9E
:100ED0000423C14830128C0423C1483012CCC452C0
:100EE000830D00DC252C13FE91C8247AF04032508B
:100EF0000423C14830128C0423C14830128C0423CF
:100F0000C14830134B0D3600DD1B3D137E94BA07EC
:100F10000D5283482E5596CA65829964221BEEE5D0
:100F2000609001DE1DEB147E1808A3D1C12014CB04
:100F3000E422B9482E928BC4328341281A1CC8007F
:100F4000DF210B157EDA655245A9502A940A5545D2
:100F500056294D2C938BE422B94851A42631884C54
:100F600000E01A0B157E91BAC70C52A26CB468301F
:100F7000C8C422B9482E12D30C1603E11A0B15FE71
:100F800013BA070D52A26CB46830C8C422B9482EF7
:100F900012D30C1603E21D0B157E120E6212913D48
:100FA00062901265A34583412616C94572919866E1
:100FB000B018E31DFB147ED9641436993D64901279
:100FC00065A34583412616C94572919866B018E419
:100FD0001BFB147ED188347AF02025CA468B068309
:100FE0004C2C928BE42231CD6031E51F1B157EDA4B
:100FF0006562995826B7C70C52A26CB46830C8C451
:1010000022B9482E12D30C1603E61FBF10FE39D2A8
:1010100024329254612C178B0C1E2452B9582E1670
:101020005325429181661001E71AFB94FD1928228D
:101030002A492E114C44DBE6142AD14098CD458232
:101040002A00E8180B157E91BAC70C442A492E9144
:10105000540E1E44B35199663001E9180B15FE1366
:10106000BA070D442A492E91540E1E44B351996675
:101070003001EA1C0B157E120E6212913D62205265
:10108000497289A472F0209A8DCA34830900EB1A40
:10109000FB147ED188347AF040A492E41249E5E052
:1010A00041341B9569061300EC0D0917FE10BA1E9A
:1010B00004FB478303ED0C09177EF37C10EC1F0D36
:1010C0000EEE100917FE910D421223ED20D83F1AA3
:1010D0001CEF0FF916FED048347AD420D83F1A1CE2
:1010E000F0230C13FE184824A1A122260AC7068368
:1010F0008C4A93532413C94432914C2423B98C4A0B
:1011000035D000F122FD12FED9A41456993DE420F9
:101110009608A564A15C2817CA8572A15C2817CA25
:1011200045069A8100F2170B15FE91BA870C442AE6
:10113000492E91F432918BA844030D00F3170B153F
:10114000FE13BA070D442A492E91F432918BA8441C
:10115000030D00F41A0B157E120E6212913D6220EF
:1011600052497289A497895C44251A6800F51AFBD4
:1011700014FED9641436993D622052497289A497AD
:10118000895C44251A6800F618FB147ED188347AED
:10119000F040A492E412492F13B9884A34D000F7E2
:1011A0000E9B747E1AEEB183033D763802F821CC93
:1011B00012FE0D0D141955289588A4328950452624
:1011C0009588C41275915C24915264061A00F91C2A
:1011D0000C13FED1BA47AC36B94C2E93CBE432B9DE
:1011E0004C2E93CBC44415A94144FA1C0C137E54D5
:1011F000BA87AC36B94C2E93CBE432B94C2E93CB94
:10120000C44415A94144FB200C13FE520E721295E2
:1012100048BEDAE432B94C2E93CBE432B94C2E13EB
:101220001355A4061101FC1EFC12FE91C8247AF08D
:101230006A93CBE432B94C2E93CBE432B94C4C5484
:10124000911A4404FD235C737D54BA870C42834495
:101250003012CCC442B1502A168A65829160222A8B
:10126000CD46B3B9C12005FE205D737D18F764A09B
:101270005A6974996424194946929164449759694A
:10128000220355B8E96007FF254C73FD91C8247A05
:10129000F02034480423C14C2C140BA562A158261D
:1012A000180926A2D26C349B1B0C520000000004CB
:1012B000FFFF00002DE9F04F80460FF23060A5B02F
:1012C00015461E46D0E90023CDE9122300200491E3
:1012D0000D900DF1500A6FF0004900E065190020F3
:1012E000ADF8020012AB4FF0FF3229460DF10200BB
:1012F00001F093F80446012C04DA2878441EA44136
:10130000E443E40FBDF8020025280CBFA4F1010B53
:10131000A346BBF1010F0EDB2F4617F8011B049803
:10132000C0470028049000F0F3800D98401CBBF1EA
:10133000010B0D90F1D1BDF80200252807D1002046
:101340000790089009900A900B900C9005E00028F7
:10135000C4D10D98D2E240F0010015F8011F2029F8
:10136000F9D023290DD02B2904D02D2906D03029DE
:101370000AD00CE040F0020080B2EEE740F004003A
:10138000FAE740F00800F7E740F01000F4E72A29F8
:101390000ED13168316051F8042B3160002A0F9270
:1013A00004D5514240F004000F9180B26D1C11E051
:1013B00000210F9109E00F99494505D001EB810308
:1013C00002EB430130390F916D1C2A78A2F13001F4
:1013D0000A29F0D329782E2903D04FF0FF310E913E
:1013E0001DE015F8011F2A2907D1316831606D1CF5
:1013F00051F8042B31600E9211E000210E9109E0AA
:101400000E99494505D001EB810302EB43013039C8
:101410000E916D1C2A78A2F130010A29F0D3ADF8A3
:1014200040000FF2D040297801F042F808B115F8D9
:10143000010B8DF842009DF84200682802BF297810
:101440006829622005D06C2804BF28786C2803D155
:1014500071208DF842006D1C14A8069015F8014B00
:10146000B4F125002AD01C3800F0D480001F0228D7
:1014700040F2D080133800F0F580093800F0CA80BF
:10148000801E00F05C81401E00F03581401E022865
:1014900040F2C080001F00F02E81401F00F08B80C2
:1014A000401E00F0DF80401E35D0C01E0BD0801ED5
:1014B00000F0D880C01E00F0D58063E125208DF8B3
:1014C0005000012067E19DF842006C2830683060D0
:1014D00014D050F8047B306005970E9C002C04D586
:1014E000384600F0FDFF044606E02246002138465B
:1014F00001F012F800B1C41B08944DE150F8042B20
:10150000306002A9404600F033FA002840F14481DF
:101510004FF0FF30F2E1316831603C2451F8040BA8
:1015200031600021CDE9020114A80590DDE9020136
:10153000069F11B908B90E9AB2B10206120FA0EBBC
:1015400002123032D2B2631E3A2AA8BF27320009F3
:10155000DA5540EA0170090908BF00281C4603D08B
:10156000059AE3199A42E8D3E0190590C4F13C01C9
:101570000E980891814209DA401A0A904FF6EF71ED
:10158000BDF840000840ADF8400005E1002840F1FA
:1015900003819DF8400000F01400102840F0FC800A
:1015A0000F98079A801A0A9A801A441A012CC0F2DE
:1015B000F3800A94F0E09DF8420062281AD068286F
:1015C00006D06A280CD06C281CD0712808D019E0ED
:1015D0003068306050F8041B30600D980880DBE004
:1015E0003068306050F8042B30600D98C117C2E9A4
:1015F0000001D1E03068306050F8041B30600D9875
:101600000870C9E03068306050F8041B30600D98F5
:101610000860C1E03068C01D20F007023260D2E9E6
:10162000000108323260CDE90201002902D5079895
:101630002D210AE0BDF84000810702D507982B2133
:1016400003E0C00705D50798202100F80A10401CC8
:10165000079014A8079908180590214602A800F0E1
:1016600091FB99E09DF842006C280DD0712818BFBD
:101670006A2809D13068C01D20F007023260D2E923
:1016800000010832326005E03168316051F8040B26
:1016900031600021CDE902019DF84200682803D1A4
:1016A000DDE9020180B20BE0622803D1DDE902012D
:1016B000C0B205E0742818BF7A2804D1DDE9020120
:1016C0000021CDE902019DF8400000072ED5DDE99B
:1016D0000201002908BF002828D044F02000782803
:1016E00024D10798302100F80A10401C411C0791B2
:1016F00000F80A401AE09DF84200314600F001F976
:10170000CDE90201002902DA07982D210AE0BDF88F
:101710004000810702D507982B2103E0C00705D5BB
:101720000798202100F80A10401C079014A8079978
:1017300008180590214602A800F0A0FA2CE09DF8B8
:1017400042006C2809D0012007903068306050F8C2
:10175000041B30608DF850101EE03068306001AA24
:1017600050F8041B3060ADF804100020ADF80600FE
:1017700002A94FF0FF300E90404600F0F9F8002823
:101780000AD5C5E625208DF85000012007901CB130
:101790008AF80140022007900F980799401A0A9989
:1017A000401A0899401A0B99401A0999401A0C9945
:1017B000441A9DF84000400710D42020012C8DF8D9
:1017C00000000BDB274601236A4602A9404600F0D1
:1017D00000FE00287FF49CAE7F1EF4D1DDF81CB023
:1017E000BBF1000F14AF0DD017F8011B0498C047D0
:1017F000002804903FF48CAE0D98401CBBF1010B07
:101800000D90F1D130208DF800000A9F012F0ADBE6
:1018100001236A4602A9404600F0DBFD00287FF460
:1018200077AE7F1EF4D1DDF820B0059FBBF1000F2D
:101830000DD017F8011B0498C047002804903FF40E
:1018400067AE0D98401CBBF1010B0D90F1D130201B
:101850008DF800000B9F012F0ADB01236A4602A9C5
:10186000404600F0B6FD00287FF452AE7F1EF4D152
:1018700005980899DDF824B00F18BBF1000F0DD0C2
:1018800017F8011B0498C047002804903FF440AEAD
:101890000D98401CBBF1010B0D90F1D130208DF85B
:1018A00000000C9F012F0ADB01236A4602A9404673
:1018B00000F08FFD00287FF42BAE7F1EF4D19DF841
:1018C000400040077FF50BAD2020012C8DF8000073
:1018D000FFF605AD01236A4602A9404600F079FDF6
:1018E00000287FF415AE641EF4D1F8E40000000077
:1018F00000000000686A6C747A4C000025B0BDE8F6
:10190000F08F622826D068281DD06A2808D06C285D
:1019100027D0712804D0742823D07A280CD020E056
:101920000868C01D20F007000860D0E900230830D7
:1019300008601946104670470A680A6052F8040B9E
:101940000A60002170470A680A6052F8040B0A60B6
:1019500000B20BE00A680A6052F8040B0A6040B259
:1019600004E00A680A6052F8040B0A60C117704765
:101970002DE9F44F0D4694B0D5F830A0BAF1000F20
:10198000804648BF6FF0004A00F0F2FD696B4018D6
:1019900001900FF66C20D0E90023CDE9022395F8E1
:1019A0003800400702D40198412805D240200DF1AB
:1019B00010090190002609E000F0E0FD5FEA00094F
:1019C000F8D14FF0FF3056E1AAEB040ABAF1010F4B
:1019D000C0F2CE801498018802AA0DF1010000F037
:1019E00025FE0028044600F1DE801498008810B916
:1019F000641E00F1D880A245C0F2BA8068690199DE
:101A00002218914280F0A2806E634042296A401AF7
:101A1000A969401A696A401AE969401AA96A461A0E
:101A200095F83800400710D42020012E8DF80000D2
:101A30000BDB374601236A462946404600F0C9FCC5
:101A4000002840F0B0807F1EF4D1D5F814B0BBF16F
:101A5000000F4F460DD017F8011BA868C04700289B
:101A6000A86000F0A080E86A401CBBF1010BE862AE
:101A7000F1D130208DF800002F6A012F0ADB0123FD
:101A80006A462946404600F0A4FC002840F08B80BE
:101A90007F1EF4D1D5F818B0EF68BBF1000F0CD061
:101AA00017F8011BA868C0470028A8607BD0E86A27
:101AB000401CBBF1010BE862F2D130208DF8000030
:101AC0006F6A012F09DB01236A462946404600F070
:101AD00080FC002867D17F1EF5D1E868A969D5F898
:101AE0001CB00F18BBF1000F0CD017F8011BA86831
:101AF000C0470028A86056D0E86A401CBBF1010B23
:101B0000E862F2D130208DF80000AF6A012F09DBC6
:101B100001236A462946404600F05BFC002842D17A
:101B20007F1EF5D195F8380040070DD52020012EF5
:101B30008DF8000008DB01236A462946404600F084
:101B400048FC80BB761EF6D100266E61224668698D
:101B50000DF10101484400F077FD686920186861C3
:101B60001498801C1490801E008800287FF42CAFED
:101B7000686B6969401A296A401AA969401A696A3A
:101B8000401AE969401AA96AA0EB010A95F83800E1
:101B9000400710D4BAF1010F0DDB5446A86820218C
:101BA000C047A86010B94FF0FF365DE0E86A401CFE
:101BB000641EE862F2D16B694A462946404600F04D
:101BC00008FC0028EFD12C6A012C0ADBA868302120
:101BD000C0470028A860E6D0E86A401C641EE8629E
:101BE000F4D1AB69EA682946404600F0F2FB0028D0
:101BF000D9D16C6A012C0ADBA8683021C0470028C3
:101C0000A860D0D0E86A401C641EE862F4D1E8689D
:101C1000A969EB690A182946404600F0DAFB00285A
:101C2000C1D1AC6A012C0ADBA8683021C04700286A
:101C3000A860B8D0E86A401C641EE862F4D195F848
:101C4000380040070ED5BAF1010F0BDBA868202140
:101C5000C0470028A860A6D0E86A401CBAF1010A73
:101C6000E862F3D16E616E6304A881451CBF4846EB
:101C700000F026FD304615B0BDE8F08F2DE9FA4E94
:101C800005460A462F696F2A08BF082405D041F08F
:101C90002000782814BF0A2410243C26D5E900012E
:101CA000642A18BF692A81468A4605D1002903DAC9
:101CB000D9F100096AEB4A0ABAF1000F08BFB9F17D
:101CC000000F0CD1286B50B9082C36D195F838008C
:101CD000000732D530203B2687F83B002DE0E31784
:101CE00048465146224600F02BFDA4FB0023A9EBF9
:101CF00002023032D2B2A6F1010B3A2A5E4603DB71
:101D00009DF80030513B9A180BF8072081465FEA96
:101D1000010A08BFB9F1000F03D0E868F119884241
:101D2000DDD3082C09D195F83800000705D5F05D02
:101D3000302802D0761E3020F055C6F13C00A86154
:101D4000F119E960296B884208DA081A28624FF60F
:101D5000EF71288F08402887BDE8F38E00290ED543
:101D600095F8381001F01401102908D1696B6A69DF
:101D7000891A2A6A891A0E1A012EA8BF2E62BDE896
:101D8000F38E00002DE9F24F04468EB0D4E9000135
:101D9000CDE9020104AF9DF8380040F0200BBBF103
:101DA000610F0AD0206B002848BF062004D408BF6A
:101DB000BBF1670F01D1012020636168C1F30A50B4
:101DC00040F2FF7290421CD1080304BF2068002833
:101DD00009D10320A0619DF8380061381A2836D354
:101DE0000FF2306108E00320A0619DF838006138EF
:101DF0001A2829D30FF21461E068032200F024FCB2
:101E0000BEE1012816DA204600F011FD012811DBA1
:101E100000250020BBF1610F20D1E168302201F8DC
:101E2000012B4A1CE2609DF83820612A0CBF782201
:101E300058220FE0626840F2FE3161F31E52451AEB
:101E400062604FF0FF30E5E70FF2BC51D4E70FF2CC
:101E5000C051D1E70A706169891C616110B900261F
:101E6000002584E1BBF1610F40F09880206B0028D1
:101E70004CBF2126461CD4E900ABDDE9020100225B
:101E8000002300F0F5FC36B23ABF8BF00040CDE9FC
:101E900002A0CDE902AB06F101082D1FB8F1010F38
:101EA0008DF810200DF1110736DBDDE9020100226B
:101EB000002300F0F5FC2FD21C2102A800F008FD41
:101EC000DDE9020100F08AFDA8F10708B8F1010F71
:101ED000814609DB00F0AEFD02460B46DDE902015A
:101EE00000F0C0FDCDE90201F81D072105E009F071
:101EF0000F0200F8012D4FEA2919B9F1010F01DB9A
:101F0000491EF4D5491E5CBF002200F8012DF9D509
:101F1000C71DB8F1010FC8DA0DF11100391AB1422D
:101F2000B8BF0E4636B230000DF111072FD48842EB
:101F300006DA04A9411849780829A8BF0F2100DA58
:101F4000002104AA821800E0761E12F80139401E12
:101F50008B42F9D00F2904D104A941184A78521CA8
:101F60004A70002802D504AF761C2D1D36B2701EB3
:101F70000DD4C1190A783032D2B23A2A03DB9DF867
:101F800038303A3B9A18401E01F80129F2D5206BEF
:101F9000002840F1EC80701E2063E8E0DDE90201DA
:101FA0000022002300F064FC3CBF81F00041CDE939
:101FB00002012DB247F2975068434B49DFF82C914C
:101FC00090FBF1F52DB2C5F1070ABAF1010F904669
:101FD0001CDBDDE902675FEACA7007D542464B4663
:101FE0003046394600F0FEFD06460F46404649465B
:101FF00042464B464FEA6A0A00F0F4FDBAF1000F80
:1020000080468946E7D1CDE9026724E0CAF1000A9B
:102010000026374F14E05FEACA7007D542464B46A8
:102020003046394600F0DEFD06460F46404649463A
:1020300042464B4600F0D6FD4FEA6A0A8046894682
:10204000BAF1000FE7D1DDE9020132463B4600F06C
:102050009BFECDE90201BBF1660F0CBF05F10A0042
:102060000620216BDFF88C904618142EA8BF13268B
:1020700030208DF810000DF11107012E3CDBDDE959
:10208000020100F0C1FC07F1080104220A23B0FBA1
:10209000F3F303EB8307A0EB4700303001F8010CAA
:1020A0000A20B3FBF0F000EB8007A3EB47033033CB
:1020B000521E01F8023DE9D1083E012E01F1080748
:1020C000DBDBDDE9020100F09FFC00F0BDFC024615
:1020D0000B46DDE9020100F0C5FC00224B4600F092
:1020E00081FDCDE90201CAE7A0860100000024407D
:1020F0000000F03F84D797410DF11100381A0DF11F
:10210000110702E0401E6D1E7F1C39783029F9D07E
:10211000BBF1660F02D12DB2691C04E0BBF1650F63
:102120000CBF01210021226B8E1836B2B042B8BF1D
:10213000064636B231001AD4814204DAC85D352829
:10214000A8BF392000DA3020CA19521E00E0761EDE
:1021500012F80139491E8342F9D0392802D1C85DED
:10216000401CC855002902D57F1E761C6D1C2DB25F
:102170009DF83810009533B23A46204600F003F837
:102180000FB0BDE8F08F2DE9F04786B006468A46CD
:1021900090461D4600F041FF012D406A376B90F8D4
:1021A000009002DA01250FF270284AF02000BDF9F4
:1021B0003840662808BF641C12D0672876D114F115
:1021C000040F79DBBC4277DA96F83800641C00070C
:1021D00002D4BD42B8BF2F4624B23F1B48BF0027E0
:1021E00024B2F068B169012C21DA4A1C30230B5467
:1021F000012F03DA96F83810090702D502F800908B
:10220000521CB261E742B8BF7C4224B26142E71976
:102210007162AF42B8BF3D46B3692DB2F5612A463F
:102220004146181800F010FA781BB062BAE008189E
:10223000A54216DA2A46414600F006FAB169691845
:10224000601B012FB161706203DA96F83800000755
:1022500005D5F06801F80090F069401CF061B762A4
:10226000A0E02246414600F0EFF9B06920182D1B8E
:10227000012F03DA96F83810090703D5F16800F842
:102280000190401C2DB2B061AF42B8BF3D46F0682E
:10229000B3692DB22A4604EB0801181800F0D4F9EE
:1022A000B0692818B061781B70627BE0BAF1610FE9
:1022B00014D14FF0700A16E0BD4204DA96F83810D7
:1022C000090758BF2F467F1E48BF0027BAF1670F86
:1022D00014BF4FF0450A4FF0650A04E0BAF1410F10
:1022E00008BF4FF0500AB169F0684A1CB261012F73
:1022F00018F8013B0B5403DA96F83810090715D586
:10230000531CB36102F80090012F0FDB6D1E2DB23C
:10231000AF42B8BF3D462DB22A464146181800F0DC
:1023200093F9B0692818B061781B7062F068B169E0
:102330000918200081F800A004D42B20487001F176
:10234000020804E02D224A7001F1020864420025CF
:1023500002AF08E00A22684600F078FE019807F80C
:10236000010B6D1C009C21B20129F3DA022D06DA63
:102370004AF02000652804BF302008F8010B4DB951
:10238000302008F8010B07E06D1E02A8285C3030F1
:1023900008F8010B012DF7DAF068B1690818A8EB0D
:1023A0000000F06196F8380000F0140010280DD1FC
:1023B0007069B1690818716A0818F1690818B16A7A
:1023C0000818716B8842BCBF081A306206B0BDE8BD
:1023D000F087F8B504460D4616461F46002077B133
:1023E00016F8011BA868A047A86030B1E86A401C35
:1023F000E86200207F1EF3D1F2BD4FF0FF30F2BD46
:1024000000000000000000006E616E004E414E00B2
:10241000696E6600494E46003000F8B504460D4628
:1024200016461F4600F01AFE3B4632462946204615
:1024300001B0BDE8F04000F028BEF0B40168446887
:102440008368091801EB5402E40748BF4B440C3081
:1024500091422BD011F8014B14F0030504BF11F881
:10246000015BED1C26090F2E07D111F8016B0F3609
:1024700003E011F8017B03F8017B6D1EF9D1002EFA
:10248000E6D0A40811F8015B04F00304032C08BF94
:1024900011F8014B05EB04241C1BB51CD8D014F813
:1024A000016B03F8016B6D1EF9D1D1E7F0BC7047E9
:1024B0000278C9B28A421AB11CBF10F8012FF9E79D
:1024C00018BF002070478268521C8260426832B197
:1024D0000268531C036011704168491E41607047D7
:1024E00000F10103810704D010F8011B89B18107B5
:1024F000FAD10268B2F10131914311F0803F04BF7B
:1025000050F8042FF6E710F8011B11B110F8011B69
:10251000FBE7C01A70474100C9B2830706D0521EBC
:1025200022D310F8013B9942F7D11FE0083A13D3A8
:1025300002F1040241EA012141EA014150F8043B61
:10254000121F21BF4B40A3F1013C2CEA030C1CF0ED
:10255000803FF3D0C9B2001F083210F8013B521E71
:1025600028BF91EA030FF8D818BF0120401E70471A
:1025700080B500F073FD012002BD570070B505461F
:1025800005F10F00C408C046C046E400A54232D29F
:10259000082C04D2082402E0083000F091F8224808
:1025A000026811000CD1011D0A6802B31368A3422E
:1025B00038BF111DF8D310E01D68A5420DD2191DBA
:1025C0000B68002BF8D11268011D00E0191D0B6883
:1025D00093420CD01D68A542F8D361B10D682A68FA
:1025E000A2F10803A3420AD26A680A600FE000F071
:1025F0006FFD0028D0D1C046C046002070BD6319D1
:102600000B60121B6E685E600B681A602C600968B4
:1026100000291DBF4A68002A091D00210160C0462B
:10262000C04605F1080070BDF823002070B50446CF
:102630000D46164600F012FD324629462046BDE8FA
:10264000704000F015BD010262B38B0708D0521E26
:1026500011F8013B00F8013B00F024808B07F6D114
:10266000830740F0208000BF103A07D330B4B1E8B0
:102670003810103AA0E83810F9D230BC530724BF04
:10268000B1E80810A0E8081044BF51F8043B40F836
:10269000043BD20724BF31F8022B20F8022B44BFA1
:1026A0000B7803707047083A07D3B1E80810083A6E
:1026B00040F8043B40F804CBF7D25307E4E70102AB
:1026C00000B9704738B5A0F108042068082833D352
:1026D00010F0070F30D1C046C0461848416809B114
:1026E0008C4203D26160446017E019464B680BB11D
:1026F000A342FAD30B685D18AC421BD3A54204D1A8
:102700002268D2180A600C4607E04A681AB12368AA
:102710001B199A420ED362604C60616851B1226805
:1027200013198B4206D100230360086880182060CB
:1027300048686060C046C04631BD0000F8230020F4
:102740001B4213D1094236D12AB18446B0FBF2F0C4
:1027500002FB10C2704700F0D1BCFCD30022002362
:1027600070470B000200002100207047904271EB7F
:10277000030CF6D370B5B1FA81F4B3FA83F52C1BD0
:10278000A340C4F1200532FA05F63343A2405FF0BE
:102790000046E64002E05B085FEA3202841A71EB11
:1027A000030524BF204629467641F4D302000B00DE
:1027B0003000002170BD012ACFD970B5140C20D093
:1027C000B1FA81F4B2FA82F5C4F120046419B4F1CB
:1027D0002006D6D3B2405FF00044F440002502E06A
:1027E00052085FEA3303C61A71EB020E24BF30466B
:1027F000714664416D41F3D302000B0020002900B3
:1028000070BD0C46B1FBF2F102FB11452D0445EA07
:102810001045B5FBF2F402FB145580B240EA0545C1
:10282000B5FBF2F002FB105240EA044070BD30B438
:10283000436803F0004201211B031B0B436004BFEC
:102840000368002B08D10DE00368DD0F45EA44045E
:1028500044605B000360491E4468E302F4D523032F
:102860001B0B436043681A434260084630BC704704
:102870004FF4001C1CEB410F94BF1CEB430F09E00D
:1028800041EA030C50EA4C0C52EA0C0C03D2994278
:1028900008BF9042704714BF8B42824270470000CD
:1028A0004FF4001C1CEB410F94BF1CEB430F09E0DD
:1028B00041EA030C50EA4C0C52EA0C0C03D28B4256
:1028C00008BF8242704714BF99429042704700008F
:1028D00070B504460D466068C0F30A5040F2FF71BF
:1028E000884207D16068000304BF2068002817D021
:1028F000022070BD20B92046FFF799FF012866DA53
:10290000012D0FDB40F2FF71091A8D420AD3606876
:10291000002847BF00202F4900202F49C4E90001AB
:10292000012070BD4142A942616806DA6FF31E5171
:10293000401941EA0050606040E0401E636845195C
:10294000012205F1350062F31F53352801F00041E3
:10295000636003D361600020206070BD002015F12A
:102960001F0F04DA206823600022203562606A426B
:1029700012D0401E25688041C2F12003C0439D4013
:1029800045EAD07025686668D54006FA03F32B4304
:1029900023606368D340636062680A43B0F1004F0C
:1029A000626003D80DD12078C0070AD52068401C8A
:1029B0002060206828B96068401C60604FF0FF30DC
:1029C00070BD6068884204BF20680028F6D10020EE
:1029D00070BD00BF0000F0FF0000F07FF446400D26
:1029E00040EAC120490006D200F014F8004248BF76
:1029F0006FF00040604700F00DF84FF00041884252
:102A00008CBF084640426047400D40EAC120490063
:102A100080F00D8040F00040490DA1F58061491C17
:102A200005D4D1F11F0154BFC840C01770474FF003
:102A300000007047010040F10980F446404200F078
:102A400005F851F000416047010000BF09D0B0FA1D
:102A500080F18840C91CC1F58461090501EBD021D2
:102A600040057047F0B44FF0004591EA030F44BFB2
:102A70006B4000F04FBB00BF841A71EB030604D219
:102A80006E40001BB141121973414FF4001C1CEB46
:102A9000410F34BF7CEB430684E00C0DA4EB1356CE
:102AA000362E7DDC012E43DC45EAC32343EA525334
:102AB00012BFD20292025B08240545EAC12141EA15
:102AC0005051D2EBC020994125D407D1B0FA80F6FD
:102AD00010FA06F164D00020203608E0B1FA81F641
:102AE000B140C6F1200220FA02F21143B0404FEA91
:102AF000F474B4EB465434F001064FEA74040AD877
:102B0000D6F50016760D04F00044F04061FA06F2A6
:102B10005040F1404840C00A40EA415021F0004195
:102B200028BF5FEA500550F1000044EBD12137E0A7
:102B300045EAC323DB0A45EAC121C90AB6F12005EB
:102B40000EDD42EA0242120CC5F1200603FA06F637
:102B5000EB4042EA06056D42984161F100010DE04B
:102B600062FA06F5F240554063FA06FC82EA0C026E
:102B7000F3405A406D42904161EB030111F4801F14
:102B800005D1641E620502D06D004041494121F427
:102B90008011430875F1004350F1000041EB0451EE
:102BA000F0BC70471CEB410F15D223F0004352EAF2
:102BB00043060BD04FEA4C0CBCEB410F04D80C0D74
:102BC000661E342EB7DDEBE7801A994150EA4106C4
:102BD00008BF0021E4E708BF1CEB430F28BF6FF0DC
:102BE0000001DDE7B0B581EA030C0CF0004C40F2C7
:102BF000FF7515EA11541DBF15EA1357AC42AF42D9
:102C000039E0E41923EA455343F48013C90241F043
:102C1000004141EA505EC7021100A7FB02020028F2
:102C20004FF00000EEFB01204FF00001E3FB072115
:102C300018BF42F00102401800214941E3FB0E0198
:102C4000A4F580640F0302D252004041494154F17F
:102C500001046CDD470872F1004250F1000051EBB5
:102C60000451A1F580115CBF41EA0C01B0BD4CEAF2
:102C700005510020B0BD05EA1357AC4214BFAF4266
:102C800041E050EA410E1CBF52EA430E02E06146A9
:102C90000020B0BD24423C441BD15FEA070EF6D0B1
:102CA000090302BF01460020AEF1140EB1FA81F70C
:102CB000AEEB070401FA07FE0C37C7F1200100FA5A
:102CC00007F7C8404EEA000E23EA455343F4801349
:102CD000A2E733F00043B3FA83F704BFB2FA82FEEF
:102CE00077440B3FE41BB7F1200E2FBF02FA0EF31F
:102CF000BB40C7F1200E22FA0EFE38BF43EA0E0396
:102D0000BA40641C82E750EA410E14BF52EA430EF7
:102D10006FF000014FF4001717EB430F8ABF1946FD
:102D200017EB410FB5E74CEA05510020B0BDD4F1D7
:102D30000104B4F120070FDAC4F12007520828BFBC
:102D400042F0010210FA07F501FA07F7E1BF2A4342
:102D5000E0403843E1400FE0352C98DCC7F1200417
:102D600052EA400220FA07F218BF42F0010231FA9B
:102D700007F0A1400A43002172F1004250F1000027
:102D800051EB0C01B0BD00002DE9F04140F2FF75A0
:102D900081EA030C0CF0004C15EA11541DBF15EA32
:102DA0001357AC42AF42E9E0BC41C1F31301C3F396
:102DB0001303801A994143F4801304D2641E400027
:102DC000494180185941C90241EA5051B1FBF3F61B
:102DD00003FB1611A2FB0675D7EBC020A94102D256
:102DE000761E80185941C90241EA5051B1FBF3FEE9
:102DF00003FB1E11A2FB0E75D7EBC020A94103D225
:102E0000AEF1010E80185941890241EA90517605D0
:102E100046EA8E2EB1FBF3F603FB1611A2FB0675F4
:102E2000D7EB8020A94102D2761E80185941C902F1
:102E300041EA50514EEA060EB1FBF3F603FB1611C0
:102E4000A2FB0675D7EBC020A94102D2761E8018DE
:102E50005941C90241EA5051B1FBF3F703FB171185
:102E6000A2FB0735D3EBC020A94167F100070CBFD7
:102E7000004247F0010766F3D5274FEA1E31B80834
:102E800014F5806414DDBD0775F1004250EB0E505F
:102E900051EB045111F5801F5CBF41EA0C01BDE804
:102EA000F0814CF07F6141F0E0410020BDE8F0810D
:102EB000BD076D0840EA0E5041F48011D4F10104C1
:102EC000B4F120060ADAC4F120060200E04001FA5B
:102ED00006F3E1401843B24015430EE0342C14DCF5
:102EE000C6F1200445EA40056D0820FA06F21543B4
:102EF00021FA06F0A1400D43002175F1004250F186
:102F0000000051EB0C01BDE8F08100205FEA0C01EC
:102F1000BDE8F081CFB992185B41B3FA83F704BFE3
:102F2000B2FA82F6BF190B3FB7F120062FBF02FAA3
:102F300006F3BB40C7F1200622FA06F638BF33433A
:102F4000BA401CB1E419641E2FE77F4231F0004102
:102F5000B1FA81F404BFB0FA80F6A4190B3CB4F1C5
:102F600020062FBF00FA06F1A140C4F1200620FA86
:102F700006F638BF3143A0403C1B16E7AC421ABFEF
:102F800005EA1357AF4214E050EA41061CBF52EA6B
:102F90004306BFE750EA4107304661461CBF41EA9D
:102FA0000551BDE8F08152EA430C08BFC143BDE8BA
:102FB000F08100204FF4001616EB410F98BF16EB7E
:102FC000430F08BF16EB410F24BFC14305E016EBCA
:102FD000430F0CBF61464CEA0551BDE8F08100008B
:102FE00080B5134800F000F90FF24C020FF24401D3
:102FF0000160426241600FF24402826381600FF21D
:103000004402C1600161416181618162C162016309
:103010004163C2630164416401BD10B5044800F01E
:10302000E3F80446206808B9FFF7DAFF204610BD30
:1030300058010020000000002E00000066616C7343
:1030400065000000747275650000000091FBF2F3EA
:1030500003FB1211C0E900317047000080B5DFF8B2
:103060000C0000F0C1F8806902BD0000EC010020F6
:1030700030B430B90FF24800D0E90045C2E900454C
:103080001BE00170012030BC704730B431B90FF241
:103090003800D0E90045C3E900450EE01AB930BC5C
:1030A0006FF00100704708B10A7802800978481E65
:1030B000804130BCC043C00F7047002030BC704717
:1030C0000000000000000000000000000000000000
:1030D0000749086808B1002070470648C008C000CA
:1030E00008600549C908C900091A0160704700BF96
:1030F0009024002067060020600800207047000030
:10310000F0B44FF0004591EA030C44BF6B40FFF769
:10311000B3BC00BF841A71EB030603D2001BB1419C
:10312000121973414FF4001C1CEB410F34BF7CEBB0
:10313000430443E00C0DA4EB1356352E50DC45EA56
:10314000C323DB0A45EAC121C912B6F120050DDD12
:1031500063FA05F6EB4086EA0305124218BF45F014
:103160000105C01851F100010CD213E062FA06F516
:10317000F2405540F3415A40B340F3405A40801862
:10318000594107D349085FEA30005FEA350528BF97
:1031900045F0010501F58011420875F1004250F13A
:1031A000000041EB0451F0BC4FF4001C1CEB410F3C
:1031B00038BF70470020090D090570471CEB410F0F
:1031C00010D252EA43060BD0BCEB410F05D80C0DD0
:1031D000AB43661E342EB5DD02E0AB438018594187
:1031E000F0BC7047F0BC70477047000070B5040039
:1031F00000250026002C01D10120BAE094F83D0002
:10320000002805D1002084F83C00200000F066FF73
:10321000242084F83D0020680068400840002168B0
:10322000086001F0BDFA06006068DFF8D01288423D
:1032300008D2DFF8CC02864201D2012000E0002053
:10324000C0B207E0DFF8BC02864201D2012000E0F4
:103250000020C0B2012801D101208AE0DFF8A802D5
:10326000B6FBF0F00500206845606068DFF88C125E
:10327000884201D2681C08E04FF4967000FB05F00C
:103280004FF47A71B0FBF1F0401C2168086260686D
:10329000DFF86812884214D2701E61684900B0FBE2
:1032A000F1F0401C0005000D042801D204203EE08E
:1032B000701E61684900B0FBF1F0401C0005000D74
:1032C00035E0A068002809D1701E616803225143CF
:1032D000B0FBF1F0401C0005000D0AE0701E6168B3
:1032E00019225143B0FBF1F0401C0005000D50F4D1
:1032F0008040000501D1012019E0A068002809D113
:10330000701E616803225143B0FBF1F0401C0005C0
:10331000000D0AE0701E616819225143B0FBF1F004
:10332000401C0005000D50F4804050F4004021681E
:10333000C861E069216A0843216808602069E16882
:103340000843216888606069A16908432168C860F2
:103350002068006850F001002168086000202064A7
:10336000202084F83D0000202063002084F83E00E7
:10337000002070BD2DE9F84304000D0016001F0069
:10338000DDF820805FF0000901F083FA814694F8AF
:103390003D00202840F0AF80CDF800901923012295
:1033A000DFF86811200000F0BDFC002801D00220E9
:1033B000A2E094F83C00012801D102209CE0012009
:1033C00084F83C0020680068C00705D420680068C5
:1033D00050F00100216808602068006830F4006047
:1033E00021680860212084F83D00102084F83E0008
:1033F0000020206466626785DFF81401E062608D5A
:1034000020854B464246290089B2200000F0EEFAA2
:1034100000280CD0206C042804D1002084F83C0043
:10342000012069E0002084F83C00032064E00020D3
:1034300000902068406900902068806900900098A2
:10344000208D002846D04A464146200000F0FEFC70
:1034500000280CD0206C042807D12068006850F4A4
:10346000007021680860012046E0032044E0606AA3
:10347000411C6162007821680861608D401E608592
:10348000208D401E20852068406940070ED5208D84
:1034900000280BD0606A411C6162007821680861D5
:1034A000608D401E6085208D401E20854A46414625
:1034B000200000F0F4FC0028C2D0206C042807D1C2
:1034C0002068006850F4007021680860012013E053
:1034D000032011E02068006850F400702168086043
:1034E000202084F83D00002084F83E00002084F86D
:1034F0003C00002000E00220BDE8F283A18601002C
:1035000080841E0000093D0040420F0002001000B0
:103510000000FFFF2DE9F04F83B005000E001700FB
:103520009846DDF830900D9CDDF838A05FF0000B78
:1035300001F0AFF9834695F83D00202840F0AE80B9
:10354000CDF800B019230122DFF89814280000F00C
:10355000E9FB002801D00220A1E095F83C000128F9
:1035600001D102209BE0012085F83C00286800681A
:10357000C00705D42868006850F001002968086079
:103580002868006830F4006029680860212085F808
:103590003D00402085F83E0000202864C5F82490B6
:1035A0006C85DFF83C04E862688D2885CDF804B0AE
:1035B000CDF800A043469BB23A0092B2310089B2E6
:1035C000280000F07BFA00280CD0286C042804D1D5
:1035D000002085F83C00012061E0002085F83C00D7
:1035E00003205CE0288D002833D05A46514628003D
:1035F00000F02CFC00280CD0286C042807D1286887
:10360000006850F4007029680860012047E003203A
:1036100045E0686A411C6962007829680861288D64
:10362000401E2885688D401E6885286840694007CF
:10363000D8D5288D0028D5D0686A411C69620078E9
:1036400029680861288D401E2885688D401E688580
:10365000C8E75A465146280000F021FC00280CD04B
:10366000286C042807D12868006850F40070296885
:103670000860012013E0032011E02868006850F47E
:10368000007029680860202085F83D00002085F83A
:103690003E00002085F83C00002000E00220BDE84C
:1036A000FE8F2DE9F04F83B005000E0017009846FD
:1036B000DDF830900D9CDDF838A05FF0000B01F0D4
:1036C000E8F8834695F83D00202840F08581CDF844
:1036D00000B019230122DFF80C13280000F022FBB0
:1036E000002801D0022078E195F83C00012801D1A2
:1036F000022072E1012085F83C0028680068C007BC
:1037000005D42868006850F001002968086028681E
:10371000006830F4006029680860222085F83D00C8
:10372000402085F83E0000202864C5F824906C8570
:10373000DFF8AC02E862688D2885CDF804B0CDF8DA
:1037400000A043469BB23A0092B2310089B22800F1
:1037500000F02AFA00280CD0286C042804D100209C
:1037600085F83C00012038E1002085F83C0003206A
:1037700033E1288D00280FD100200090286840698F
:10378000009028688069009000982868006850F4CC
:1037900000702968086044E0288D012817D1286846
:1037A000006830F480602968086072B600200090DC
:1037B000286840690090286880690090009828680F
:1037C000006850F400702968086062B629E0288D0E
:1037D000022817D12868006850F400602968086042
:1037E00072B60020009028684069009028688069BF
:1037F000009000982868006830F4806029680860AC
:1038000062B60EE02868006850F48060296808609D
:103810000020009028684069009028688069009026
:103820000098288D002800F0CC80288D042880F096
:103830009C80288D01281AD15A465146280000F054
:1038400057FB002806D0286C202801D10320C4E0B3
:103850000120C2E0686A411C696229680969017037
:10386000288D401E2885688D401E6885D9E7288DE3
:1038700002282DD1CDF800B053460022DFF86811A0
:10388000280000F04FFA002801D00320A5E072B60E
:103890002868006850F4007029680860686A411C54
:1038A0006962296809690170288D401E2885688D24
:1038B000401E688562B6686A411C696229680969A8
:1038C0000170288D401E2885688D401E6885A8E7F8
:1038D000CDF800B053460022DFF80C11280000F0AC
:1038E00021FA002801D0032077E02868006830F42E
:1038F00080602968086072B6686A411C696229683C
:1039000009690170288D401E2885688D401E6885D4
:10391000CDF800B053460022DFF8CC10280000F0AC
:1039200001FA002801D0032057E02868006850F40D
:10393000007029680860686A411C69622968096921
:103940000170288D401E2885688D401E688562B6EE
:10395000686A411C6962296809690170288D401EE6
:103960002885688D401E68855BE75A4651462800C9
:1039700000F0BEFA002806D0286C202801D10320D0
:103980002BE0012029E0686A411C69622968096905
:103990000170288D401E2885688D401E6885286826
:1039A000406940077FF53DAF686A411C696229683C
:1039B00009690170288D401E2885688D401E688524
:1039C0002FE7202085F83D00002085F83E000020EC
:1039D00085F83C00002000E00220BDE8FE8F0000DA
:1039E0000000FFFF02001000040001002DE9F0417B
:1039F00082B004000D0016001F00D4F82C80B8F12E
:103A0000040F06D0B8F1010F03D0DFF80C03804596
:103A100006D12068006850F480702168086008E0D2
:103A2000206B122805D12068006850F4807021684E
:103A300008600097330000225FF00111200000F0C1
:103A400071F9002801D0032036E02069B0F5804FDD
:103A500004D115F0FE00216808611CE015F44070E7
:103A600080B2C00950F0F000C0B2216808613B008C
:103A70003200DFF8A812200000F098F9002806D0E4
:103A8000206C042801D1012016E0032014E0280056
:103A9000C0B2216808613B003200DFF884122000C8
:103AA00000F084F9002806D0206C042801D1012000
:103AB00002E0032000E00020BDE8F6812DE9F84394
:103AC00004000D0016001F00DDF82080DDF82490B2
:103AD0002068006850F4807021680860CDF800907C
:103AE000434600225FF00111200000F01BF900287E
:103AF00001D0032056E015F0FE00216808614B4616
:103B000042468749200000F051F9002806D0206C79
:103B1000042801D1012045E0032043E0002000906B
:103B200020684069009020688069009000984A46AB
:103B30004146200000F08AF900280CD0206C0428AF
:103B400007D12068006850F40070216808600120E7
:103B500028E0032026E0BFB2012F04D13000C0B21C
:103B6000216808611DE0300080B2000AC0B22168FF
:103B700008614A464146200000F068F900280CD050
:103B8000206C042807D12068006850F40070216878
:103B90000860012006E0032004E03000C0B2216884
:103BA00008610020BDE8F2832DE9F84304000D0010
:103BB00016001F00DDF82080DDF8249020680068E2
:103BC00050F48060216808602068006850F48070BC
:103BD00021680860CDF80090434600225FF0011193
:103BE000200000F09FF8002801D0032091E015F09C
:103BF000FE00216808614B4642464949200000F01A
:103C0000D5F8002806D0206C042801D1012080E0DE
:103C100003207EE00020009020684069009020682A
:103C20008069009000984A464146200000F00EF955
:103C300000280CD0206C042807D12068006850F4BC
:103C4000007021680860012063E0032061E0BFB2DA
:103C5000012F04D13000C0B2216808611DE030009E
:103C600080B2000AC0B2216808614A46414620007D
:103C700000F0ECF800280CD0206C042807D1206854
:103C8000006850F4007021680860012041E00320C2
:103C90003FE03000C0B2216808614A46414620003A
:103CA00000F0D4F800280CD0206C042807D120683C
:103CB000006850F4007021680860012029E00320AA
:103CC00027E02068006850F4807021680860CDF813
:103CD0000090434600225FF00111200000F022F81E
:103CE000002801D0032014E055F00100C0B2216883
:103CF00008614B4642460A49200000F057F8002868
:103D000006D0206C042801D1012002E0032000E04D
:103D10000020BDE8F28300000000FFFF0800010062
:103D2000020001002DE9F04104000D0016001F0003
:103D3000DDF81880280CC0B201280AD1206840693B
:103D4000284080B2A9B2884201D101200BE00020B6
:103D500009E020688069284080B2A9B2884201D178
:103D6000012000E00020002801D0012000E0002018
:103D7000F6B2B04217D117F1010FDBD0002F05D0FA
:103D800000F087FDB0EB08008742D3D2002020630B
:103D9000202084F83D00002084F83E00002084F8B4
:103DA0003C00032000E00020BDE8F081F8B50400ED
:103DB0000D0016001F00280CC0B201280AD120688F
:103DC0004069284080B2A9B2884201D101200BE0AD
:103DD000002009E020688069284080B2A9B28842AA
:103DE00001D1012000E0002000282DD12068406989
:103DF000400515D52068006850F4007021680860FF
:103E00007FF48060216848610420206400202063E2
:103E1000202084F83D00002084F83C00012014E0BC
:103E200016F1010FC7D0002E04D000F032FDC01BE8
:103E30008642C0D200202063202084F83D0000206C
:103E400084F83C00032000E00020F2BD70B50400BF
:103E50000D0016002068406900061ED4200000F006
:103E600078F8002801D0012018E015F1010FF1D0F9
:103E7000002D04D000F00DFD801B8542EAD2206C9D
:103E800050F02000206400202063202084F83D00B2
:103E9000002084F83C00032000E0002070BD70B5D5
:103EA00004000D0016002068406940071ED4200061
:103EB00000F04FF8002801D0012018E015F1010FA3
:103EC000F1D0002D04D000F0E4FC801B8542EAD242
:103ED000206C50F02000206400202063202084F813
:103EE0003D00002084F83C00032000E0002070BD6D
:103EF00070B504000D00160020684069400626D405
:103F000020684069C0060FD57FF010002168486125
:103F10000020206400202063202084F83D00002041
:103F200084F83C00012013E0002D04D000F0B1FC27
:103F3000801B8542E0D2206C50F0200020642020BD
:103F400084F83D00002084F83C00032000E00020BD
:103F500070BD01000868406940050FD57FF480609E
:103F60000A6850610420086400200863202081F85A
:103F70003D00002081F83C00012000E00020704757
:103F800080B56648006850F00100644908606348E5
:103F9000006810F00100009000986148006850F03F
:103FA00080505F4908605E48006810F080500090C3
:103FB0000098032000F0EAFC002200217FF00B00B3
:103FC00000F0EAFC002200217FF00A0000F0E4FC8F
:103FD000002200217FF0090000F0DEFC0022002119
:103FE0007FF0040000F0D8FC002200217FF00300E5
:103FF00000F0D2FC00220F217FF0010000F0CCFC89
:1040000000220F215FF0FF3000F0C6FC454909682F
:10401000080030F0E06050F000704249086001BDD7
:1040200010B586B0040020683F4988423CD13B4827
:10403000006850F40070394908603848006810F48E
:10404000007000900098022001900320029001A9C6
:10405000364800F0E7FC364836490860002035490C
:10406000486000203349886080203249C8604FF49E
:104070008070304908614FF400602E49486120206B
:104080002C4988614FF400502A49C861294800F042
:104090005DFE002803D08021274801F028F825483C
:1040A00020622448446217E020682449884213D1E2
:1040B0001A48006850F48060184908601748006882
:1040C00010F480600090009801200190032002907D
:1040D00001A9164800F0A6FC06B010BD10B586B0C8
:1040E000040020681649884215D1C0200190122092
:1040F00002900320049001A9124800F093FC0848A4
:10410000006850F40010064908600548006810F483
:1041100000100090009806B010BD0000181002407A
:104120001C1002400400014000240140000801402E
:1041300008000240A0220020F8E400080028014006
:1041400000540040000C014070B582B0040000250E
:104150002078C00740F18480DFF8D406006810F0B2
:104160000C0004280BD0DFF8C806006810F00C0023
:1041700008280ED1DFF8B8060068C00309D5DFF8BB
:10418000AC06006880036BD56068002868D1012008
:1041900004E26068B0F5803F08D1DFF8900600685F
:1041A00050F48030DFF88416086038E0606800283A
:1041B00010D1DFF87806006830F48030DFF86C1634
:1041C0000860DFF86806006830F48020DFF85C16CD
:1041D000086024E06068B0F5A02F10D1DFF84C062D
:1041E000006850F48020DFF844160860DFF83C06D1
:1041F000006850F48030DFF8341608600FE0DFF814
:104200002C06006830F48030DFF820160860DFF8F4
:104210001C06006830F48020DFF810160860606823
:1042200000280ED000F035FB0500DFF8000600681E
:10423000800315D400F02DFB401B6528F5D3032027
:10424000ACE100F026FB0500DFF8E0050068800324
:1042500006D500F01EFB401B6528F5D303209DE129
:10426000207880075CD5DFF8C805006810F00C0FD7
:104270000BD0DFF8BC05006810F00C0008281AD13C
:10428000DFF8AC050068C00315D4DFF8A0050068AE
:10429000800704D52069012801D001207EE1DFF8E4
:1042A0008C05006830F0F800616950EAC100DFF861
:1042B0007C15086034E0206900281ED00120DFF85A
:1042C0008015086000F0E5FA0500DFF86005006879
:1042D000800706D400F0DDFA401B0328F5D3032045
:1042E0005CE1DFF84805006830F0F800616950EAE9
:1042F000C100DFF83815086012E00020DFF8401533
:10430000086000F0C6FA0500DFF8200500688007A5
:1043100006D500F0BEFA401B0328F5D303203DE18B
:10432000207800072CD5A069002816D00120DFF8DE
:104330001415086000F0ADFA0500DFF8000500680C
:10434000800706D400F0A5FA401B0328F5D303200C
:1043500024E1012000F057FA12E00020DFF8E41415
:10436000086000F096FA0500DFF8D00400688007C6
:1043700006D500F08EFA401B0328F5D303200DE18B
:104380002078400740F1A7800026DFF8BC040068D1
:10439000C00010D4DFF8B004006850F08050DFF89F
:1043A000A8140860DFF8A004006810F080500090A6
:1043B000009801200600DFF894040068C00516D4B8
:1043C000DFF88804006850F48070DFF8801408601B
:1043D00000F05FFA0500DFF874040068C00506D439
:1043E00000F057FA401B6528F5D30320D6E0E068BB
:1043F000012808D1DFF85804006850F00100DFF808
:104400005014086037E0E068002810D1DFF840045D
:10441000006840084000DFF838140860DFF8300416
:10442000006830F00400DFF82814086023E0E0683A
:10443000052810D1DFF81804006850F00400DFF8F8
:1044400010140860DFF80804006850F00100DFF87D
:10445000001408600FE0DFF8F8030068400840002F
:10446000DFF8EC130860DFF8E803006830F00400C0
:10447000DFF8DC130860E068002810D000F009FACB
:104480000500DFF8CC030068800719D400F001FABA
:10449000401B41F289318842F3D303207EE000F0D3
:1044A000F8F90500DFF8A8030068800708D500F0D8
:1044B000F0F9401B41F289318842F3D303206DE0CB
:1044C000F6B2012E07D1DFF88003006830F080508B
:1044D000DFF874130860E06900285ED0DFF850034D
:1044E000006810F00C00082855D0E06902283FD180
:1044F0000020DFF86013086000F0CBF90500DFF85A
:104500002C030068800106D500F0C3F9401B032886
:10451000F5D3032042E0206AB0F5803F09D1DFF8EF
:104520001003006830F40030A1680843DFF800137E
:104530000860DFF8FC02006830F47410216A084358
:10454000616A0843DFF8E81208600120DFF804130D
:10455000086000F09EF90500DFF8D00200688001D5
:104560001BD400F096F9401B0328F5D3032015E077
:104570000020DFF8E012086000F08BF90500DFF89A
:10458000AC020068800108D500F083F9401B0328C5
:10459000F5D3032002E0012000E0002076BD70B5D5
:1045A00004000D000026DFF8B002006810F00700DC
:1045B000A84211D2DFF8A0020068C008C00028435A
:1045C000DFF894120860DFF89002006810F007002E
:1045D000A84201D00120A3E02078800709D5DFF8A8
:1045E0005002006830F0F000A1680843DFF8401284
:1045F00008602078C00758D56068012806D1DFF828
:104600002C020068800312D4012089E0606802282F
:1046100006D1DFF818020068800108D401207FE08D
:10462000DFF808020068800701D4012078E0DFF895
:104630000002006880088000616808437C490860C7
:1046400000F027F90600606801280ED1784800685C
:1046500010F00C00042828D000F01BF9801B41F258
:1046600089318842F2D303205AE0606802280ED1D3
:104670006F48006810F00C00082816D000F009F907
:10468000801B41F289318842F2D3032048E0684818
:10469000006810F00C0F08D000F0FBF8801B41F20E
:1046A00089318842F3D303203AE06B48006810F068
:1046B000070085420ED268480068C008C000284341
:1046C000654908606448006810F00700A84201D0FE
:1046D000012025E02078400707D55548006830F4D0
:1046E000E060E1680843524908602078000708D577
:1046F0004F48006830F46050216950EAC1004C49CD
:10470000086000F00EF85549494A1268C2F30312D6
:10471000515CC84048490860002000F005FD0020B9
:1047200070BD70B586B001A84D491022FDF79CFF01
:104730004C480088ADF8000000210022002300242E
:1047400000203B4D2D68290011F00C05042D02D0EE
:10475000082D03D01DE0374D28001CE001ADC1F34A
:104760008346755D2C00CD030DD56D46304E366801
:10477000C6F34046755D2A002E4D05FB04F5B5FBDA
:10478000F2F52B0003E0384D05FB04F52B00180073
:1047900001E0284D280006B070BD2748006870472A
:1047A00080B5FFF7FAFF3149214A1268C2F30222AD
:1047B000515CC84002BD80B5FFF7EFFF2B491C4A92
:1047C0001268C2F3C222515CC84002BD0F220260CF
:1047D000174A126812F003024260154A126812F07A
:1047E000F0028260124A126812F4E062C260104A5B
:1047F0001268D20812F4E0620261174A126812F0DD
:1048000007020A60704781B00B490968C9084FF474
:104810007A72B1FBF2F101FB00F1009100BF009947
:104820004A1E00920029F9D101B0704700100240E1
:104830000410024000127A004001002024100240BF
:1048400000004242800442421C10024000700040BE
:1048500020100240600042420020024094E800081C
:1048600074E800084626000800093D0080E90008B9
:1048700080B50948006850F010000749086003201F
:1048800000F084F8002000F04FFCFFF779FB0020D7
:1048900002BD024800687047002002402C2400201E
:1048A00010F00702564B1B6819004FF6FF03194022
:1048B000544B53EA02231943514B19607047504837
:1048C0000068C0F302207047012110F01F029140E0
:1048D0004D4A40B2430942F82310704710B440B229
:1048E000002808D50A01494B40B210F00F04E31824
:1048F00003F8042C03E00A01454B40B2C25410BC3B
:10490000704770B4030013F00704D4F10706052EB6
:1049100001D3042001E0D4F10700261D072E01D2A7
:10492000002500E0E51E012616FA00F0401E0840B2
:10493000A8400121A940491E1140084370BC70479E
:10494000BFF34F8F2E48006810F4E06031490843F0
:104950002B490860BFF34F8F00BFFDE710B504007F
:10496000601EB0F1807F01D301200EE0601E2A4955
:1049700008600F215FF0FF30FFF7B0FF00202749EC
:104980000860072026490860002010BD10B504000B
:104990002000FFF785FF10BDF8B504000D001600DC
:1049A0000027FFF78CFF0700320029003800FFF7CF
:1049B000A8FF0100200040B2FFF790FFF1BD10B545
:1049C0000400200040B2FFF77FFF10BD80B5FFF765
:1049D000B7FF01BD10B504002000FFF7BFFF10BDF9
:1049E000042806D10E49096851F004010C4A1160EF
:1049F00005E00B49096831F00401094A116070476C
:104A00000CED00E00000FA0500E100E018ED00E028
:104A100000E400E00400FA0514E000E018E000E023
:104A200010E000E02DE9F8410023002400250026D5
:104A30005FF0000E5FF0000C6246102A80F04D819E
:104A40005FF0010C1CFA02FC6346D1F800C013EAC7
:104A50000C0C64469C4240F03E81D1F804C0BCF18D
:104A6000000F3DD0BCF1010F24D0BCF1020F2BD0C0
:104A7000BCF1030F4CD0BCF1110F1FD0BCF1120FD1
:104A800028D0DFF88882C4452AD0DFF88482C44564
:104A900026D0DFF88082C44522D0DFF87C82C4456E
:104AA0001ED0DFF87882C4451AD0DFF87482C4457E
:104AB00016D031E0D1F80CC066462DE0D1F80CC01C
:104AC0001CF1040C664627E0D1F80CC01CF1080C60
:104AD000664621E0D1F80CC01CF10C0C66461BE0C8
:104AE000D1F808C0BCF1000F03D15FF0040C66469A
:104AF0000DE0D1F808C0BCF1010F04D15FF0080C43
:104B00006646036103E05FF0080C6646436103E01C
:104B10005FF0000C6646FFE7FF2C01D8070000E0BD
:104B2000071DFF2C02D85FEA820E03E0B2F1080CE9
:104B30005FEA8C0ED7F800C05FF00F0818FA0EF885
:104B40003CEA080C16FA0EF858EA0C0CC7F800C03C
:104B5000D1F804C05FEACC0C40F1BD80DFF8C4C1DD
:104B6000DCF800C05CF0010CDFF8B881C8F800C0C8
:104B7000DFF8B0C1DCF800C01CF00108CDF80080FF
:104B8000DDF800C0DFF8A0C15FEA92085CF828C039
:104B900065465FF00F0C12F003085FFA88F85FEAD1
:104BA00088081CFA08FC35EA0C05DFF880C160456E
:104BB00002D15FF0000C16E0DFF874C1604502D14D
:104BC0005FF0010C0FE0DFF86CC1604502D15FF0CF
:104BD000020C08E0DFF860C1604502D15FF0030C11
:104BE00001E05FF0040C12F003085FFA88F85FEA56
:104BF00088081CFA08FC5CEA0505DFF82CC15FEAAE
:104C000092084CF82850D1F804C05FEACC3C0AD591
:104C1000DFF828C1DCF800C054EA0C0CDFF81C8176
:104C2000C8F800C009E0DFF814C1DCF800C03CEAB5
:104C3000040CDFF80881C8F800C0D1F804C05FEAAE
:104C40008C3C0AD5DFF8F8C0DCF800C054EA0C0C44
:104C5000DFF8EC80C8F800C009E0DFF8E4C0DCF859
:104C600000C03CEA040CDFF8D880C8F800C0D1F8D6
:104C700004C05FEACC2C0AD5DFF8C8C0DCF800C05D
:104C800054EA0C0CDFF8BC80C8F800C009E0DFF87B
:104C9000B4C0DCF800C03CEA040CDFF8A880C8F817
:104CA00000C0D1F804C05FEA8C2C0AD5DFF898C0A8
:104CB000DCF800C054EA0C0CDFF88C80C8F800C0A7
:104CC00009E0DFF884C0DCF800C03CEA040CDFF83F
:104CD0007880C8F800C0521CAFE6BDE8F181020040
:104CE000936889B20B4202D00123180001E000232F
:104CF0001800C0B27047D2B2002A02D089B2016156
:104D000002E089B20B04036170470000000011103B
:104D100000001210000021100000221000003110CD
:104D20000000321018100240080001400008014045
:104D3000000C01400010014000140140000401403B
:104D400004040140080401400C0401400100002259
:104D5000002901D1012034E00868DFF8A0321818DA
:104D60001423B0FBF3F080000864DFF89402C863FA
:104D7000022081F821000868006802006FF30D121C
:104D800048688B681843CB6818430B6918434B6914
:104D900018438B691843CB691843024308680260C3
:104DA000002088620020C862002008630020486359
:104DB00000208863012081F82100002081F8200074
:104DC000002070472DE9F04104000D0016001F007F
:104DD0005FF0000894F82000012801D102203BE098
:104DE000012084F8200094F8210001282DD1022010
:104DF00084F821000020A06320680068400840007B
:104E0000216808603B0032002900200000F008F90A
:104E1000E06A002806D02068006850F00E00216883
:104E200008600BE02068006830F00400216808602A
:104E30002068006850F00A00216808602068006857
:104E400050F001002168086004E0002084F8200090
:104E5000022080464046C0B2BDE8F081010000203B
:104E60000A68126832F00E020B681A600A6812684B
:104E7000520852000B681A6001220B6C9A40CB6BEF
:104E80005A60012281F82120002281F82020C0B23E
:104E9000704770B50400E06B056820680668042060
:104EA000216C884005423ED070073CD520680068E0
:104EB000800605D42068006830F00400216808608E
:104EC00020685049884201D1042023E020684E49DF
:104ED000884201D140201DE020684C49884202D11F
:104EE0004FF4806016E020684949884202D14FF4AF
:104EF00080400FE020684749884202D15FF480205B
:104F000008E020684449884202D15FF4800001E053
:104F10005FF0806041490860E06A00286DD02000A1
:104F2000E16A884769E00220216C8840054244D04C
:104F3000B00742D520680068800608D42068006861
:104F400030F00A0021680860012084F82100206800
:104F50002C49884201D1022023E020682A49884256
:104F600001D120201DE020682849884202D14FF459
:104F7000007016E020682649884202D14FF40050A4
:104F80000FE020682349884202D15FF4003008E036
:104F900020682149884202D15FF4001001E05FF0EF
:104FA00000701E490860002084F82000A06A0028D4
:104FB00023D02000A16A88471FE00820216C884088
:104FC00005421AD0300718D52068006830F00E006E
:104FD000216808600120216C8840E16B4860012055
:104FE000A063012084F82100002084F82000206BB9
:104FF000002802D02000216B884770BDF8FFFDBF5C
:1050000000000240080002401C0002403000024044
:1050100044000240580002406C000240040002407C
:1050200030B40124056CAC40C56B6C6004686360EF
:105030004468102C04D10468A2600468E16003E0B5
:105040000468A1600468E26030BC704780B5FFF777
:105050000FFC00F0B1F800F059F900F0A3F900F0EE
:10506000B9F900F01BFA01BD00B599B014A82249A6
:105070001422FDF7F9FA002114A800F04DFA1F4997
:1050800008600FA81E491422FDF7EEFA00210FA8B0
:1050900000F042FA1B4908600AA81B491422FDF7D8
:1050A000E3FA00210AA800F037FA1849086005A8B9
:1050B00017491422FDF7D8FA002105A800F02CFAB0
:1050C00014490860684614491422FDF7CDFA0021FE
:1050D000684600F021FA1149086019B000BD80B59A
:1050E000FFF7B4FFFFF7C0FF00F011FAFEE70C4A2C
:1050F00010600C4A1180FEE748E7000810240020E9
:105100005CE700081424002070E700081824002041
:1051100084E700081C24002098E7000820240020D1
:10512000242400209624002070B588B004000025B7
:105130000026002221001920FFF72EFC1920FFF77E
:105140003EFC1948006850F4006017490860164892
:10515000006810F400600090009801A902A8FFF711
:1051600035FBFFF728FB05001048B5FBF0F0401EAB
:1051700006000F480F49086040F2E7300D49C8604B
:105180000C48466000200B490861002009498860EE
:10519000084800F0EFF9002803D1064800F007FAAC
:1051A00000E0012008B070BD1810024040420F001E
:1051B000002C0140E422002000B593B002200990A9
:1051C00001200D9010200E900020109009A8FEF7ED
:1051D000BBFF002803D017213D48FFF788FF0F20B1
:1051E00004900020059000200690002007900020E9
:1051F0000890002104A8FFF7D2F9002803D0252148
:105200003348FFF774FF02200090002002906846A8
:1052100000F0D6FA002803D02C212D48FFF767FFB5
:10522000FFF7BBFA4FF47A71B0FBF1F0FFF7D2FB56
:105230000420FFF7D5FB00220F215FF0FF30FFF7BE
:10524000ABFB13B000BD2348006823490978081858
:1052500020490860214800681F49097808181F493B
:1052600008601E480068B0F57A7F0CD31B480068C0
:10527000B0F5FA6F07D24FF4FA60184908600120C0
:10528000174908700BE01548006840F6B8318842AD
:1052900005D30020114908600020114908707047AB
:1052A00010B5040020680F49884201D1FFF7CBFFF9
:1052B00010BD10B50400FFF770FA0B49B0FBF1F018
:1052C000A4B26043002801D0401EFBE710BD0000DF
:1052D00078E500082C2400205C0200203024002007
:1052E0009C240020002C014040420F0010B5040017
:1052F000FFF753FA4FF47A71B0FBF1F0A4B26043B8
:10530000002801D0401EFBE710BD000000B585B0AD
:105310002148006850F004001F4908601E480068DA
:1053200010F00400009000981B48006850F008003E
:10533000194908601848006810F0080000900098AB
:1053400001224FF487611548FFF7D5FC4FF48760C1
:10535000019001200290002003900320049001A9F5
:105360000E48FFF75FFB4FF4407001900020029061
:105370000020039001A90948FFF754FB4FF4504067
:105380000190002002900020039001A90448FFF73B
:1053900049FB05B000BD00BF1810024000080140E5
:1053A000000C014080B50A48006850F0010008492F
:1053B00008600748006810F0010000900098002283
:1053C00005210B20FFF7E8FA0B20FFF7F8FA01BDE3
:1053D00014100240E0B52B482B49086000202A49F0
:1053E000886001202849C8600020274948615FF48F
:1053F00060202549C86100202349486001202249D6
:105400000861214800F0FEFA002803D01D211F4842
:10541000FFF76DFE01200090012001900020029016
:105420006946194800F001FD002803D027211748DC
:10543000FFF75DFE144800F04DFE07BD0020C0B22E
:105440007E2809DA1249C0B251F82010114AC0B2C0
:1054500042F82010401CF2E7704710B50400FFF737
:10546000EDFF01200C49087010BD80B57E2208496F
:10547000054800F06BFB01BD80B5034800F01EFC41
:1054800001BD00000024014024230020E8E50008BD
:10549000581E0020601C00209824002080B513486E
:1054A0001349086013481249486000201049886079
:1054B00000200F49C8604FF480400D49086100206A
:1054C0000B49486100200A49886100200849C861E9
:1054D0000020074908620648FDF788FE002803D02F
:1054E00016210548FFF703FE01BD00BF0054004030
:1054F0004C220020A08601001CE6000801000020CC
:1055000009B2842902D009B2CA1C1018704780B5AC
:1055100000F083FF002002BD3EB504000D00B4F989
:105520000800FFF7EBFF02A9019100902B00226910
:1055300092B22168606800F047FE012801D0002087
:1055400000E002983EBD38B504000120B4FBF0F540
:10555000002D01D0280000E0012000F037FF0020DE
:1055600032BD80B501F088F9012801D001F0AFFA11
:1055700001BD000010B50400002C01D1012014E091
:1055800094F83D00002805D1002084F83C0020005C
:1055900000F00CF8022084F83D00211D206800F086
:1055A000D4F8012084F83D00002010BD70470100B0
:1055B0000868C06850F001000A68D0600868006898
:1055C00050F001000A6810600020704710B5040018
:1055D0002068006980071AD52068C068800716D542
:1055E0007FF002002168086101202077206880692F
:1055F00010F0030F03D0200000F0A4F805E0200015
:1056000000F09FF8200000F09EF80020207720682E
:10561000006940071AD52068C068400716D57FF09A
:10562000040021680861022020772068806910F456
:10563000407F03D0200000F085F805E0200000F056
:1056400080F8200000F07FF80020207720680069B3
:1056500000071AD52068C068000716D57FF008003B
:1056600021680861042020772068C06910F0030FCA
:1056700003D0200000F066F805E0200000F061F89B
:10568000200000F060F80020207720680069C00644
:105690001AD52068C068C00616D57FF010002168B2
:1056A0000861082020772068C06910F4407F03D08B
:1056B000200000F047F805E0200000F042F820004C
:1056C00000F041F80020207720680069C0070AD563
:1056D0002068C068C00706D57FF001002168086116
:1056E0002000FFF7DDFD2068006900060AD520686C
:1056F000C068000606D57FF08000216808612000A0
:1057000001F019FA2068006940060AD52068C068CF
:10571000400606D57FF0400021680861200000F0B7
:1057200013F82068006980060AD52068C0688006E2
:1057300006D57FF0200021680861200001F0FAF909
:1057400010BD7047704770477047002203681A0009
:10575000184B984208D0B0F1804F05D0164B9842B4
:1057600002D0164B984203D132F070024B681A43B4
:10577000104B984208D0B0F1804F05D00E4B9842A4
:1057800002D00E4B984203D132F44072CB681A43D8
:1057900032F080024B691A4302608B68C3620B6867
:1057A0008362044B984201D10B6903630123436177
:1057B00070470000002C0140000400400008004039
:1057C000F8B50400002500262078C00766D500271C
:1057D00081480068C0000DD47F48006850F08050B8
:1057E0007D4908607C48006810F080500090009867
:1057F0000120070079480068C00513D47748006885
:1058000050F4807075490860FFF743F8050073484D
:105810000068C00506D4FFF73CF8401B6528F6D3A6
:10582000032052E06E48006810F440700600002E1D
:1058300023D0606810F4407086421ED0684800682B
:1058400030F4407006000120664908600020654978
:10585000086063480660F0070FD5FFF71AF80500E7
:105860005F480068800708D4FFF713F8401B41F237
:1058700089318842F4D3032027E05948006830F486
:1058800040706168084356490860FFB2012F05D196
:105890005148006830F080504F49086020788007F8
:1058A00007D55148006830F44040A16808434E498C
:1058B00008602078C00607D54B48006830F48000A7
:1058C000E1680843484908600020F2BD2DE9F04333
:1058D00085B0040001A845491022FCF7C5FE4448E4
:1058E0000088ADF800000025002600275FF00008C2
:1058F0005FF000092000012832D002285BD0102878
:1059000065D13948006880463A480068C00126D50C
:1059100001A8C8F38341085C07005FEAC8300FD5CF
:10592000684631490968C1F34041085C05005FEAF7
:10593000C83009D53048B0FBF5F07843060003E0E5
:105940002E4800FB07F0060027480068400201D5FA
:10595000B14604E070000321B0FBF1F0814636E06F
:105960001F480068804640F2023010EA0800B0F597
:10597000817F03D14FF4004081461BE018F4407052
:10598000B0F5007F07D11E480068800703D549F6AF
:10599000404081460EE018F44070B0F5407F07D1DA
:1059A00014480068800303D54FF22440814601E08B
:1059B000002081460BE0FEF7FEFE0B490968C1F3AB
:1059C0008131491C4900B0FBF1F08146FFE74846B0
:1059D00005B0BDE8F08300001C10024000700040DC
:1059E00020100240400442420410024084E80008B3
:1059F000BE2600080010024000127A0000093D0097
:105A0000241002402DE9F041040000250026002763
:105A10005FF00008002C01D1012095E0A06800286B
:105A200001D060690028A06A002807D10020E06248
:105A3000002084F824002000FEF7F2FA200000F095
:105A4000E1FA0500A06AC00676D4EDB2002D73D14C
:105A5000A06A30F4885050F00200A0626068E169EA
:105A60000843E16850EA41000743A068B0F5807F31
:105A700002D0A068012802D14FF4807000E000201D
:105A800006436069012811D1E068002806D1A069A9
:105A9000401E400350F40060064307E0A06A50F047
:105AA0002000A062E06A50F00100E06220684068D7
:105AB00030F4694030432168486020688068DFF82E
:105AC00024150840384321688860A068B0F5807FBD
:105AD00002D0A068012802D14FF4807000E00020BD
