:020000040800F2
:100000001804002075350008693200086B320008BA
:10001000733200087B3200088332000800000000C1
:10002000000000000000000000000000BF0D0008FC
:100030008B32000800000000790D00088D320008A6
:10004000B5350008B9350008BD350008C1350008D0
:10005000C5350008C9350008CD350008D135000880
:10006000D5350008D9350008DD350008953200087F
:10007000E1350008E5350008E9350008ED350008F0
:10008000F1350008F5350008F9350008FD350008A0
:100090000136000805360008093600080D3600084C
:1000A00011360008A5320008153600081936000878
:1000B0001D360008213600082536000829360008BC
:1000C0002D3600083136000835360008393600086C
:1000D0003D3600084136000845360008493600081C
:1000E0004D36000851360008553600082DE9F04F0E
:1000F00085B004000D0016001F00DDF83880DDF823
:100100003C90B6B2B00000F0D5FB8346BBF1000FC7
:100110000DD0542000F0CEFB8246BAF1000F02D081
:10012000CAF830B005E0584600F050FC01E000206D
:100130008246BAF1000F14D000200390CDF808A039
:10014000CDF80490CDF800803B00B6B23200290013
:10015000200000F00DF8504600F06EF801200490E9
:1001600002E05FF0FF300490049805B0BDE8F08F26
:100170002DE9F14F0C0015001E000A9FDDF82C80C0
:10018000DDF83090D9F8300010EB8500001F824672
:100190005FEADA0A5FEACA0A1AF00700002807D005
:1001A000502080F31188BFF34F8FBFF36F8FFEE7AE
:1001B00000208346BBF1100F0CD21BF804001BEB90
:1001C000090181F834001BF80400002802D01BF15B
:1001D000010BEFE7002089F84300072F01D3062029
:1001E0000700C9F82C70C9F844700020C9F848000D
:1001F00019F1040000F0ADFC19F1180000F0A9FCA1
:10020000C9F81090D7F10700C9F81800C9F8249070
:100210000020C9F84C00002089F8500032000099F5
:10022000504600F0D7FCC9F80000B8F1000F01D02B
:10023000C8F80090BDE8F18F10B5040000F033FD60
:10024000DFF818040068401CDFF810140860DFF8BD
:100250001004006800280AD1DFF804040460DFF805
:10026000FC030068012811D100F014FA0EE0DFF859
:10027000F4030068002809D1E06ADFF8E413096894
:10028000C96A884202D3DFF8D8030460DFF8D803D4
:100290000068401CDFF8D0130860DFF8F403006842
:1002A0000121E26A91400843DFF8E4130860211D50
:1002B000DFF83404E26A142303FB020000F04CFC74
:1002C00000F00EFDDFF89C03006800280FD0DFF877
:1002D00090030068C06AE16A884208D25FF08050EB
:1002E000DFF8E0140860BFF34F8FBFF36F8F10BDCE
:1002F00038B504000025002C15D0DFF89C040068F8
:10030000002807D0502080F31188BFF34F8FBFF330
:100310006F8FFEE700F047F80021200000F068FA38
:1003200000F049F80500002D08D15FF08050DFF89B
:1003300094140860BFF34F8FBFF36F8F31BD1CB5AE
:10034000DFF88C0401900020009000234022DFF8A9
:1003500084140FF21930FFF7C9FE0400012C16D1E6
:10036000502080F31188BFF34F8FBFF36F8F5FF082
:10037000FF30DFF8641408600120DFF8E81208603D
:100380000020DFF85C14086000F049FC0AE014F17A
:10039000010F07D1502080F31188BFF34F8FBFF3B7
:1003A0006F8FFEE713BDDFF8F0030068401CDFF835
:1003B000E8130860704770B500240025DFF8D80303
:1003C0000068002807D1502080F31188BFF34F8FB9
:1003D000BFF36F8FFEE700F066FCDFF8BC03006838
:1003E000401EDFF8B4130860DFF8AC030068002893
:1003F0005CD1DFF868020068002857D0DFF8CC0332
:10040000006800282AD0DFF8C403C068C068040070
:1004100014F1180000F0C9FB201D00F0C6FBDFF846
:10042000700200680121E26A91400843DFF860121F
:100430000860211DDFF8B002E26A142303FB02000A
:1004400000F08AFBE06ADFF818120968C96A88427E
:10045000D4D30120DFF81C140860CFE7002C01D0B2
:1004600000F082F9DFF874030668002E0ED000F069
:1004700021F8002803D00120DFF8F8130860761E69
:10048000002EF4D10020DFF854130860DFF8E403F5
:10049000006800280AD0012005005FF08050DFF8D6
:1004A00024130860BFF34F8FBFF36F8F00F018FC69
:1004B000280070BD2DE9F0410026DFF8DC0200685D
:1004C000002840F08080DFF818030068471CDFF840
:1004D00010030760002F24D1DFF8080300680068CC
:1004E000002807D0502080F31188BFF34F8FBFF34F
:1004F0006F8FFEE7DFF8EC0200688046DFF8E80265
:100500000068DFF8E0120860DFF8DC02C0F8008065
:10051000DFF8D8020068401CDFF8D012086000F055
:1005200023F9DFF8B402006887423ED3DFF8B40253
:1005300000680068002805D15FF0FF30DFF89812EE
:10054000086032E0DFF89C020068C068C068040000
:1005500060680500AF4203D2DFF87C02056024E04A
:10056000201D00F022FBA06A002803D014F118001F
:1005700000F01BFBDFF8180100680121E26A9140DE
:10058000084343490860211DDFF85C01E26A142337
:1005900003FB020000F0E0FAE06A31490968C96A29
:1005A0008842C3D301200600C0E7DFF83C012C4994
:1005B0000968C96A142202FB01000068022809D3F5
:1005C0000120060006E0DFF814020068401CDFF896
:1005D0000C120860DFF89C020068002801D001209E
:1005E00006003000BDE8F081DFF8AC0100680028AB
:1005F00004D00120DFF87C1208602DE00020DFF835
:100600007412086022490968B1FA81F1D1F11F0121
:1006100008003549142202FB00110968002907D19E
:10062000502181F31188BFF34F8FBFF36F8FFEE727
:100630002D4A142303FB002211004A6852684A60C5
:100640004A6811F108039A4202D14A6852684A6026
:100650004968C968024A116070470000F41600201A
:10066000E4160020001700201017002010B5040029
:1006700000F03EF81C4800680228F9D35FF0805073
:10068000DFF800120860BFF34F8FBFF36F8FEFE703
:10069000FC16002010B500200400072C07D21248D9
:1006A000142101FB040000F045FA641CF5E7DFF8B3
:1006B000D80100F03FFADFF8D40100F03BFADFF890
:1006C0000C0100F037FA094800F034FA3E4800F017
:1006D00031FADFF8B401DFF80C110860DFF8AC0183
:1006E000DFF8AC11086010BD181400208816002037
:1006F00038B5DFF8A001006800282BD0FFF753FEC3
:10070000DFF894010068002801D1012400E00024F2
:10071000FFF751FE002CECD100F0C5FADFF87801AC
:10072000C068C0680500281D00F03FFADFF84C01E2
:100730000068401EDFF844110860DFF858010068C7
:10074000401EDFF85011086000F0CAFA280000F0DF
:1007500002F8CEE731BD10B50400206B00F036F989
:10076000200000F033F910BDDFF87810096809683F
:10077000002905D15FF0FF31DFF85C20116009E04E
:10078000DFF860100968C968C96808004168DFF8C7
:1007900048201160704700001C170020DFF8FC1093
:1007A0000968002902D10121080009E0DFF8F010F2
:1007B0000968002902D10221080001E00021080097
:1007C0007047000004ED00E09C1600207416002025
:1007D00018170020A4350008141700200417002063
:1007E000F8160020E8160020EC1600200C17002058
:1007F000F8B504000D002048076821480068001D76
:1008000000F0D3F900280BD11D480068254909687C
:100810000122C06A12FA00F031EA000021490860A2
:1008200014F1010F08D1002D06D015480068011DF4
:100830001D4800F091F91BE0E0190600104800681F
:100840004660BE4207D20E480068011D104800688D
:1008500000F08EF90CE00A480068011D134800689A
:1008600000F086F912480068864201D210480660FE
:10087000F1BD000008170020F8160020F416002033
:10088000E416002004ED00E04C1600206016002065
:10089000EC160020F016002088160020001700201B
:1008A0001C170020FC1600209C160020E8160020D3
:1008B000141700202DE9F04104005FF00008FFF755
:1008C00072FD95480068002801D100F0BBF89348FC
:1008D0000068044269D1002C15D0914800680419C1
:1008E00014F0070F0FD014F1080014F00701441A98
:1008F00014F0070F07D0502080F31188BFF34F8FFB
:10090000BFF36F8FFEE7002C4FD086480068A042EF
:100910004BD3854806008448006805006868A042FB
:1009200005D22868002802D02E002D68F6E77A4804
:100930000068854239D030687949096808188046CE
:10094000286830607648006840006968091B884262
:1009500014D26019070017F00700002807D05020B4
:1009600080F31188BFF34F8FBFF36F8FFEE7686886
:10097000001B78606C60380000F09BF869480068E4
:100980006968401A674908606648006867490968ED
:10099000884203D2634800686449086068685F4918
:1009A00009680843686000202860FFF704FD18F01C
:1009B0000700002807D0502080F31188BFF34F8F25
:1009C000BFF36F8FFEE74046BDE8F08170B50400CD
:1009D0002600002C35D052480068361A3500686869
:1009E0004E490968084207D1502080F31188BFF3AF
:1009F0004F8FBFF36F8FFEE72868002807D0502085
:100A000080F31188BFF34F8FBFF36F8FFEE76868E5
:100A100042490968084214D02868002811D1686842
:100A20003E49096888436860FFF7BDFC3D4800689F
:100A3000696808183B490860280000F03AF8FFF799
:100A4000BAFC70BD30B44FF48053394C220012F020
:100A5000070F05D0D21DD208D2009B1A344CE318E0
:100A60001100314C216000242F4D6C605C18220075
:100A70002B4C2468121BD208D200274C2260002481
:100A8000254D2D686C600024234D2D682C600800D6
:100A9000141A4460204C246804604468234D2C6080
:100AA0004468204D2C605FF000441C4D2C6030BC2D
:100AB000704710B41C4B1A001368834201D21268AD
:100AC000FAE7110053685B18834204D15368446805
:100AD000E31853601000010043685B181468A342D8
:100AE00011D113680C4C2468A34208D043681468E1
:100AF0006468E318436013681B68036005E0064BF5
:100B00001B68036001E013680360824200D010603C
:100B100010BC704700000000B8160020C41600206A
:100B2000AC350008BC160020B0160020C01600200E
:100B30001804002010F1080141605FF0FF3181606E
:100B400010F10801C16010F108010161002101608C
:100B5000704700210161704742684A6093688B606A
:100B6000936859609160086103685B1C036070477B
:100B700010B40B6813F1010F02D10469220008E0E0
:100B800010F10804220054682468A34201D352687B
:100B9000F9E754684C604C68A1608A605160086154
:100BA0000468641C046010BC7047010008698A680E
:100BB0004B689A604A688B685A6042688A4201D1E1
:100BC0008A68426000220A610268521E0260006860
:100BD00070470102001F5FF080730360001F4B0825
:100BE0005B000360001F0FF20D0303601438026006
:100BF000203870475748006810F1010F07D0502087
:100C000080F31188BFF34F8FBFF36F8FFEE7502043
:100C100080F31188BFF34F8FBFF36F8FFEE700B5EE
:100C200083B04D4801780191FF21017001788DF862
:100C300000109DF8001011F05001484A1170072172
:100C4000474A11609DF8001009060AD54449096811
:100C5000491E434A11609DF8001049008DF80010AC
:100C6000F0E73F49096809023D4A11603C490968BB
:100C700011F4E0613A4A1160019901703948006845
:100C800050F47000374908603648006850F07040F2
:100C90003449086000F051F800202E49086000F047
:100CA0009EF800200EBD502080F31188BFF34F8FB7
:100CB000BFF36F8F27480068401C2649086025480D
:100CC000006801280BD128480068000607D0502092
:100CD00080F31188BFF34F8FBFF36F8FFEE770472C
:100CE0001C480068002807D1502080F31188BFF30A
:100CF0004F8FBFF36F8FFEE716480068401E1549FF
:100D0000086014480068002802D1002080F3118890
:100D1000704780B5502080F31188BFF34F8FBFF329
:100D20006F8FFFF7C7FB002803D05FF080500E499C
:100D30000860002080F3118801BD0C4800684FF462
:100D40007A71B0FBF1F0401E09490860072009499B
:100D5000086070470000002000E400E02317002036
:100D6000D416002020ED00E004ED00E00400002097
:100D700014E000E010E000E0EFF30980BFF36F8FB4
:100D80001D4B1A6820E9F00F106008B54FF05000B5
:100D900080F31188BFF34F8FBFF36F8FFFF724FCF1
:100DA0004FF0000080F31188BDE80840196808681A
:100DB000B0E8F00F80F30988BFF36F8F70470E4BD8
:100DC00019680868B0E8F00F80F30988BFF36F8FE7
:100DD0004FF0000080F311884EF00D0E7047074869
:100DE0000068006880F3088862B661B6BFF34F8F71
:100DF000BFF36F8F00DF0000E416002008ED00E075
:100E000070B582B0040000252078C00740F18480CE
:100E1000DFF8D406006810F00C0004280BD0DFF8CF
:100E2000C806006810F00C0008280ED1DFF8B806DC
:100E30000068C00309D5DFF8AC06006880036BD5F5
:100E40006068002868D1012004E26068B0F5803F46
:100E500008D1DFF89006006850F48030DFF884167F
:100E6000086038E06068002810D1DFF87806006874
:100E700030F48030DFF86C160860DFF86806006830
:100E800030F48020DFF85C16086024E06068B0F57C
:100E9000A02F10D1DFF84C06006850F48020DFF856
:100EA00044160860DFF83C06006850F48030DFF834
:100EB000341608600FE0DFF82C06006830F480304C
:100EC000DFF820160860DFF81C06006830F4802088
:100ED000DFF810160860606800280ED000F03DFBB7
:100EE0000500DFF800060068800315D400F035FB2C
:100EF000401B6528F5D30320ACE100F02EFB050074
:100F0000DFF8E0050068800306D500F026FB401BF3
:100F10006528F5D303209DE1207880075CD5DFF8B4
:100F2000C805006810F00C0F0BD0DFF8BC05006896
:100F300010F00C0008281AD1DFF8AC050068C003D7
:100F400015D4DFF8A0050068800704D520690128C2
:100F500001D001207EE1DFF88C05006830F0F80058
:100F6000616950EAC100DFF87C15086034E020694F
:100F700000281ED00120DFF88015086000F0EDFA8F
:100F80000500DFF860050068800706D400F0E5FA88
:100F9000401B0328F5D303205CE1DFF84805006817
:100FA00030F0F800616950EAC100DFF838150860D8
:100FB00012E00020DFF84015086000F0CEFA0500CE
:100FC000DFF820050068800706D500F0C6FA401B50
:100FD0000328F5D303203DE1207800072CD5A06934
:100FE000002816D00120DFF81415086000F0B5FACB
:100FF0000500DFF800050068800706D400F0ADFAB0
:10100000401B0328F5D3032024E1012000F057FA08
:1010100012E00020DFF8E414086000F09EFA0500FA
:10102000DFF8D0040068800706D500F096FA401B70
:101030000328F5D303200DE12078400740F1A78075
:101040000026DFF8BC040068C00010D4DFF8B0044C
:10105000006850F08050DFF8A8140860DFF8A004A2
:10106000006810F080500090009801200600DFF822
:1010700094040068C00516D4DFF88804006850F4B2
:101080008070DFF88014086000F067FA0500DFF870
:1010900074040068C00506D400F05FFA401B6528A0
:1010A000F5D30320D6E0E068012808D1DFF8580422
:1010B000006850F00100DFF85014086037E0E06885
:1010C000002810D1DFF84004006840084000DFF835
:1010D00038140860DFF83004006830F00400DFF8EE
:1010E0002814086023E0E068052810D1DFF8180410
:1010F000006850F00400DFF810140860DFF80804FE
:10110000006850F00100DFF8001408600FE0DFF81D
:10111000F803006840084000DFF8EC130860DFF8CF
:10112000E803006830F00400DFF8DC130860E068D2
:10113000002810D000F011FA0500DFF8CC03006899
:10114000800719D400F009FA401B41F28931884226
:10115000F3D303207EE000F000FA0500DFF8A803D7
:101160000068800708D500F0F8F9401B41F289318A
:101170008842F3D303206DE0F6B2012E07D1DFF8E9
:101180008003006830F08050DFF874130860E06975
:1011900000285ED0DFF85003006810F00C0008282B
:1011A00055D0E06902283FD10020DFF860130860C5
:1011B00000F0D3F90500DFF82C030068800106D5A4
:1011C00000F0CBF9401B0328F5D3032042E0206A4E
:1011D000B0F5803F09D1DFF81003006830F400302B
:1011E000A1680843DFF800130860DFF8FC0200681C
:1011F00030F47410216A0843616A0843DFF8E8128A
:1012000008600120DFF80413086000F0A6F905006B
:10121000DFF8D002006880011BD400F09EF9401B6B
:101220000328F5D3032015E00020DFF8E012086062
:1012300000F093F90500DFF8AC020068800108D5E2
:1012400000F08BF9401B0328F5D3032002E00120B6
:1012500000E0002076BD70B504000D000026DFF828
:10126000B002006810F00700A84211D2DFF8A00217
:101270000068C008C0002843DFF894120860DFF857
:101280009002006810F00700A84201D00120A3E0FE
:101290002078800709D5DFF85002006830F0F000B0
:1012A000A1680843DFF8401208602078C00758D5CD
:1012B0006068012806D1DFF82C020068800312D490
:1012C000012089E06068022806D1DFF81802006872
:1012D000800108D401207FE0DFF808020068800761
:1012E00001D4012078E0DFF8000200688008800067
:1012F000616808437C49086000F02FF906006068C7
:1013000001280ED17848006810F00C00042828D07D
:1013100000F023F9801B41F289318842F2D3032087
:101320005AE0606802280ED16F48006810F00C0087
:10133000082816D000F011F9801B41F2893188424B
:10134000F2D3032048E06848006810F00C0F08D082
:1013500000F003F9801B41F289318842F3D3032066
:101360003AE06B48006810F0070085420ED26848EA
:101370000068C008C00028436549086064480068E8
:1013800010F00700A84201D0012025E02078400796
:1013900007D55548006830F4E060E16808435249D9
:1013A00008602078000708D54F48006830F4605086
:1013B000216950EAC1004C49086000F00EF8554917
:1013C000494A1268C2F30312515CC8404849086098
:1013D000002000F0CBF8002070BD70B586B001A8E9
:1013E0004D49102200F01AF94C480088ADF8000071
:1013F000002100220023002400203B4D2D682900FD
:1014000011F00C05042D02D0082D03D01DE0374D3E
:1014100028001CE001ADC1F38346755D2C00CD03AF
:101420000DD56D46304E3668C6F34046755D2A00D0
:101430002E4D05FB04F5B5FBF2F52B0003E0384D0E
:1014400005FB04F52B00180001E0284D280006B02C
:1014500070BD27480068704780B5FFF7FAFF314933
:10146000214A1268C2F30222515CC84002BD80B515
:10147000FFF7EFFF2B491C4A1268C2F3C222515CEE
:10148000C84002BD0F220260174A126812F0030220
:101490004260154A126812F0F0028260124A126825
:1014A00012F4E062C260104A1268D20812F4E062DC
:1014B0000261174A126812F007020A60704781B091
:1014C0000B490968C9084FF47A72B1FBF2F101FBCC
:1014D00000F1009100BF00994A1E00920029F9D145
:1014E00001B07047001002400410024000127A0060
:1014F00004000020241002400000424280044242C6
:101500001C10024000700040201002406000424267
:10151000002002406435000844350008D20B000862
:1015200000093D009C35000880B50D48006850F06A
:1015300010000B490860032000F012F9002000F0B1
:1015400015F800F059F9002002BD07480068054968
:101550000978081804490860704703480068704714
:101560000020024012000020D816002070B588B07C
:1015700004000025002600222100192000F0F6F8C2
:10158000192000F006F91948006850F40060174966
:1015900008601648006810F400600090009801A9E7
:1015A00002A8FFF76FFFFFF762FF05001048B5FBC9
:1015B000F0F0401E06000F480F49086040F2E73087
:1015C0000D49C8600C48466000200B4908610020A6
:1015D00009498860084800F0F3F9002803D106485B
:1015E00000F00BFA00E0012008B070BD18100240B6
:1015F00040420F00002C0140DC15002062B38B0735
:1016000008D0521E11F8013B00F8013B00F0248085
:101610008B07F6D1830740F0208000BF103A07D334
:1016200030B4B1E83810103AA0E83810F9D230BC24
:10163000530724BFB1E80810A0E8081044BF51F8D0
:10164000043B40F8043BD20724BF31F8022B20F8BA
:10165000022B44BF0B7803707047083A07D3B1E8F8
:101660000810083A40F8043B40F804CBF7D253077F
:10167000E4E7010210F00702564B1B6819004FF611
:10168000FF031940544B53EA02231943514B19608D
:10169000704750480068C0F302207047012110F0E5
:1016A0001F0291404D4A40B2430942F8231070474F
:1016B00010B440B2002808D50A01494B40B210F0DE
:1016C0000F04E31803F8042C03E00A01454B40B271
:1016D000C25410BC704770B4030013F00704D4F177
:1016E0000706052E01D3042001E0D4F10700261DD2
:1016F000072E01D2002500E0E51E012616FA00F0B3
:10170000401E0840A8400121A940491E114008433D
:1017100070BC7047BFF34F8F2E48006810F4E06034
:10172000314908432B490860BFF34F8F00BFFDE7E5
:1017300010B50400601EB0F1807F01D301200EE0DF
:10174000601E2A4908600F215FF0FF30FFF7B0FFED
:10175000002027490860072026490860002010BDA6
:1017600010B504002000FFF785FF10BDF8B5040098
:101770000D0016000027FFF78CFF0700320029003C
:101780003800FFF7A8FF0100200040B2FFF790FFEC
:10179000F1BD10B50400200040B2FFF77FFF10BD7F
:1017A00080B5FFF7B7FF01BD10B504002000FFF7BB
:1017B000BFFF10BD042806D10E49096851F004018D
:1017C0000C4A116005E00B49096831F00401094A2F
:1017D000116070470CED00E00000FA0500E100E048
:1017E00018ED00E000E400E00400FA0514E000E079
:1017F00018E000E010E000E080B56648006850F0B6
:101800000100644908606348006810F0010000901E
:1018100000986148006850F080505F4908605E4859
:10182000006810F08050009000980320FFF798FFA8
:10183000002200217FF00B00FFF798FF002200211B
:101840007FF00A00FFF792FF002200217FF00900DD
:10185000FFF78CFF002200217FF00400FFF786FFD6
:10186000002200217FF00300FFF780FF00220F21FC
:101870007FF00100FFF77AFF00220F215FF0FF30B9
:10188000FFF774FF45490968080030F0E06050F048
:1018900000704249086001BD10B586B004002068A0
:1018A0003F4988423CD13B48006850F400703949B8
:1018B00008603848006810F400700090009802201A
:1018C00001900320029001A9364800F09FF93648A4
:1018D0003649086000203549486000203349886057
:1018E00080203249C8604FF48070304908614FF45D
:1018F00000602E49486120202C4988614FF4005037
:101900002A49C861294800F015FB002803D080212E
:10191000274800F043FC254820622448446217E031
:1019200020682449884213D11A48006850F4806026
:10193000184908601748006810F48060009000980B
:10194000012001900320029001A9164800F05EF9E1
:1019500006B010BD10B586B0040020681649884254
:1019600015D1C0200190122002900320049001A9FB
:10197000124800F04BF90848006850F4001006497E
:1019800008600548006810F400100090009806B048
:1019900010BD0000181002401C100240040001405D
:1019A0000024014000080140080002409815002072
:1019B000BC3200080028014000540040000C0140E7
:1019C00010B50400002C01D1012014E094F83D0072
:1019D000002805D1002084F83C00200000F00CF81D
:1019E000022084F83D00211D206800F0D4F8012079
:1019F00084F83D00002010BD704701000868C068F1
:101A000050F001000A68D0600868006850F00100DA
:101A10000A6810600020704710B504002068006953
:101A200080071AD52068C068800716D57FF00200AD
:101A300021680861012020772068806910F0030F79
:101A400003D0200000F0A4F805E0200000F09FF88B
:101A5000200000F09EF800202077206800694007F1
:101A60001AD52068C068400716D57FF004002168A9
:101A70000861022020772068806910F4407F03D03D
:101A8000200000F085F805E0200000F080F820003C
:101A900000F07FF8002020772068006900071AD541
:101AA0002068C068000716D57FF00800216808612B
:101AB000042020772068C06910F0030F03D02000B5
:101AC00000F066F805E0200000F061F8200000F06A
:101AD00060F80020207720680069C0061AD52068C9
:101AE000C068C00616D57FF0100021680861082084
:101AF00020772068C06910F4407F03D0200000F0F8
:101B000047F805E0200000F042F8200000F041F81E
:101B10000020207720680069C0070AD52068C068C7
:101B2000C00706D57FF0010021680861200000F0A1
:101B30008EFB2068006900060AD52068C068000690
:101B400006D57FF0800021680861200000F08DFB41
:101B50002068006940060AD52068C068400606D59E
:101B60007FF0400021680861200000F013F8206831
:101B7000006980060AD52068C068800606D57FF017
:101B8000200021680861200000F06EFB10BD704746
:101B9000704770477047002203681A00184B98423C
:101BA00008D0B0F1804F05D0164B984202D0164BAA
:101BB000984203D132F070024B681A43104B98429E
:101BC00008D0B0F1804F05D00E4B984202D00E4B9A
:101BD000984203D132F44072CB681A4332F080024B
:101BE0004B691A4302608B68C3620B688362044BC3
:101BF000984201D10B6903630123436170470000E0
:101C0000002C014000040040000800402DE9F8418C
:101C100000230024002500265FF0000E5FF0000C7A
:101C20006246102A80F04D815FF0010C1CFA02FC24
:101C30006346D1F800C013EA0C0C64469C4240F0A5
:101C40003E81D1F804C0BCF1000F3DD0BCF1010FC2
:101C500024D0BCF1020F2BD0BCF1030F4CD0BCF14F
:101C6000110F1FD0BCF1120F28D0DFF88882C445B5
:101C70002AD0DFF88482C44526D0DFF88082C445AC
:101C800022D0DFF87C82C4451ED0DFF87882C445BC
:101C90001AD0DFF87482C44516D031E0D1F80CC0F8
:101CA00066462DE0D1F80CC01CF1040C664627E016
:101CB000D1F80CC01CF1080C664621E0D1F80CC02C
:101CC0001CF10C0C66461BE0D1F808C0BCF1000FFB
:101CD00003D15FF0040C66460DE0D1F808C0BCF1FA
:101CE000010F04D15FF0080C6646036103E05FF06A
:101CF000080C6646436103E05FF0000C6646FFE7B0
:101D0000FF2C01D8070000E0071DFF2C02D85FEA76
:101D1000820E03E0B2F1080C5FEA8C0ED7F800C027
:101D20005FF00F0818FA0EF83CEA080C16FA0EF8E5
:101D300058EA0C0CC7F800C0D1F804C05FEACC0C1C
:101D400040F1BD80DFF8C4C1DCF800C05CF0010CDC
:101D5000DFF8B881C8F800C0DFF8B0C1DCF800C017
:101D60001CF00108CDF80080DDF800C0DFF8A0C14C
:101D70005FEA92085CF828C065465FF00F0C12F02D
:101D800003085FFA88F85FEA88081CFA08FC35EA5D
:101D90000C05DFF880C1604502D15FF0000C16E051
:101DA000DFF874C1604502D15FF0010C0FE0DFF88D
:101DB0006CC1604502D15FF0020C08E0DFF860C141
:101DC000604502D15FF0030C01E05FF0040C12F0FB
:101DD00003085FFA88F85FEA88081CFA08FC5CEAE6
:101DE0000505DFF82CC15FEA92084CF82850D1F8BD
:101DF00004C05FEACC3C0AD5DFF828C1DCF800C09B
:101E000054EA0C0CDFF81C81C8F800C009E0DFF8C8
:101E100014C1DCF800C03CEA040CDFF80881C8F803
:101E200000C0D1F804C05FEA8C3C0AD5DFF8F8C0E6
:101E3000DCF800C054EA0C0CDFF8EC80C8F800C0F5
:101E400009E0DFF8E4C0DCF800C03CEA040CDFF88D
:101E5000D880C8F800C0D1F804C05FEACC2C0AD5FD
:101E6000DFF8C8C0DCF800C054EA0C0CDFF8BC8016
:101E7000C8F800C009E0DFF8B4C0DCF800C03CEAF4
:101E8000040CDFF8A880C8F800C0D1F804C05FEAED
:101E90008C2C0AD5DFF898C0DCF800C054EA0C0C92
:101EA000DFF88C80C8F800C009E0DFF884C0DCF8F7
:101EB00000C03CEA040CDFF87880C8F800C0521C6F
:101EC000AFE6BDE8F1810200936889B20B4202D00F
:101ED0000123180001E000231800C0B27047D2B2FD
:101EE000002A02D089B2016102E089B20B040361C9
:101EF00070470000000011100000121000002110B7
:101F000000002210000031100000321018100240B2
:101F10000800014000080140000C01400010014091
:101F20000014014000040140040401400804014081
:101F30000C04014001000022002901D1012034E0FD
:101F40000868DFF8D43118181423B0FBF3F08000D0
:101F50000864DFF8C801C863022081F8210008681E
:101F6000006802006FF30D1248688B681843CB6855
:101F700018430B6918434B6918438B691843CB69A5
:101F80001843024308680260002088620020C8628B
:101F9000002008630020486300208863012081F846
:101FA0002100002081F820000020704770B5040057
:101FB000E06B0568206806680420216C88400542B3
:101FC0003ED070073CD520680068800605D42068A4
:101FD000006830F004002168086020685049884299
:101FE00001D1042023E020684E49884201D14020DD
:101FF0001DE020684C49884202D14FF4806016E011
:1020000020684A49884202D14FF480400FE020689E
:102010004749884202D15FF4802008E020684549A2
:10202000884202D15FF4800001E05FF080604249A5
:102030000860E06A00286DD02000E16A884769E006
:102040000220216C8840054244D0B00742D5206868
:102050000068800608D42068006830F00A00216813
:102060000860012084F8210020682D49884201D1B0
:10207000022023E020682B49884201D120201DE066
:1020800020682949884202D14FF4007016E0206888
:102090002649884202D14FF400500FE020682449BD
:1020A000884202D15FF4003008E02068214988426C
:1020B00002D15FF4001001E05FF000701E4908607B
:1020C000002084F82000A06A002823D02000A16A04
:1020D00088471FE00820216C884005421AD030074D
:1020E00018D52068006830F00E00216808600120D3
:1020F000216C8840E16B48600120A063012084F8D6
:102100002100002084F82000206B002802D020004D
:10211000216B884770BD0000F8FFFDBF0000024042
:10212000080002401C00024030000240440002400F
:10213000580002406C0002400400024080B5FFF7E6
:10214000F3F900F03DF800F093F800F0DBF800F050
:10215000F1F800F03DF901BD00B58BB005A81249BA
:102160001422FFF75BFA002105A800F06FF90F4970
:10217000086068460E491422FFF750FA00216846AD
:1021800000F064F90B4908600BB000BD80B5FFF7A3
:10219000D5FFFFF7E1FF00F054F9FEE7064A1060B3
:1021A000064A1180FEE700001C350008C816002012
:1021B00030350008CC160020D01600202017002053
:1021C00000B593B00220099001200D9010200E90D0
:1021D0000020109009A8FEF713FE002803D0152157
:1021E0001F48FFF7DBFF0F20049000200590002020
:1021F00006900020079000200890002104A8FFF717
:102200002AF8002803D023211548FFF7C7FF022032
:10221000009000200290684600F046F9002803D0A4
:102220002A210F48FFF7BAFFFFF713F94FF47A712D
:10223000B0FBF1F0FFF7B8FA0420FFF7BBFA002279
:102240000F215FF0FF30FFF791FA13B000BD10B51A
:10225000040020680349884201D1FFF776F910BDD8
:102260000C330008002C014070477047000000004C
:1022700000B585B02048006850F004001E49086091
:102280001D48006810F00400009000981A4800688B
:1022900050F00800184908601748006810F008005E
:1022A0000090009801224FF487611448FFF717FE51
:1022B0004FF48760019001200290002003900320DA
:1022C000049001A90D48FFF7A1FCC0200190002057
:1022D00002900020039001A90848FFF797FC07200F
:1022E0000190002002900020039001A90448FFF70C
:1022F0008DFC05B000BD00BF181002400008014071
:10230000000C014080B50A48006850F001000849FF
:1023100008600748006810F0010000900098002253
:1023200005210B20FFF722FA0B20FFF732FA01BD3F
:1023300014100240E0B520482049086000201F49E1
:10234000886001201D49C86000201C4948615FF475
:1023500060201A49C86100201849486001201749C7
:102360000861164800F0C2F9002803D01D21144866
:10237000FFF714FF0120009001200190002002903F
:1023800069460E4800F0DAFA002803D027210C48ED
:10239000FFF704FF094800F0DFFB07BDF8B50400B4
:1023A0001425084E084F2A0031003800FFF726F99F
:1023B000012006490870F1BD002401401C160020D0
:1023C0005033000848150020F81400202217002080
:1023D00080B513481349086013481249486000202B
:1023E0001049886000200F49C8604FF480400D49B3
:1023F000086100200B49486100200A4988610020DB
:102400000849C861002007490862064800F01EFC20
:10241000002803D016210548FFF7C0FE01BD00BF0C
:1024200000540040A4140020A0860100903300084E
:102430000100002009B2842902D009B2CA1C101878
:10244000704780B5FDF77BFF002002BD3EB504005C
:102450000D00B4F90800FFF7EBFF02A9019100900D
:102460002B00226992B221686068FDF73FFE0128C7
:1024700001D0002000E002983EBD38B504000120E4
:10248000B4FBF0F5002D01D0280000E00120FDF79D
:102490002FFF002032BD80B5FEF780F9012801D062
:1024A000FEF737FC01BD0000F8B50400002500264A
:1024B0002078C00766D5002781480068C0000DD489
:1024C0007F48006850F080507D4908607C48006873
:1024D00010F08050009000980120070079480068B3
:1024E000C00513D47748006850F4807075490860BF
:1024F000FFF733F8050073480068C00506D4FFF7FE
:102500002CF8401B6528F6D3032052E06E48006883
:1025100010F440700600002E23D0606810F4407064
:1025200086421ED06848006830F4407006000120E2
:102530006649086000206549086063480660F00746
:102540000FD5FFF70AF805005F480068800708D438
:10255000FFF703F8401B41F289318842F4D303208E
:1025600027E05948006830F44070616808435649D4
:102570000860FFB2012F05D15148006830F080504B
:102580004F4908602078800707D55148006830F42B
:102590004040A16808434E4908602078C00607D52E
:1025A0004B48006830F48000E168084348490860FF
:1025B0000020F2BD2DE9F04385B0040001A8454993
:1025C0001022FFF72BF844480088ADF800000025E2
:1025D000002600275FF000085FF0000920000128B6
:1025E00032D002285BD0102865D139480068804677
:1025F0003A480068C00126D501A8C8F38341085CA9
:1026000007005FEAC8300FD5684631490968C1F351
:102610004041085C05005FEAC83009D53048B0FB8E
:10262000F5F07843060003E02E4800FB07F00600B3
:1026300027480068400201D5B14604E0700003213C
:10264000B0FBF1F0814636E01F480068804640F25A
:10265000023010EA0800B0F5817F03D14FF400404A
:1026600081461BE018F44070B0F5007F07D11E488A
:102670000068800703D549F6404081460EE018F413
:102680004070B0F5407F07D114480068800303D53F
:102690004FF22440814601E0002081460BE0FEF726
:1026A000E6FE0B490968C1F38131491C4900B0FBC2
:1026B000F1F08146FFE7484605B0BDE8F083000031
:1026C0001C100240007000402010024040044242B2
:1026D0000410024054350008721600080010024031
:1026E00000127A0000093D00241002402DE9F0415B
:1026F00004000025002600275FF00008002C01D10F
:10270000012095E0A068002801D060690028A06A37
:10271000002807D10020E062002084F82400200077
:10272000FFF7BAF8200000F0F1F90500A06AC00632
:1027300076D4EDB2002D73D1A06A30F4885050F0F9
:102740000200A0626068E1690843E16850EA410064
:102750000743A068B0F5807F02D0A068012802D1AD
:102760004FF4807000E0002006436069012811D119
:10277000E068002806D1A069401E400350F40060C4
:10278000064307E0A06A50F02000A062E06A50F023
:102790000100E0622068406830F4694030432168FD
:1027A000486020688068DFF850130840384321688B
:1027B0008860A068B0F5807F02D0A068012802D1AF
:1027C0004FF4807000E00020B0F5807F03D12069D5
:1027D000401E000580462068C06A30F4700058EA48
:1027E00000002168C86220688068DFF81013084084
:1027F000B84208D10020E062A06A30F0020050F038
:102800000100A06212E0A06A30F0020050F0100057
:10281000A062E06A50F00100E0620120050005E0DE
:10282000A06A50F01000A062012005002800C0B28C
:10283000BDE8F08110B504002068406880062CD502
:1028400020680068800728D5A06AC00603D4A06A63
:1028500050F40070A0622068806810F46020B0F529
:10286000602F13D1E068002810D12068406830F054
:10287000200021684860A06A30F48070A062A06ADD
:10288000C00403D4A06A50F00100A0622000FFF74A
:1028900085FD7FF01200216808602068406800060E
:1028A00037D520680068400733D5A06AC00603D436
:1028B000A06A50F40050A0622068806810F4E040E4
:1028C000B0F5E04F0DD02068406840051AD420686C
:1028D000806810F46020B0F5602F13D1E068002804
:1028E00010D12068406830F0800021684860A06AFC
:1028F00030F48050A062A06AC00503D4A06A50F0F2
:102900000100A062200000F09DF97FF00C0021681A
:1029100008602068406840060ED520680068C0073F
:102920000AD5A06A50F48030A062200000F005F8BB
:102930007FF001002168086010BD704778B4020084
:1029400000230020009092F82400012801D10220E9
:1029500097E0012082F824004868072812D2106806
:10296000406B1F244D686D1E05267543AC40A04387
:102970000C684D686D1E05267543AC4020431468F5
:10298000606327E048680D2812D21068006B1F248E
:102990004D68ED1F05267543AC40A0430C684D689B
:1029A000ED1F05267543AC4020431468206311E0F9
:1029B0001068C06A1F244D680D3D05267543AC4064
:1029C000A0430C684D680D3D05267543AC4020437F
:1029D0001468E06208680A2812D31068C0680724E7
:1029E0000D680A3D03267543AC40A0438C680D6812
:1029F0000A3D03267543AC4020431468E0600FE0B5
:102A00001068006907240D6803267543AC40A04395
:102A10008C680D6803267543AC4020431468206120
:102A20000868102802D00868112825D11068344C95
:102A3000A0421BD11068806800021DD41068806815
:102A400050F400001468A0600868102814D12D48C4
:102A500000682D4CB0FBF4F00A246043009000980D
:102A6000002809D00098401E0090F8E7906A50F0C6
:102A70002000906201200300002082F8240018004A
:102A8000C0B272BC704738B5040000250020009029
:102A900020688068C0072BD42068806850F001004F
:102AA00021688860174800681749B0FBF1F0009072
:102AB0000098002803D00098401E0090F8E7FEF729
:102AC0004CFD050020688068C00711D4FEF745FD65
:102AD000401B0328F6D3A06A50F01000A062E06A01
:102AE00050F00100E062002084F82400012000E0A2
:102AF000002032BD00000000FDF7E1FFFE0E1FFFC9
:102B0000002401400400002040420F0038B50400BA
:102B1000002520688068C0071BD5206880684008B1
:102B2000400021688860FEF718FD05002068806875
:102B3000C0070ED5FEF711FD401B0328F6D3A06A8F
:102B400050F01000A062E06A50F00100E062012045
:102B500000E0002032BD000070B582B00400002506
:102B60000020009094F82400012801D1022068E0A0
:102B7000012084F824002000FFF7C8FF0500EDB213
:102B8000002D59D1A06A30F4885050F00200A062A4
:102B90000220FFF70FFDDFF8B0100968B1FBF0F07D
:102BA000400000900098002803D00098401E00903C
:102BB000F8E72000FFF767FF2068806850F0080002
:102BC00021688860FEF7C9FC06002068806800075D
:102BD0000FD5FEF7C2FC801B0B28F6D3A06A30F09D
:102BE000020050F01000A062002084F824000120B0
:102BF00027E02068806850F0040021688860FEF7B4
:102C0000ACFC06002068806840070FD5FEF7A5FCE5
:102C1000801B0B28F6D3A06A30F0020050F01000A1
:102C2000A062002084F8240001200AE0A06A30F0AD
:102C3000020050F00100A062002084F82400280067
:102C4000C0B276BD704700000400002070B50400DB
:102C500000250026002C01D10120BAE094F83D00A7
:102C6000002805D1002084F83C002000FEF772FE09
:102C7000242084F83D002068006840084000216856
:102C80000860FEF7E9FB06006068DFF8481188423B
:102C900008D2DFF84401864201D2012000E0002082
:102CA000C0B207E0DFF83401864201D2012000E023
:102CB0000020C0B2012801D101208AE0DFF8200104
:102CC000B6FBF0F00500206845606068DFF804118D
:102CD000884201D2681C08E04FF4967000FB05F0B2
:102CE0004FF47A71B0FBF1F0401C21680862606813
:102CF000DFF8E010884214D2701E61684900B0FB12
:102D0000F1F0401C0005000D042801D204203EE033
:102D1000701E61684900B0FBF1F0401C0005000D19
:102D200035E0A068002809D1701E61680322514374
:102D3000B0FBF1F0401C0005000D0AE0701E616858
:102D400019225143B0FBF1F0401C0005000D50F476
:102D50008040000501D1012019E0A068002809D1B8
:102D6000701E616803225143B0FBF1F0401C000566
:102D7000000D0AE0701E616819225143B0FBF1F0AA
:102D8000401C0005000D50F4804050F400402168C4
:102D9000C861E069216A0843216808602069E16828
:102DA0000843216888606069A16908432168C86098
:102DB0002068006850F0010021680860002020644D
:102DC000202084F83D0000202063002084F83E008D
:102DD000002070BDA186010080841E0000093D0016
:102DE00040420F00F8B540217B48FFF76CF8040023
:102DF00080217948FFF767F8050001217748FFF740
:102E000062F8060002217548FFF75DF8070004210B
:102E10007248FFF758F8E4B2002C18D10021704A2C
:102E200011706F4909786F4A11706F49097811F074
:102E30000101002904D06D490988491E6B4A11809F
:102E40006949097851F00101674A11707CE0EDB2DF
:102E5000002D18D10121624A117061490978614A37
:102E600011706149097811F00101002904D05F490E
:102E70000988491E5D4A11805B49097851F00101BA
:102E8000594A117060E0F6B2002E18D10221544A5E
:102E9000117053490978534A11705349097811F058
:102EA0000101002904D051490988491E4F4A118067
:102EB0004D49097851F001014B4A117044E0FFB2CD
:102EC000002F18D10321464A117045490978454A17
:102ED00011704549097811F00101002904D04349D6
:102EE0000988491E414A11803F49097851F0010182
:102EF0003D4A117028E0C0B2002818D10421384A98
:102F0000117037490978374A11703749097811F03B
:102F10000101002904D035490988491E334A11802E
:102F20003149097851F001012F4A11700CE010214C
:102F30002B4A11704FF496712C4A11802A49097856
:102F400011F0FE01284A117028490988002942D150
:102F50002549097811F0010100293CD04FF4967100
:102F6000224A11802049097811F0FE011E4A117091
:102F70001B490978002906D0022914D00BD3042953
:102F800021D018D327E00B21154A11701449097874
:102F9000144A11701FE00C21114A11701049097870
:102FA000104A117017E00D210D4A11700C49097873
:102FB0000C4A11700FE00E21094A11700849097876
:102FC000084A117007E00F21054A11700449097879
:102FD000044A1170FFE7F1BD00080140000C0140F8
:102FE0001300002014000020DC1600201000002038
:102FF00010B50400FFF7F6FE0A20FFF73EFAF9E7E6
:1030000038B504000025E4B2002C03D0022C29D0EE
:1030100014D33BE07448007810F0010000280AD077
:10302000012208217148FEF75AFF6F48007810F01E
:10303000FE006D4908700120050027E06A4800780D
:1030400010F0010000280AD0012220216748FEF775
:1030500046FF6548007810F0FE00634908700120C3
:10306000050013E06048007810F0010000280AD045
:10307000012210215D48FEF732FF5B48007810F016
:10308000FE005949087001200500FFE72800C0B282
:1030900032BD38B504000025E4B2002C03D0022C68
:1030A00029D014D33BE05048007810F001000028EC
:1030B0000AD1002208214D48FEF711FF4A48007846
:1030C00050F00100484908700120050027E04648FB
:1030D000407810F0010000280AD100222021434846
:1030E000FEF7FDFE4048407850F001003E49487030
:1030F0000120050013E03C48807810F00100002812
:103100000AD1002210213948FEF7E9FE36488078BE
:1031100050F001003449887001200500FFE72800C5
:10312000C0B232BD80B53248007800280BD00228EA
:103130001DD012D304282ED023D306283FD034D359
:10314000072846D04FE00020FFF7A3FF0120FFF73C
:10315000A0FF0220FFF79DFF45E00020FFF799FF49
:103160000120FFF74DFF0220FFF74AFF3BE001205F
:10317000FFF78FFF0020FFF743FF0220FFF740FF1C
:1031800031E00220FFF785FF0020FFF739FF012023
:10319000FFF736FF27E00020FFF77BFF0120FFF756
:1031A00078FF0220FFF72CFF1DE00220FFF771FFE0
:1031B0000020FFF76EFF0120FFF722FF13E002203F
:1031C000FFF767FF0120FFF764FF0020FFF718FFFC
:1031D00009E00020FFF714FF0120FFF711FF022094
:1031E000FFF70EFFFFE701BDE016002000080140D9
:1031F0001500002010B50400FFF794FFFCE7000065
:103200001348006850F00100114908601148006837
:10321000114908400F4908600D4800680F490840EF
:103220000B4908600A48006830F4802008490860AB
:103230000848006830F4FE00064908605FF41F008B
:10324000074908605FF000600649086070470000A9
:1032500000100240041002400000FFF8FFFFF6FEDD
:103260000810024008ED00E0704780B5FEF798FABC
:10327000FEE780B5FEF794FAFEE780B5FEF790FA18
:10328000FEE780B5FEF78CFAFEE7704780B5FFF7E2
:1032900002F901BD80B50648FEF788FE0548FFF734
:1032A000C9FA01BD80B50448FEF7B6FB01BD0000B8
:1032B000981500201C160020DC150020433A5C55B0
:1032C000736572735C44656F5C446F63756D656EA6
:1032D00074735C4749542050524F4A454354535CE1
:1032E0004E6574776F726B2D416E616C797A657281
:1032F0005C5372635C73746D3332663178785F68E7
:10330000616C5F6D73702E6300000000433A5C5582
:10331000736572735C44656F5C446F63756D656E55
:1033200074735C4749542050524F4A454354535C90
:103330004E6574776F726B2D416E616C797A657230
:103340005C5372635C53797354696D652E6300003E
:10335000433A5C55736572735C44656F5C446F639C
:10336000756D656E74735C4749542050524F4A45E1
:103370004354535C4E6574776F726B2D416E616C74
:10338000797A65725C5372635C4144432E6300003A
:10339000433A5C55736572735C44656F5C446F635C
:1033A000756D656E74735C4749542050524F4A45A1
:1033B0004354535C4E6574776F726B2D416E616C34
:1033C000797A65725C5372635C4932432E63000004
:1033D00019E050F8041BCB0744BFA9F101035918A9
:1033E000121F0023042A41F8043BF9D25FEA827CD1
:1033F0000B4604D54FF0000CA1F800C09B1CD10770
:1034000044BF0021197050F8042B002AE1D1704705
:1034100080B500F015F802000023DB4310689842E5
:1034200004D011000220ABBE00201060506898420A
:1034300004D0111D0220ABBE0020506001BD000071
:10344000004870470800002010B450F8041B79B100
:103450000268436812180830DC0744BFA9F1010470
:10346000E31852F8044B43F8044B091FF9D1ECE779
:1034700010BC704710B5074979441831064C7C449C
:10348000163404E00A68081D511888470146A14215
:10349000F8D110BD080000002800000035FFFFFF34
:1034A0000C13000018040020000000009DFFFFFF27
:1034B0001800000050000000000000200000000084
:1034C00000F00BF8002801D0FFF7D4FF0020C04621
:1034D000C046FEF75BFE00F002F80120704700F0E6
:1034E00001B800000746384600F002F8FBE700008C
:1034F00080B5FFF78DFF024A11001820ABBEFBE735
:1035000026000200AAAAAAAA00A24A04FFFFFFFFFF
:10351000FFFFFFFF2C010110100700008435000899
:10352000F12F0008FFFF0000000000004000000035
:10353000B0350008F5310008FEFF00000000000073
:103540004000000002030405060708090A0B0C0DE1
:103550000E0F101002030405060708090A0B0C0DD4
:103560000E0F101000000000000000000102030414
:103570000607080901488047014800470132000852
:10358000913500084B6579626F617264000000003C
:10359000C046C046C046C046FFF792FF000000008C
:1035A0000102030449444C450000000008000000EB
:1035B0004C656400FFF7FEBFFFF7FEBFFFF7FEBFDD
:1035C000FFF7FEBFFFF7FEBFFFF7FEBFFFF7FEBF2F
:1035D000FFF7FEBFFFF7FEBFFFF7FEBFFFF7FEBF1F
:1035E000FFF7FEBFFFF7FEBFFFF7FEBFFFF7FEBF0F
:1035F000FFF7FEBFFFF7FEBFFFF7FEBFFFF7FEBFFF
:10360000FFF7FEBFFFF7FEBFFFF7FEBFFFF7FEBFEE
:10361000FFF7FEBFFFF7FEBFFFF7FEBFFFF7FEBFDE
:10362000FFF7FEBFFFF7FEBFFFF7FEBFFFF7FEBFCE
:10363000FFF7FEBFFFF7FEBFFFF7FEBFFFF7FEBFBE
:10364000FFF7FEBFFFF7FEBFFFF7FEBFFFF7FEBFAE
:08365000FFF7FEBFFFF7FEBF0C
:040000050800359129
:00000001FF
