:020000040800F2
:1000000040060020E9DB0008E5D70008E7D7000834
:10001000EFD70008F7D70008FFD70008000000005E
:10002000000000000000000000000000975C0008D5
:1000300007D8000800000000515C000809D800083B
:10004000F1DC0008F5DC0008F9DC0008FDDC000844
:1000500001DD000805DD000809DD00080DDD0008F0
:1000600011DD000815DD000819DD000811D80008B1
:100070001DDD000821DD000825DD000829DD000860
:100080002DDD000831DD000835DD000839DD000810
:100090003DDD000841DD000845DD000849DD0008C0
:1000A0004DDD000821D8000851DD000855DD0008AD
:1000B00059DD00085DDD000861DD000865DD000830
:1000C00069DD00086DDD000871DD000875DD0008E0
:1000D00079DD00087DDD000881DD000885DD000890
:1000E00089DD00088DDD000891DD00082DE9F04F65
:1000F00080460FF23060A5B015461E46D0E90023B9
:10010000CDE91223002004910D900DF1500A6FF0FB
:10011000004900E065190020ADF8020012AB4FF075
:10012000FF3229460DF1020001F093F80446012C3C
:1001300004DA2878441EA441E443E40FBDF8020029
:1001400025280CBFA4F1010BA346BBF1010F0EDB68
:100150002F4617F8011B0498C0470028049000F0B0
:10016000F3800D98401CBBF1010B0D90F1D1BDF84F
:100170000200252807D100200790089009900A90D6
:100180000B900C9005E00028C4D10D98D2E240F00D
:10019000010015F8011F2029F9D023290DD02B29A2
:1001A00004D02D2906D030290AD00CE040F00200FE
:1001B00080B2EEE740F00400FAE740F00800F7E70D
:1001C00040F01000F4E72A290ED13168316051F86F
:1001D000042B3160002A0F9204D5514240F00400F4
:1001E0000F9180B26D1C11E000210F9109E00F9971
:1001F000494505D001EB810302EB430130390F91F2
:100200006D1C2A78A2F130010A29F0D329782E2911
:1002100003D04FF0FF310E911DE015F8011F2A2980
:1002200007D1316831606D1C51F8042B31600E929A
:1002300011E000210E9109E00E99494505D001EB2E
:10024000810302EB430130390E916D1C2A78A2F133
:1002500030010A29F0D3ADF840000FF2D0402978E0
:1002600001F042F808B115F8010B8DF842009DF835
:100270004200682802BF29786829622005D06C28CE
:1002800004BF28786C2803D171208DF842006D1CC2
:1002900014A8069015F8014BB4F125002AD01C389B
:1002A00000F0D480001F022840F2D080133800F004
:1002B000F580093800F0CA80801E00F05C81401E85
:1002C00000F03581401E022840F2C080001F00F07F
:1002D0002E81401F00F08B80401E00F0DF80401E0A
:1002E00035D0C01E0BD0801E00F0D880C01E00F09C
:1002F000D58063E125208DF85000012067E19DF84D
:1003000042006C283068306014D050F8047B3060B4
:1003100005970E9C002C04D5384600F0FDFF0446DE
:1003200006E022460021384601F012F800B1C41B55
:1003300008944DE150F8042B306002A9404600F0CB
:1003400033FA002840F144814FF0FF30F2E1316888
:1003500031603C2451F8040B31600021CDE90201E9
:1003600014A80590DDE90201069F11B908B90E9A9B
:10037000B2B10206120FA0EB02123032D2B2631EEB
:100380003A2AA8BF27320009DA5540EA0170090964
:1003900008BF00281C4603D0059AE3199A42E8D307
:1003A000E0190590C4F13C010E980891814209DAE8
:1003B000401A0A904FF6EF71BDF840000840ADF8C2
:1003C000400005E1002840F103819DF8400000F065
:1003D0001400102840F0FC800F98079A801A0A9A9F
:1003E000801A441A012CC0F2F3800A94F0E09DF8C0
:1003F000420062281AD0682806D06A280CD06C28DF
:100400001CD0712808D019E03068306050F8041B07
:1004100030600D980880DBE03068306050F8042BC5
:1004200030600D98C117C2E90001D1E0306830603A
:1004300050F8041B30600D980870C9E030683060D7
:1004400050F8041B30600D980860C1E03068C01D92
:1004500020F007023260D2E9000108323260CDE9B3
:100460000201002902D507982D210AE0BDF84000BD
:10047000810702D507982B2103E0C00705D507980F
:10048000202100F80A10401C079014A807990818AA
:100490000590214602A800F091FB99E09DF84200EA
:1004A0006C280DD0712818BF6A2809D13068C01D8A
:1004B00020F007023260D2E900010832326005E024
:1004C0003168316051F8040B31600021CDE902013F
:1004D0009DF84200682803D1DDE9020180B20BE0FB
:1004E000622803D1DDE90201C0B205E0742818BF1B
:1004F0007A2804D1DDE902010021CDE902019DF84D
:10050000400000072ED5DDE90201002908BF0028C0
:1005100028D044F02000782824D10798302100F812
:100520000A10401C411C079100F80A401AE09DF88F
:100530004200314600F001F9CDE90201002902DA5A
:1005400007982D210AE0BDF84000810702D50798E1
:100550002B2103E0C00705D50798202100F80A10D9
:10056000401C079014A8079908180590214602A876
:1005700000F0A0FA2CE09DF842006C2809D0012080
:1005800007903068306050F8041B30608DF85010D0
:100590001EE03068306001AA50F8041B3060ADF8EE
:1005A00004100020ADF8060002A94FF0FF300E90B5
:1005B000404600F0F9F800280AD5C5E625208DF858
:1005C0005000012007901CB18AF8014002200790DA
:1005D0000F980799401A0A99401A0899401A0B99DE
:1005E000401A0999401A0C99441A9DF84000400796
:1005F00010D42020012C8DF800000BDB27460123AE
:100600006A4602A9404600F000FE00287FF49CAE36
:100610007F1EF4D1DDF81CB0BBF1000F14AF0DD07C
:1006200017F8011B0498C047002804903FF48CAED3
:100630000D98401CBBF1010B0D90F1D130208DF8CD
:1006400000000A9F012F0ADB01236A4602A94046E7
:1006500000F0DBFD00287FF477AE7F1EF4D1DDF8DB
:1006600020B0059FBBF1000F0DD017F8011B0498B7
:10067000C047002804903FF467AE0D98401CBBF1C2
:10068000010B0D90F1D130208DF800000B9F012F50
:100690000ADB01236A4602A9404600F0B6FD0028A5
:1006A0007FF452AE7F1EF4D105980899DDF824B08E
:1006B0000F18BBF1000F0DD017F8011B0498C047AD
:1006C000002804903FF440AE0D98401CBBF1010B94
:1006D0000D90F1D130208DF800000C9F012F0ADB26
:1006E00001236A4602A9404600F08FFD00287FF4EE
:1006F0002BAE7F1EF4D19DF8400040077FF50BAD77
:100700002020012C8DF80000FFF605AD01236A467C
:1007100002A9404600F079FD00287FF415AE641E62
:10072000F4D1F8E40000000000000000686A6C7476
:100730007A4C000025B0BDE8F08F622826D06828EA
:100740001DD06A2808D06C2827D0712804D07428BE
:1007500023D07A280CD020E00868C01D20F00700C4
:100760000860D0E900230830086019461046704739
:100770000A680A6052F8040B0A60002170470A6890
:100780000A6052F8040B0A6000B20BE00A680A60C3
:1007900052F8040B0A6040B204E00A680A6052F89A
:1007A000040B0A60C11770472DE9F44F0D4694B051
:1007B000D5F830A0BAF1000F804648BF6FF0004A6C
:1007C00000F0F2FD696B401801900FF66C20D0E943
:1007D0000023CDE9022395F83800400702D40198A0
:1007E000412805D240200DF110090190002609E0B2
:1007F00000F0E0FD5FEA0009F8D14FF0FF3056E16C
:10080000AAEB040ABAF1010FC0F2CE801498018855
:1008100002AA0DF1010000F025FE0028044600F1B7
:10082000DE801498008810B9641E00F1D880A245BB
:10083000C0F2BA80686901992218914280F0A280C2
:100840006E634042296A401AA969401A696A401ACF
:10085000E969401AA96A461A95F83800400710D489
:100860002020012E8DF800000BDB374601236A465D
:100870002946404600F0C9FC002840F0B0807F1EA9
:10088000F4D1D5F814B0BBF1000F4F460DD017F8D6
:10089000011BA868C0470028A86000F0A080E86A93
:1008A000401CBBF1010BE862F1D130208DF8000053
:1008B0002F6A012F0ADB01236A462946404600F0D1
:1008C000A4FC002840F08B807F1EF4D1D5F818B02E
:1008D000EF68BBF1000F0CD017F8011BA868C047E8
:1008E0000028A8607BD0E86A401CBBF1010BE862DD
:1008F000F2D130208DF800006F6A012F09DB01234F
:100900006A462946404600F080FC002867D17F1ED9
:10091000F5D1E868A969D5F81CB00F18BBF1000F34
:100920000CD017F8011BA868C0470028A86056D053
:10093000E86A401CBBF1010BE862F2D130208DF86F
:100940000000AF6A012F09DB01236A4629464046B1
:1009500000F05BFC002842D17F1EF5D195F83800ED
:1009600040070DD52020012E8DF8000008DB012363
:100970006A462946404600F048FC80BB761EF6D108
:1009800000266E61224668690DF10101484400F0BD
:1009900077FD6869201868611498801C1490801E87
:1009A000008800287FF42CAF686B6969401A296AB7
:1009B000401AA969401A696A401AE969401AA96A85
:1009C000A0EB010A95F83800400710D4BAF1010FE6
:1009D0000DDB5446A8682021C047A86010B94FF02D
:1009E000FF365DE0E86A401C641EE862F2D16B6984
:1009F0004A462946404600F008FC0028EFD12C6A00
:100A0000012C0ADBA8683021C0470028A860E6D086
:100A1000E86A401C641EE862F4D1AB69EA682946C2
:100A2000404600F0F2FB0028D9D16C6A012C0ADBA9
:100A3000A8683021C0470028A860D0D0E86A401CD0
:100A4000641EE862F4D1E868A969EB690A182946CE
:100A5000404600F0DAFB0028C1D1AC6A012C0ADB69
:100A6000A8683021C0470028A860B8D0E86A401CB8
:100A7000641EE862F4D195F8380040070ED5BAF14B
:100A8000010F0BDBA8682021C0470028A860A6D072
:100A9000E86A401CBAF1010AE862F3D16E616E6344
:100AA00004A881451CBF484600F026FD304615B01D
:100AB000BDE8F08F2DE9FA4E05460A462F696F2AE8
:100AC00008BF082405D041F02000782814BF0A246C
:100AD00010243C26D5E90001642A18BF692A814602
:100AE0008A4605D1002903DAD9F100096AEB4A0ADE
:100AF000BAF1000F08BFB9F1000F0CD1286B50B943
:100B0000082C36D195F83800000732D530203B2626
:100B100087F83B002DE0E31748465146224600F097
:100B20002BFDA4FB0023A9EB02023032D2B2A6F1C6
:100B3000010B3A2A5E4603DB9DF80030513B9A18C0
:100B40000BF8072081465FEA010A08BFB9F1000FE0
:100B500003D0E868F1198842DDD3082C09D195F853
:100B60003800000705D5F05D302802D0761E302011
:100B7000F055C6F13C00A861F119E960296B884283
:100B800008DA081A28624FF6EF71288F0840288784
:100B9000BDE8F38E00290ED595F8381001F0140148
:100BA000102908D1696B6A69891A2A6A891A0E1A8A
:100BB000012EA8BF2E62BDE8F38E00002DE9F24F92
:100BC00004468EB0D4E90001CDE9020104AF9DF8DE
:100BD000380040F0200BBBF1610F0AD0206B0028D9
:100BE00048BF062004D408BFBBF1670F01D1012024
:100BF00020636168C1F30A5040F2FF7290421CD139
:100C0000080304BF2068002809D10320A0619DF8D3
:100C1000380061381A2836D30FF2306108E003201B
:100C2000A0619DF8380061381A2829D30FF21461A9
:100C3000E068032200F024FCBEE1012816DA204619
:100C400000F011FD012811DB00250020BBF1610F30
:100C500020D1E168302201F8012B4A1CE2609DF8A6
:100C60003820612A0CBF782258220FE0626840F2D7
:100C7000FE3161F31E52451A62604FF0FF30E5E726
:100C80000FF2BC51D4E70FF2C051D1E70A7061698D
:100C9000891C616110B90026002584E1BBF1610F58
:100CA00040F09880206B00284CBF2126461CD4E9D8
:100CB00000ABDDE902010022002300F0F5FC36B2B2
:100CC0003ABF8BF00040CDE902A0CDE902AB06F1BE
:100CD00001082D1FB8F1010F8DF810200DF111073B
:100CE00036DBDDE902010022002300F0F5FC2FD203
:100CF0001C2102A800F008FDDDE9020100F08AFDD8
:100D0000A8F10708B8F1010F814609DB00F0AEFD3C
:100D100002460B46DDE9020100F0C0FDCDE902010B
:100D2000F81D072105E009F00F0200F8012D4FEA38
:100D30002919B9F1010F01DB491EF4D5491E5CBF29
:100D4000002200F8012DF9D5C71DB8F1010FC8DA4E
:100D50000DF11100391AB142B8BF0E4636B230005B
:100D60000DF111072FD4884206DA04A941184978F9
:100D70000829A8BF0F2100DA002104AA821800E088
:100D8000761E12F80139401E8B42F9D00F2904D18A
:100D900004A941184A78521C4A70002802D504AFB1
:100DA000761C2D1D36B2701E0DD4C1190A78303252
:100DB000D2B23A2A03DB9DF838303A3B9A18401EEB
:100DC00001F80129F2D5206B002840F1EC80701E5B
:100DD0002063E8E0DDE902010022002300F064FC6A
:100DE0003CBF81F00041CDE902012DB247F297509E
:100DF00068434B49DFF82C9190FBF1F52DB2C5F11A
:100E0000070ABAF1010F90461CDBDDE902675FEAD1
:100E1000CA7007D542464B463046394600F0FEFDC3
:100E200006460F464046494642464B464FEA6A0A46
:100E300000F0F4FDBAF1000F80468946E7D1CDE914
:100E4000026724E0CAF1000A0026374F14E05FEA87
:100E5000CA7007D542464B463046394600F0DEFDA3
:100E600006460F464046494642464B4600F0D6FDF0
:100E70004FEA6A0A80468946BAF1000FE7D1DDE9F8
:100E8000020132463B4600F09BFECDE90201BBF178
:100E9000660F0CBF05F10A000620216BDFF88C906D
:100EA0004618142EA8BF132630208DF810000DF11F
:100EB0001107012E3CDBDDE9020100F0C1FC07F166
:100EC000080104220A23B0FBF3F303EB8307A0EB32
:100ED0004700303001F8010C0A20B3FBF0F000EBC2
:100EE0008007A3EB47033033521E01F8023DE9D1DE
:100EF000083E012E01F10807DBDBDDE9020100F00D
:100F00009FFC00F0BDFC02460B46DDE9020100F04B
:100F1000C5FC00224B4600F081FDCDE90201CAE785
:100F2000A0860100000024400000F03F84D79741D4
:100F30000DF11100381A0DF1110702E0401E6D1E6F
:100F40007F1C39783029F9D0BBF1660F02D12DB260
:100F5000691C04E0BBF1650F0CBF01210021226B6D
:100F60008E1836B2B042B8BF064636B231001AD437
:100F7000814204DAC85D3528A8BF392000DA302064
:100F8000CA19521E00E0761E12F80139491E83422A
:100F9000F9D0392802D1C85D401CC855002902D5B6
:100FA0007F1E761C6D1C2DB29DF83810009533B253
:100FB0003A46204600F003F80FB0BDE8F08F2DE967
:100FC000F04786B006468A4690461D4600F041FF2F
:100FD000012D406A376B90F8009002DA01250FF27C
:100FE00070284AF02000BDF93840662808BF641C0C
:100FF00012D0672876D114F1040F79DBBC4277DA7E
:1010000096F83800641C000702D4BD42B8BF2F46D2
:1010100024B23F1B48BF002724B2F068B169012CFD
:1010200021DA4A1C30230B54012F03DA96F83810CA
:10103000090702D502F80090521CB261E742B8BF1E
:101040007C4224B26142E7197162AF42B8BF3D46AB
:10105000B3692DB2F5612A464146181800F010FA1E
:10106000781BB062BAE00818A54216DA2A46414653
:1010700000F006FAB1696918601B012FB161706256
:1010800003DA96F83800000705D5F06801F80090FB
:10109000F069401CF061B762A0E02246414600F0D2
:1010A000EFF9B06920182D1B012F03DA96F83810DC
:1010B000090703D5F16800F80190401C2DB2B0611A
:1010C000AF42B8BF3D46F068B3692DB22A4604EB83
:1010D0000801181800F0D4F9B0692818B061781B1D
:1010E00070627BE0BAF1610F14D14FF0700A16E024
:1010F000BD4204DA96F83810090758BF2F467F1E04
:1011000048BF0027BAF1670F14BF4FF0450A4FF0F0
:10111000650A04E0BAF1410F08BF4FF0500AB16907
:10112000F0684A1CB261012F18F8013B0B5403DA36
:1011300096F83810090715D5531CB36102F80090D2
:10114000012F0FDB6D1E2DB2AF42B8BF3D462DB251
:101150002A464146181800F093F9B0692818B06182
:10116000781B7062F068B1690918200081F800A04E
:1011700004D42B20487001F1020804E02D224A70AB
:1011800001F102086442002502AF08E00A22684625
:1011900000F078FE019807F8010B6D1C009C21B24D
:1011A0000129F3DA022D06DA4AF02000652804BF8F
:1011B000302008F8010B4DB9302008F8010B07E08A
:1011C0006D1E02A8285C303008F8010B012DF7DAFB
:1011D000F068B1690818A8EB0000F06196F83800D3
:1011E00000F0140010280DD17069B1690818716AF7
:1011F0000818F1690818B16A0818716B8842BCBFF9
:10120000081A306206B0BDE8F087F8B504460D460E
:1012100016461F46002077B116F8011BA868A047A4
:10122000A86030B1E86A401CE86200207F1EF3D15C
:10123000F2BD4FF0FF30F2BD0000000000000000E2
:101240006E616E004E414E00696E6600494E46006A
:101250003000F8B504460D4616461F4600F01AFE4B
:101260003B4632462946204601B0BDE8F04000F03A
:1012700028BEF0B4016844688368091801EB540281
:10128000E40748BF4B440C3091422BD011F8014B7E
:1012900014F0030504BF11F8015BED1C26090F2EA5
:1012A00007D111F8016B0F3603E011F8017B03F849
:1012B000017B6D1EF9D1002EE6D0A40811F8015B68
:1012C00004F00304032C08BF11F8014B05EB0424C0
:1012D0001C1BB51CD8D014F8016B03F8016B6D1EF4
:1012E000F9D1D1E7F0BC70470278C9B28A421AB18D
:1012F0001CBF10F8012FF9E718BF00207047826863
:10130000521C8260426832B10268531C0360117043
:101310004168491E4160704700F10103810704D014
:1013200010F8011B89B18107FAD10268B2F10131CD
:10133000914311F0803F04BF50F8042FF6E710F8F6
:10134000011B11B110F8011BFBE7C01A70474100E7
:10135000C9B2830706D0521E22D310F8013B99422E
:10136000F7D11FE0083A13D302F1040241EA012148
:1013700041EA014150F8043B121F21BF4B40A3F149
:10138000013C2CEA030C1CF0803FF3D0C9B2001FD3
:10139000083210F8013B521E28BF91EA030FF8D81B
:1013A00018BF0120401E704780B500F073FD01207A
:1013B00002BD570070B5054605F10F00C408C046D0
:1013C000C046E400A54232D2082C04D2082402E030
:1013D000083000F091F82248026811000CD1011D7C
:1013E0000A6802B31368A34238BF111DF8D310E096
:1013F0001D68A5420DD2191D0B68002BF8D112688B
:10140000011D00E0191D0B6893420CD01D68A54218
:10141000F8D361B10D682A68A2F10803A3420AD289
:101420006A680A600FE000F06FFD0028D0D1C04666
:10143000C046002070BD63190B60121B6E685E60B1
:101440000B681A602C60096800291DBF4A68002AD1
:10145000091D00210160C046C04605F1080070BDAD
:10146000E823002070B504460D46164600F012FD34
:10147000324629462046BDE8704000F015BD010205
:1014800062B38B0708D0521E11F8013B00F8013BF4
:1014900000F024808B07F6D1830740F0208000BF46
:1014A000103A07D330B4B1E83810103AA0E8381039
:1014B000F9D230BC530724BFB1E80810A0E80810E7
:1014C00044BF51F8043B40F8043BD20724BF31F835
:1014D000022B20F8022B44BF0B7803707047083AA8
:1014E00007D3B1E80810083A40F8043B40F804CBB1
:1014F000F7D25307E4E7010200B9704738B5A0F10D
:1015000008042068082833D310F0070F30D1C046F4
:10151000C0461848416809B18C4203D261604460FA
:1015200017E019464B680BB1A342FAD30B685D185C
:10153000AC421BD3A54204D12268D2180A600C46E3
:1015400007E04A681AB123681B199A420ED36260F9
:101550004C60616851B1226813198B4206D1002397
:10156000036008688018206048686060C046C04614
:1015700031BD0000E82300201B4213D1094236D1BF
:101580002AB18446B0FBF2F002FB10C2704700F0B3
:10159000D1BCFCD30022002370470B0002000021C5
:1015A00000207047904271EB030CF6D370B5B1FA8E
:1015B00081F4B3FA83F52C1BA340C4F1200532FA61
:1015C00005F63343A2405FF00046E64002E05B08C8
:1015D0005FEA3202841A71EB030524BF20462946D4
:1015E0007641F4D302000B003000002170BD012AC7
:1015F000CFD970B5140C20D0B1FA81F4B2FA82F5CB
:10160000C4F120046419B4F12006D6D3B2405FF0CF
:101610000044F440002502E052085FEA3303C61A92
:1016200071EB020E24BF3046714664416D41F3D325
:1016300002000B002000290070BD0C46B1FBF2F146
:1016400002FB11452D0445EA1045B5FBF2F402FBFF
:10165000145580B240EA0545B5FBF2F002FB10528A
:1016600040EA044070BD30B4436803F000420121F9
:101670001B031B0B436004BF0368002B08D10DE064
:101680000368DD0F45EA440444605B000360491EC3
:101690004468E302F4D523031B0B436043681A43F9
:1016A0004260084630BC70474FF4001C1CEB410FF1
:1016B00094BF1CEB430F09E041EA030C50EA4C0CC9
:1016C00052EA0C0C03D2994208BF9042704714BFF3
:1016D0008B428242704700004FF4001C1CEB410F0C
:1016E00094BF1CEB430F09E041EA030C50EA4C0C99
:1016F00052EA0C0C03D28B4208BF8242704714BFDF
:10170000994290427047000070B504460D466068EB
:10171000C0F30A5040F2FF71884207D160680003AD
:1017200004BF2068002817D0022070BD20B92046D1
:10173000FFF799FF012866DA012D0FDB40F2FF71F8
:10174000091A8D420AD36068002847BF00202F493C
:1017500000202F49C4E90001012070BD4142A94287
:10176000616806DA6FF31E51401941EA005060606B
:1017700040E0401E63684519012205F1350062F31F
:101780001F53352801F00041636003D361600020DE
:10179000206070BD002015F11F0F04DA206823605F
:1017A0000022203562606A4212D0401E25688041C6
:1017B000C2F12003C0439D4045EAD07025686668A9
:1017C000D54006FA03F32B4323606368D34063607C
:1017D00062680A43B0F1004F626003D80DD12078EF
:1017E000C0070AD52068401C2060206828B96068BE
:1017F000401C60604FF0FF3070BD6068884204BFDD
:1018000020680028F6D1002070BD00BF0000F0FF66
:101810000000F07FF446400D40EAC120490006D2A6
:1018200000F014F8004248BF6FF00040604700F03D
:101830000DF84FF0004188428CBF08464042604797
:10184000400D40EAC120490080F00D8040F000408A
:10185000490DA1F58061491C05D4D1F11F0154BF88
:10186000C840C01770474FF000007047010040F1BA
:101870000980F446404200F005F851F0004160470D
:10188000010000BF09D0B0FA80F18840C91CC1F541
:101890008461090501EBD02140057047F0B44FF099
:1018A000004591EA030F44BF6B4000F04FBB00BFFF
:1018B000841A71EB030604D26E40001BB141121969
:1018C00073414FF4001C1CEB410F34BF7CEB43060B
:1018D00084E00C0DA4EB1356362E7DDC012E43DC88
:1018E00045EAC32343EA525312BFD20292025B0875
:1018F000240545EAC12141EA5051D2EBC02099416B
:1019000025D407D1B0FA80F610FA06F164D0002091
:10191000203608E0B1FA81F6B140C6F1200220FA83
:1019200002F21143B0404FEAF474B4EB465434F081
:1019300001064FEA74040AD8D6F50016760D04F0B5
:101940000044F04061FA06F25040F1404840C00ABD
:1019500040EA415021F0004128BF5FEA500550F1B4
:10196000000044EBD12137E045EAC323DB0A45EA16
:10197000C121C90AB6F120050EDD42EA0242120C6D
:10198000C5F1200603FA06F6EB4042EA06056D4271
:10199000984161F100010DE062FA06F5F240554010
:1019A00063FA06FC82EA0C02F3405A406D42904111
:1019B00061EB030111F4801F05D1641E620502D0A2
:1019C0006D004041494121F48011430875F1004305
:1019D00050F1000041EB0451F0BC70471CEB410F8B
:1019E00015D223F0004352EA43060BD04FEA4C0CC9
:1019F000BCEB410F04D80C0D661E342EB7DDEBE7AF
:101A0000801A994150EA410608BF0021E4E708BF67
:101A10001CEB430F28BF6FF00001DDE7B0B581EA92
:101A2000030C0CF0004C40F2FF7515EA11541DBF79
:101A300015EA1357AC42AF4239E0E41923EA4553A3
:101A400043F48013C90241F0004141EA505EC702ED
:101A50001100A7FB020200284FF00000EEFB01205E
:101A60004FF00001E3FB072118BF42F001024018CC
:101A700000214941E3FB0E01A4F580640F0302D26B
:101A800052004041494154F101046CDD470872F1B4
:101A9000004250F1000051EB0451A1F580115CBFF0
:101AA00041EA0C01B0BD4CEA05510020B0BD05EA89
:101AB0001357AC4214BFAF4241E050EA410E1CBF85
:101AC00052EA430E02E061460020B0BD24423C448D
:101AD0001BD15FEA070EF6D0090302BF01460020C2
:101AE000AEF1140EB1FA81F7AEEB070401FA07FE6E
:101AF0000C37C7F1200100FA07F7C8404EEA000E84
:101B000023EA455343F48013A2E733F00043B3FACA
:101B100083F704BFB2FA82FE77440B3FE41BB7F1B0
:101B2000200E2FBF02FA0EF3BB40C7F1200E22FA9F
:101B30000EFE38BF43EA0E03BA40641C82E750EA47
:101B4000410E14BF52EA430E6FF000014FF400172C
:101B500017EB430F8ABF194617EB410FB5E74CEA65
:101B600005510020B0BDD4F10104B4F120070FDA13
:101B7000C4F12007520828BF42F0010210FA07F50D
:101B800001FA07F7E1BF2A43E0403843E1400FE0A4
:101B9000352C98DCC7F1200452EA400220FA07F203
:101BA00018BF42F0010231FA07F0A1400A430021B8
:101BB00072F1004250F1000051EB0C01B0BD000089
:101BC0002DE9F04140F2FF7581EA030C0CF0004C66
:101BD00015EA11541DBF15EA1357AC42AF42E9E0B4
:101BE000BC41C1F31301C3F31303801A994143F4B9
:101BF000801304D2641E4000494180185941C90233
:101C000041EA5051B1FBF3F603FB1611A2FB067536
:101C1000D7EBC020A94102D2761E80185941C902D3
:101C200041EA5051B1FBF3FE03FB1E11A2FB0E75FE
:101C3000D7EBC020A94103D2AEF1010E8018594163
:101C4000890241EA9051760546EA8E2EB1FBF3F601
:101C500003FB1611A2FB0675D7EB8020A94102D227
:101C6000761E80185941C90241EA50514EEA060ECB
:101C7000B1FBF3F603FB1611A2FB0675D7EBC020F0
:101C8000A94102D2761E80185941C90241EA505139
:101C9000B1FBF3F703FB1711A2FB0735D3EBC02011
:101CA000A94167F100070CBF004247F0010766F346
:101CB000D5274FEA1E31B80814F5806414DDBD073E
:101CC00075F1004250EB0E5051EB045111F5801F9D
:101CD0005CBF41EA0C01BDE8F0814CF07F6141F04E
:101CE000E0410020BDE8F081BD076D0840EA0E50DC
:101CF00041F48011D4F10104B4F120060ADAC4F1F0
:101D000020060200E04001FA06F3E1401843B24029
:101D100015430EE0342C14DCC6F1200445EA4005DE
:101D20006D0820FA06F2154321FA06F0A1400D4392
:101D3000002175F1004250F1000051EB0C01BDE8AB
:101D4000F08100205FEA0C01BDE8F081CFB9921864
:101D50005B41B3FA83F704BFB2FA82F6BF190B3FB7
:101D6000B7F120062FBF02FA06F3BB40C7F12006E9
:101D700022FA06F638BF3343BA401CB1E419641E98
:101D80002FE77F4231F00041B1FA81F404BFB0FA8D
:101D900080F6A4190B3CB4F120062FBF00FA06F11F
:101DA000A140C4F1200620FA06F638BF3143A04016
:101DB0003C1B16E7AC421ABF05EA1357AF4214E0CA
:101DC00050EA41061CBF52EA4306BFE750EA41070A
:101DD000304661461CBF41EA0551BDE8F08152EA38
:101DE000430C08BFC143BDE8F08100204FF400164A
:101DF00016EB410F98BF16EB430F08BF16EB410FD0
:101E000024BFC14305E016EB430F0CBF61464CEA0B
:101E10000551BDE8F081000080B5134800F000F9DD
:101E20000FF24C020FF244010160426241600FF276
:101E30004402826381600FF24402C160016141612A
:101E400081618162C16201634163C2630164416473
:101E500001BD10B5044800F0E3F80446206808B955
:101E6000FFF7DAFF204610BD380100200000000017
:101E70002E00000066616C73650000007472756569
:101E80000000000091FBF2F303FB1211C0E90031E6
:101E90007047000080B5DFF80C0000F0C1F88069E1
:101EA00002BD0000CC01002030B430B90FF2480070
:101EB000D0E90045C2E900451BE00170012030BCBB
:101EC000704730B431B90FF23800D0E90045C3E9AA
:101ED00000450EE01AB930BC6FF00100704708B140
:101EE0000A7802800978481E804130BCC043C00F88
:101EF0007047002030BC7047000000000000000068
:101F000000000000000000000749086808B1002038
:101F100070470648C008C00008600549C908C900E4
:101F2000091A0160704700BF802400204706002086
:101F30004008002070470000F0B44FF0004591EADF
:101F4000030C44BF6B40FFF7B3BC00BF841A71EBB6
:101F5000030603D2001BB141121973414FF4001C58
:101F60001CEB410F34BF7CEB430443E00C0DA4EBAE
:101F70001356352E50DC45EAC323DB0A45EAC1215E
:101F8000C912B6F120050DDD63FA05F6EB4086EACD
:101F90000305124218BF45F00105C01851F10001B8
:101FA0000CD213E062FA06F5F2405540F3415A4074
:101FB000B340F3405A408018594107D349085FEABB
:101FC00030005FEA350528BF45F0010501F58011B5
:101FD000420875F1004250F1000041EB0451F0BCA1
:101FE0004FF4001C1CEB410F38BF70470020090D57
:101FF000090570471CEB410F10D252EA43060BD083
:10200000BCEB410F05D80C0DAB43661E342EB5DD7D
:1020100002E0AB4380185941F0BC7047F0BC7047F8
:102020007047000070B5040000250026002C01D187
:102030000120BAE094F83D00002805D1002084F882
:102040003C00200000F066FF242084F83D0020685A
:102050000068400840002168086001F0BDFA0600F1
:102060006068DFF8D012884208D2DFF8CC028642DE
:1020700001D2012000E00020C0B207E0DFF8BC027E
:10208000864201D2012000E00020C0B2012801D127
:1020900001208AE0DFF8A802B6FBF0F00500206816
:1020A00045606068DFF88C12884201D2681C08E045
:1020B0004FF4967000FB05F04FF47A71B0FBF1F02D
:1020C000401C216808626068DFF86812884214D2F8
:1020D000701E61684900B0FBF1F0401C0005000D66
:1020E000042801D204203EE0701E61684900B0FB64
:1020F000F1F0401C0005000D35E0A068002809D172
:10210000701E616803225143B0FBF1F0401C0005D2
:10211000000D0AE0701E616819225143B0FBF1F016
:10212000401C0005000D50F48040000501D1012045
:1021300019E0A068002809D1701E6168032251438C
:10214000B0FBF1F0401C0005000D0AE0701E616854
:1021500019225143B0FBF1F0401C0005000D50F472
:10216000804050F400402168C861E069216A08435A
:10217000216808602069E168084321688860606917
:10218000A16908432168C8602068006850F0010018
:102190002168086000202064202084F83D00002091
:1021A0002063002084F83E00002070BD2DE9F84334
:1021B00004000D0016001F00DDF820805FF000090C
:1021C00001F092FA814694F83D00202840F0AF805B
:1021D000CDF8009019230122DFF86811200000F0EB
:1021E000BDFC002801D00220A2E094F83C000128A8
:1021F00001D102209CE0012084F83C0020680068A6
:10220000C00705D42068006850F00100216808600C
:102210002068006830F4006021680860212084F89C
:102220003D00102084F83E0000202064666267852F
:10223000DFF81401E062608D20854B46424629009C
:1022400089B2200000F0EEFA00280CD0206C04289F
:1022500004D1002084F83C00012069E0002084F8CB
:102260003C00032064E0002000902068406900905A
:102270002068806900900098208D002846D04A464A
:102280004146200000F0FEFC00280CD0206C042801
:1022900007D12068006850F40070216808600120B0
:1022A00046E0032044E0606A411C616200782168D6
:1022B0000861608D401E6085208D401E208520684D
:1022C000406940070ED5208D00280BD0606A411C64
:1022D0006162007821680861608D401E6085208DF4
:1022E000401E20854A464146200000F0F4FC0028AC
:1022F000C2D0206C042807D12068006850F4007018
:1023000021680860012013E0032011E020680068C4
:1023100050F4007021680860202084F83D000020FF
:1023200084F83E00002084F83C00002000E00220F9
:10233000BDE8F283A186010080841E0000093D00F3
:1023400040420F00020010000000FFFF2DE9F04F97
:1023500083B005000E0017009846DDF830900D9C04
:10236000DDF838A05FF0000B01F0BEF9834695F868
:102370003D00202840F0AE80CDF800B019230122A6
:10238000DFF89814280000F0E9FB002801D00220B3
:10239000A1E095F83C00012801D102209BE001203A
:1023A00085F83C0028680068C00705D428680068E4
:1023B00050F00100296808602868006830F4006067
:1023C00029680860212085F83D00402085F83E00FE
:1023D00000202864C5F824906C85DFF83C04E8628E
:1023E000688D2885CDF804B0CDF800A043469BB297
:1023F0003A0092B2310089B2280000F07BFA00283E
:102400000CD0286C042804D1002085F83C00012061
:1024100061E0002085F83C0003205CE0288D002866
:1024200033D05A465146280000F02CFC00280CD02E
:10243000286C042807D12868006850F400702968C7
:102440000860012047E0032045E0686A411C69629A
:10245000007829680861288D401E2885688D401EF7
:102460006885286840694007D8D5288D0028D5D0D0
:10247000686A411C6962007829680861288D401EDD
:102480002885688D401E6885C8E75A465146280051
:1024900000F021FC00280CD0286C042807D1286803
:1024A000006850F4007029680860012013E00320E0
:1024B00011E02868006850F4007029680860202046
:1024C00085F83D00002085F83E00002085F83C009E
:1024D000002000E00220BDE8FE8F2DE9F04F83B020
:1024E00005000E0017009846DDF830900D9CDDF8D1
:1024F00038A05FF0000B01F0F7F8834695F83D0037
:10250000202840F08581CDF800B019230122DFF8A2
:102510000C13280000F022FB002801D0022078E1F3
:1025200095F83C00012801D1022072E1012085F8D4
:102530003C0028680068C00705D42868006850F08F
:102540000100296808602868006830F40060296884
:102550000860222085F83D00402085F83E000020DC
:102560002864C5F824906C85DFF8AC02E862688DB9
:102570002885CDF804B0CDF800A043469BB23A00C0
:1025800092B2310089B2280000F02AFA00280CD05B
:10259000286C042804D1002085F83C00012038E193
:1025A000002085F83C00032033E1288D00280FD15E
:1025B0000020009028684069009028688069009099
:1025C00000982868006850F400702968086044E0AA
:1025D000288D012817D12868006830F480602968A8
:1025E000086072B600200090286840690090286852
:1025F0008069009000982868006850F4007029688D
:10260000086062B629E0288D022817D12868006882
:1026100050F400602968086072B6002000902868B5
:1026200040690090286880690090009828680068D8
:1026300030F480602968086062B60EE0286800689F
:1026400050F4806029680860002000902868406984
:1026500000902868806900900098288D002800F07C
:10266000CC80288D042880F09C80288D01281AD1E8
:102670005A465146280000F057FB002806D0286C27
:10268000202801D10320C4E00120C2E0686A411C77
:102690006962296809690170288D401E2885688D46
:1026A000401E6885D9E7288D02282DD1CDF800B0CD
:1026B00053460022DFF86811280000F04FFA002886
:1026C00001D00320A5E072B62868006850F40070BD
:1026D00029680860686A411C696229680969017093
:1026E000288D401E2885688D401E688562B6686A00
:1026F000411C6962296809690170288D401E28857E
:10270000688D401E6885A8E7CDF800B053460022CA
:10271000DFF80C11280000F021FA002801D0032076
:1027200077E02868006830F480602968086072B635
:10273000686A411C6962296809690170288D401E18
:102740002885688D401E6885CDF800B0534600226C
:10275000DFF8CC10280000F001FA002801D0032097
:1027600057E02868006850F4007029680860686ABB
:10277000411C6962296809690170288D401E2885FD
:10278000688D401E688562B6686A411C6962296866
:1027900009690170288D401E2885688D401E688556
:1027A0005BE75A465146280000F0BEFA002806D0E2
:1027B000286C202801D103202BE0012029E0686A41
:1027C000411C6962296809690170288D401E2885AD
:1027D000688D401E68852868406940077FF53DAFD9
:1027E000686A411C6962296809690170288D401E68
:1027F0002885688D401E68852FE7202085F83D00DC
:10280000002085F83E00002085F83C00002000E014
:102810000220BDE8FE8F00000000FFFF0200100054
:10282000040001002DE9F04182B004000D00160003
:102830001F00D4F82C80B8F1040F06D0B8F1010FB6
:1028400003D0DFF80C03804506D12068006850F4FF
:1028500080702168086008E0206B122805D120688C
:10286000006850F4807021680860009733000022EF
:102870005FF00111200000F071F9002801D0032061
:1028800036E02069B0F5804F04D115F0FE002168D4
:1028900008611CE015F4407080B2C00950F0F000EF
:1028A000C0B2216808613B003200DFF8A8122000A6
:1028B00000F098F9002806D0206C042801D10120EE
:1028C00016E0032014E02800C0B2216808613B0034
:1028D0003200DFF88412200000F084F9002806D0CE
:1028E000206C042801D1012002E0032000E0002038
:1028F000BDE8F6812DE9F84304000D0016001F0025
:10290000DDF82080DDF824902068006850F48070A5
:1029100021680860CDF80090434600225FF0011165
:10292000200000F01BF9002801D0032056E015F02C
:10293000FE00216808614B4642468749200000F0AE
:1029400051F9002806D0206C042801D1012045E06F
:10295000032043E000200090206840690090206838
:102960008069009000984A464146200000F08AF9AC
:1029700000280CD0206C042807D12068006850F48F
:10298000007021680860012028E0032026E0BFB223
:10299000012F04D13000C0B2216808611DE0300071
:1029A00080B2000AC0B2216808614A464146200050
:1029B00000F068F900280CD0206C042807D12068AA
:1029C000006850F4007021680860012006E00320D0
:1029D00004E03000C0B2216808610020BDE8F28345
:1029E0002DE9F84304000D0016001F00DDF82080DB
:1029F000DDF824902068006850F480602168086049
:102A00002068006850F4807021680860CDF800905C
:102A1000434600225FF00111200000F09FF80028DB
:102A200001D0032091E015F0FE00216808614B46BB
:102A300042464949200000F0D5F8002806D0206C15
:102A4000042801D1012080E003207EE000200090D6
:102A500020684069009020688069009000984A468C
:102A60004146200000F00EF900280CD0206C04280C
:102A700007D12068006850F40070216808600120C8
:102A800063E0032061E0BFB2012F04D13000C0B287
:102A9000216808611DE0300080B2000AC0B22168E0
:102AA00008614A464146200000F0ECF800280CD0AE
:102AB000206C042807D12068006850F40070216859
:102AC0000860012041E003203FE03000C0B22168EF
:102AD00008614A464146200000F0D4F800280CD096
:102AE000206C042807D12068006850F40070216829
:102AF0000860012029E0032027E02068006850F4E6
:102B0000807021680860CDF80090434600225FF095
:102B10000111200000F022F8002801D0032014E069
:102B200055F00100C0B2216808614B4642460A498F
:102B3000200000F057F8002806D0206C042801D1AE
:102B4000012002E0032000E00020BDE8F283000045
:102B50000000FFFF08000100020001002DE9F04124
:102B600004000D0016001F00DDF81880280CC0B20C
:102B700001280AD120684069284080B2A9B2884261
:102B800001D101200BE0002009E020688069284085
:102B900080B2A9B2884201D1012000E000200028C3
:102BA00001D0012000E00020F6B2B04217D117F1A9
:102BB000010FDBD0002F05D000F096FDB0EB080030
:102BC0008742D3D200202063202084F83D000020DB
:102BD00084F83E00002084F83C00032000E0002040
:102BE000BDE8F081F8B504000D0016001F00280CA8
:102BF000C0B201280AD120684069284080B2A9B239
:102C0000884201D101200BE0002009E020688069A2
:102C1000284080B2A9B2884201D1012000E0002002
:102C200000282DD120684069400515D5206800682E
:102C300050F40070216808607FF48060216848616A
:102C40000420206400202063202084F83D00002020
:102C500084F83C00012014E016F1010FC7D0002ECB
:102C600004D000F041FDC01B8642C0D2002020638A
:102C7000202084F83D00002084F83C00032000E080
:102C80000020F2BD70B504000D00160020684069F8
:102C900000061ED4200000F078F8002801D00120A2
:102CA00018E015F1010FF1D0002D04D000F01CFD4B
:102CB000801B8542EAD2206C50F020002064002066
:102CC0002063202084F83D00002084F83C0003208D
:102CD00000E0002070BD70B504000D0016002068F3
:102CE000406940071ED4200000F04FF8002801D0B2
:102CF000012018E015F1010FF1D0002D04D000F0F3
:102D0000F3FC801B8542EAD2206C50F02000206446
:102D100000202063202084F83D00002084F83C003F
:102D2000032000E0002070BD70B504000D00160007
:102D300020684069400626D420684069C0060FD547
:102D40007FF010002168486100202064002020638B
:102D5000202084F83D00002084F83C00012013E08E
:102D6000002D04D000F0C0FC801B8542E0D2206C16
:102D700050F020002064202084F83D00002084F8DA
:102D80003C00032000E0002070BD0100086840699D
:102D900040050FD57FF480600A6850610420086404
:102DA00000200863202081F83D00002081F83C00CD
:102DB000012000E00020704780B56648006850F0B0
:102DC0000100644908606348006810F00100009049
:102DD00000986148006850F080505F4908605E4884
:102DE000006810F0805000900098032000F0FEFC76
:102DF000002200217FF00B0000F0FEFC00220021E9
:102E00007FF00A0000F0F8FC002200217FF00900AA
:102E100000F0F2FC002200217FF0040000F0ECFC46
:102E2000002200217FF0030000F0E6FC00220F21C9
:102E30007FF0010000F0E0FC00220F215FF0FF3086
:102E400000F0DAFC45490968080030F0E06050F015
:102E500000704249086001BD10B586B004002068CA
:102E60003F4988423CD13B48006850F400703949E2
:102E700008603848006810F4007000900098022044
:102E800001900320029001A9364800F0FBFC36486F
:102E90003649086000203549486000203349886081
:102EA00080203249C8604FF48070304908614FF487
:102EB00000602E49486120202C4988614FF4005061
:102EC0002A49C861294800F071FE002803D08021FA
:102ED000274801F03CF8254820622448446217E066
:102EE00020682449884213D11A48006850F4806051
:102EF000184908601748006810F480600090009836
:102F0000012001900320029001A9164800F0BAFCAC
:102F100006B010BD10B586B004002068164988427E
:102F200015D1C0200190122002900320049001A925
:102F3000124800F0A7FC0848006850F40010064949
:102F400008600548006810F400100090009806B072
:102F500010BD0000181002401C1002400400014087
:102F60000024014000080140080002408C2200209B
:102F700038D800080028014000540040000C0140EF
:102F800070B582B0040000252078C00740F184802D
:102F9000DFF8D406006810F00C0004280BD0DFF82E
:102FA000C806006810F00C0008280ED1DFF8B8063B
:102FB0000068C00309D5DFF8AC06006880036BD554
:102FC0006068002868D1012004E26068B0F5803FA5
:102FD00008D1DFF89006006850F48030DFF88416DE
:102FE000086038E06068002810D1DFF878060068D3
:102FF00030F48030DFF86C160860DFF8680600688F
:1030000030F48020DFF85C16086024E06068B0F5DA
:10301000A02F10D1DFF84C06006850F48020DFF8B4
:1030200044160860DFF83C06006850F48030DFF892
:10303000341608600FE0DFF82C06006830F48030AA
:10304000DFF820160860DFF81C06006830F48020E6
:10305000DFF810160860606800280ED000F044FB0E
:103060000500DFF800060068800315D400F03CFB83
:10307000401B6528F5D30320ACE100F035FB0500CB
:10308000DFF8E0050068800306D500F02DFB401B4B
:103090006528F5D303209DE1207880075CD5DFF813
:1030A000C805006810F00C0F0BD0DFF8BC050068F5
:1030B00010F00C0008281AD1DFF8AC050068C00336
:1030C00015D4DFF8A0050068800704D52069012821
:1030D00001D001207EE1DFF88C05006830F0F800B7
:1030E000616950EAC100DFF87C15086034E02069AE
:1030F00000281ED00120DFF88015086000F0F4FAE7
:103100000500DFF860050068800706D400F0ECFADF
:10311000401B0328F5D303205CE1DFF84805006875
:1031200030F0F800616950EAC100DFF83815086036
:1031300012E00020DFF84015086000F0D5FA050025
:10314000DFF820050068800706D500F0CDFA401BA7
:103150000328F5D303203DE1207800072CD5A06992
:10316000002816D00120DFF81415086000F0BCFA22
:103170000500DFF800050068800706D400F0B4FA07
:10318000401B0328F5D3032024E1012000F057FA67
:1031900012E00020DFF8E414086000F0A5FA050052
:1031A000DFF8D0040068800706D500F09DFA401BC8
:1031B0000328F5D303200DE12078400740F1A780D4
:1031C0000026DFF8BC040068C00010D4DFF8B004AB
:1031D000006850F08050DFF8A8140860DFF8A00401
:1031E000006810F080500090009801200600DFF881
:1031F00094040068C00516D4DFF88804006850F411
:103200008070DFF88014086000F06EFA0500DFF8C7
:1032100074040068C00506D400F066FA401B6528F7
:10322000F5D30320D6E0E068012808D1DFF8580480
:10323000006850F00100DFF85014086037E0E068E3
:10324000002810D1DFF84004006840084000DFF893
:1032500038140860DFF83004006830F00400DFF84C
:103260002814086023E0E068052810D1DFF818046E
:10327000006850F00400DFF810140860DFF808045C
:10328000006850F00100DFF8001408600FE0DFF87C
:10329000F803006840084000DFF8EC130860DFF82E
:1032A000E803006830F00400DFF8DC130860E06831
:1032B000002810D000F018FA0500DFF8CC030068F1
:1032C000800719D400F010FA401B41F2893188427E
:1032D000F3D303207EE000F007FA0500DFF8A8032F
:1032E0000068800708D500F0FFF9401B41F28931E2
:1032F0008842F3D303206DE0F6B2012E07D1DFF848
:103300008003006830F08050DFF874130860E069D3
:1033100000285ED0DFF85003006810F00C00082889
:1033200055D0E06902283FD10020DFF86013086023
:1033300000F0DAF90500DFF82C030068800106D5FB
:1033400000F0D2F9401B0328F5D3032042E0206AA5
:10335000B0F5803F09D1DFF81003006830F4003089
:10336000A1680843DFF800130860DFF8FC0200687A
:1033700030F47410216A0843616A0843DFF8E812E8
:1033800008600120DFF80413086000F0ADF90500C3
:10339000DFF8D002006880011BD400F0A5F9401BC3
:1033A0000328F5D3032015E00020DFF8E0120860C1
:1033B00000F09AF90500DFF8AC020068800108D53A
:1033C00000F092F9401B0328F5D3032002E001200E
:1033D00000E0002076BD70B504000D000026DFF887
:1033E000B002006810F00700A84211D2DFF8A00276
:1033F0000068C008C0002843DFF894120860DFF8B6
:103400009002006810F00700A84201D00120A3E05C
:103410002078800709D5DFF85002006830F0F0000E
:10342000A1680843DFF8401208602078C00758D52B
:103430006068012806D1DFF82C020068800312D4EE
:10344000012089E06068022806D1DFF818020068D0
:10345000800108D401207FE0DFF8080200688007BF
:1034600001D4012078E0DFF80002006880088000C5
:10347000616808437C49086000F036F9060060681E
:1034800001280ED17848006810F00C00042828D0DC
:1034900000F02AF9801B41F289318842F2D30320DF
:1034A0005AE0606802280ED16F48006810F00C00E6
:1034B000082816D000F018F9801B41F289318842A3
:1034C000F2D3032048E06848006810F00C0F08D0E1
:1034D00000F00AF9801B41F289318842F3D30320BE
:1034E0003AE06B48006810F0070085420ED2684849
:1034F0000068C008C0002843654908606448006847
:1035000010F00700A84201D0012025E020784007F4
:1035100007D55548006830F4E060E1680843524937
:1035200008602078000708D54F48006830F46050E4
:10353000216950EAC1004C49086000F00EF8554975
:10354000494A1268C2F30312515CC84048490860F6
:10355000002000F019FD002070BD70B586B001A8F4
:103560004D491022FDF79CFF4C480088ADF8000043
:10357000002100220023002400203B4D2D6829005B
:1035800011F00C05042D02D0082D03D01DE0374D9D
:1035900028001CE001ADC1F38346755D2C00CD030E
:1035A0000DD56D46304E3668C6F34046755D2A002F
:1035B0002E4D05FB04F5B5FBF2F52B0003E0384D6D
:1035C00005FB04F52B00180001E0284D280006B08B
:1035D00070BD27480068704780B5FFF7FAFF314992
:1035E000214A1268C2F30222515CC84002BD80B574
:1035F000FFF7EFFF2B491C4A1268C2F3C222515C4D
:10360000C84002BD0F220260174A126812F003027E
:103610004260154A126812F0F0028260124A126883
:1036200012F4E062C260104A1268D20812F4E0623A
:103630000261174A126812F007020A60704781B0EF
:103640000B490968C9084FF47A72B1FBF2F101FB2A
:1036500000F1009100BF00994A1E00920029F9D1A3
:1036600001B07047001002400410024000127A00BE
:103670002001002024100240000042428004424207
:103680001C100240007000402010024060004242C6
:1036900000200240D8DB0008B8DB00087E140008D8
:1036A00000093D009CDC000880B51148006850F01E
:1036B00010000F490860032000F098F8002000F087
:1036C00063FCFFF779FB002002BD0B480068094945
:1036D0000978081808490860084800680549097809
:1036E00008180649086070470348006870470000E2
:1036F000002002403A020020182400201C24002050
:1037000010F00702564B1B6819004FF6FF031940D3
:10371000544B53EA02231943514B196070475048E8
:103720000068C0F302207047012110F01F02914091
:103730004D4A40B2430942F82310704710B440B2DA
:10374000002808D50A01494B40B210F00F04E318D5
:1037500003F8042C03E00A01454B40B2C25410BCEC
:10376000704770B4030013F00704D4F10706052E68
:1037700001D3042001E0D4F10700261D072E01D259
:10378000002500E0E51E012616FA00F0401E084064
:10379000A8400121A940491E1140084370BC704750
:1037A000BFF34F8F2E48006810F4E06031490843A2
:1037B0002B490860BFF34F8F00BFFDE710B5040031
:1037C000601EB0F1807F01D301200EE0601E2A4907
:1037D00008600F215FF0FF30FFF7B0FF002027499E
:1037E0000860072026490860002010BD10B50400BD
:1037F0002000FFF785FF10BDF8B504000D0016008E
:103800000027FFF78CFF0700320029003800FFF780
:10381000A8FF0100200040B2FFF790FFF1BD10B5F6
:103820000400200040B2FFF77FFF10BD80B5FFF716
:10383000B7FF01BD10B504002000FFF7BFFF10BDAA
:10384000042806D10E49096851F004010C4A1160A0
:1038500005E00B49096831F00401094A116070471D
:103860000CED00E00000FA0500E100E018ED00E0DA
:1038700000E400E00400FA0514E000E018E000E0D5
:1038800010E000E02DE9F841002300240025002687
:103890005FF0000E5FF0000C6246102A80F04D8150
:1038A0005FF0010C1CFA02FC6346D1F800C013EA79
:1038B0000C0C64469C4240F03E81D1F804C0BCF13F
:1038C000000F3DD0BCF1010F24D0BCF1020F2BD072
:1038D000BCF1030F4CD0BCF1110F1FD0BCF1120F83
:1038E00028D0DFF88882C4452AD0DFF88482C44516
:1038F00026D0DFF88082C44522D0DFF87C82C44520
:103900001ED0DFF87882C4451AD0DFF87482C4452F
:1039100016D031E0D1F80CC066462DE0D1F80CC0CD
:103920001CF1040C664627E0D1F80CC01CF1080C11
:10393000664621E0D1F80CC01CF10C0C66461BE079
:10394000D1F808C0BCF1000F03D15FF0040C66464B
:103950000DE0D1F808C0BCF1010F04D15FF0080CF4
:103960006646036103E05FF0080C6646436103E0CE
:103970005FF0000C6646FFE7FF2C01D8070000E06F
:10398000071DFF2C02D85FEA820E03E0B2F1080C9B
:103990005FEA8C0ED7F800C05FF00F0818FA0EF837
:1039A0003CEA080C16FA0EF858EA0C0CC7F800C0EE
:1039B000D1F804C05FEACC0C40F1BD80DFF8C4C18F
:1039C000DCF800C05CF0010CDFF8B881C8F800C07A
:1039D000DFF8B0C1DCF800C01CF00108CDF80080B1
:1039E000DDF800C0DFF8A0C15FEA92085CF828C0EB
:1039F00065465FF00F0C12F003085FFA88F85FEA83
:103A000088081CFA08FC35EA0C05DFF880C160451F
:103A100002D15FF0000C16E0DFF874C1604502D1FE
:103A20005FF0010C0FE0DFF86CC1604502D15FF080
:103A3000020C08E0DFF860C1604502D15FF0030CC2
:103A400001E05FF0040C12F003085FFA88F85FEA07
:103A500088081CFA08FC5CEA0505DFF82CC15FEA5F
:103A600092084CF82850D1F804C05FEACC3C0AD543
:103A7000DFF828C1DCF800C054EA0C0CDFF81C8128
:103A8000C8F800C009E0DFF814C1DCF800C03CEA67
:103A9000040CDFF80881C8F800C0D1F804C05FEA60
:103AA0008C3C0AD5DFF8F8C0DCF800C054EA0C0CF6
:103AB000DFF8EC80C8F800C009E0DFF8E4C0DCF80B
:103AC00000C03CEA040CDFF8D880C8F800C0D1F888
:103AD00004C05FEACC2C0AD5DFF8C8C0DCF800C00F
:103AE00054EA0C0CDFF8BC80C8F800C009E0DFF82D
:103AF000B4C0DCF800C03CEA040CDFF8A880C8F8C9
:103B000000C0D1F804C05FEA8C2C0AD5DFF898C059
:103B1000DCF800C054EA0C0CDFF88C80C8F800C058
:103B200009E0DFF884C0DCF800C03CEA040CDFF8F0
:103B30007880C8F800C0521CAFE6BDE8F1810200F1
:103B4000936889B20B4202D00123180001E00023E0
:103B50001800C0B27047D2B2002A02D089B2016107
:103B600002E089B20B0403617047000000001110ED
:103B7000000012100000211000002210000031107F
:103B800000003210181002400800014000080140F7
:103B9000000C0140001001400014014000040140ED
:103BA00004040140080401400C040140010000220B
:103BB000002901D1012034E00868DFF8A03218188C
:103BC0001423B0FBF3F080000864DFF89402C863AC
:103BD000022081F821000868006802006FF30D12CE
:103BE00048688B681843CB6818430B6918434B69C6
:103BF00018438B691843CB69184302430868026075
:103C0000002088620020C86200200863002048630A
:103C100000208863012081F82100002081F8200025
:103C2000002070472DE9F04104000D0016001F0030
:103C30005FF0000894F82000012801D102203BE049
:103C4000012084F8200094F8210001282DD10220C1
:103C500084F821000020A06320680068400840002C
:103C6000216808603B0032002900200000F008F9BC
:103C7000E06A002806D02068006850F00E00216835
:103C800008600BE02068006830F0040021680860DC
:103C90002068006850F00A00216808602068006809
:103CA00050F001002168086004E0002084F8200042
:103CB000022080464046C0B2BDE8F08101000020ED
:103CC0000A68126832F00E020B681A600A681268FD
:103CD000520852000B681A6001220B6C9A40CB6BA1
:103CE0005A60012281F82120002281F82020C0B2F0
:103CF000704770B50400E06B056820680668042012
:103D0000216C884005423ED070073CD52068006891
:103D1000800605D42068006830F00400216808603F
:103D200020685049884201D1042023E020684E4990
:103D3000884201D140201DE020684C49884202D1D0
:103D40004FF4806016E020684949884202D14FF460
:103D500080400FE020684749884202D15FF480200C
:103D600008E020684449884202D15FF4800001E005
:103D70005FF0806041490860E06A00286DD0200053
:103D8000E16A884769E00220216C8840054244D0FE
:103D9000B00742D520680068800608D42068006813
:103DA00030F00A0021680860012084F821002068B2
:103DB0002C49884201D1022023E020682A49884208
:103DC00001D120201DE020682849884202D14FF40B
:103DD000007016E020682649884202D14FF4005056
:103DE0000FE020682349884202D15FF4003008E0E8
:103DF00020682149884202D15FF4001001E05FF0A1
:103E000000701E490860002084F82000A06A002885
:103E100023D02000A16A88471FE00820216C884039
:103E200005421AD0300718D52068006830F00E001F
:103E3000216808600120216C8840E16B4860012006
:103E4000A063012084F82100002084F82000206B6A
:103E5000002802D02000216B884770BDF8FFFDBF0D
:103E600000000240080002401C00024030000240F6
:103E700044000240580002406C000240040002402E
:103E800030B40124056CAC40C56B6C6004686360A1
:103E90004468102C04D10468A2600468E16003E067
:103EA0000468A1600468E26030BC704780B5FFF729
:103EB000FBFB00F0B1F800F023F900F06DF900F021
:103EC00083F900F0E5F901BD00B599B014A82249C5
:103ED0001422FDF7E5FA002114A800F017FA1F4993
:103EE00008600FA81E491422FDF7DAFA00210FA876
:103EF00000F00CFA1B4908600AA81B491422FDF7C0
:103F0000CFFA00210AA800F001FA1849086005A8B4
:103F100017491422FDF7C4FA002105A800F0F6F9AC
:103F200014490860684614491422FDF7B9FA0021C3
:103F3000684600F0EBF91149086019B000BD80B582
:103F4000FFF7B4FFFFF7C0FF00F0DBF9FEE70C4A14
:103F500010600C4A1180FEE7BCDA0008FC23002048
:103F6000D0DA000800240020E4DA0008042400204D
:103F7000F8DA0008082400200CDB00080C240020DC
:103F8000102400208624002070B588B0040000258D
:103F90000026002221001920FFF72EFC1920FFF730
:103FA0003EFC1948006850F4006017490860164844
:103FB000006810F400600090009801A902A8FFF7C3
:103FC00021FBFFF714FB05001048B5FBF0F0401E85
:103FD00006000F480F49086040F2E7300D49C860FD
:103FE0000C48466000200B490861002009498860A0
:103FF000084800F0B9F9002803D1064800F0D1F9CB
:1040000000E0012008B070BD1810024040420F00CF
:10401000002C0140D022002000B593B0022009906E
:1040200001200D9010200E900020109009A8FEF79E
:10403000A7FF002803D015212648FFF788FF0F208F
:10404000049000200590002006900020079000209A
:104050000890002104A8FFF7BEF9002803D023210F
:104060001C48FFF774FF0220009000200290684671
:1040700000F0A0FA002803D02A211648FFF767FFB6
:10408000FFF7A7FA4FF47A71B0FBF1F0FFF7D2FB1C
:104090000420FFF7D5FB00220F215FF0FF30FFF770
:1040A000ABFB13B000BD10B5040020680A4988427C
:1040B00001D1FFF70AFB10BD10B50400FFF789FA24
:1040C0000649B0FBF1F0A4B26043002801D0401EC5
:1040D000FBE710BD88D80008002C014040420F00CB
:1040E00010B50400FFF775FA4FF47A71B0FBF1F0E8
:1040F000A4B26043002801D0401EFBE710BD0000C1
:1041000000B585B02148006850F004001F490860E0
:104110001E48006810F00400009000981B480068DA
:1041200050F00800194908601848006810F00800AD
:104130000090009801224FF487611548FFF70BFDAE
:104140004FF487600190012002900020039003202B
:10415000049001A90E48FFF795FB4FF440700190C1
:10416000002002900020039001A90948FFF78AFB74
:104170004FF450400190002002900020039001A9CC
:104180000448FFF77FFB05B000BD00BF18100240D8
:1041900000080140000C014080B50A48006850F05A
:1041A0000100084908600748006810F0010000900D
:1041B0000098002205210B20FFF71EFB0B20FFF7C4
:1041C0002EFB01BD14100240E0B52B482B490860BE
:1041D00000202A49886001202849C860002027491A
:1041E00048615FF460202549C86100202349486088
:1041F000012022490861214800F0FEFA002803D07E
:104200001D211F48FFF7A3FE01200090012001900F
:10421000002002906946194800F001FD002803D0F3
:1042200027211748FFF793FE144800F04DFE07BD05
:104230000020C0B27E2809DA1249C0B251F820101D
:10424000114AC0B242F82010401CF2E7704710B586
:104250000400FFF7EDFF01200C49087010BD80B588
:104260007E220849054800F06BFB01BD80B503487C
:1042700000F01EFC01BD00000024014010230020BE
:10428000CCD80008381E0020401C002088240020C4
:1042900080B513481349086013481249486000204C
:1042A0001049886000200F49C8604FF480400D49D4
:1042B000086100200B49486100200A4988610020FC
:1042C0000849C8610020074908620648FDF7AAFEB0
:1042D000002803D016210548FFF739FE01BD00BFB5
:1042E0000054004038220020A08601000CD90008AC
:1042F0000100002009B2842902D009B2CA1C10189A
:10430000704780B500F083FF002002BD3EB5040079
:104310000D00B4F90800FFF7EBFF02A9019100902E
:104320002B00226992B22168606800F047FE0128E4
:1043300001D0002000E002983EBD38B50400012005
:10434000B4FBF0F5002D01D0280000E0012000F0C2
:1043500037FF002032BD80B501F088F9012801D077
:1043600001F0AFFA01BD000010B50400002C01D12E
:10437000012014E094F83D00002805D1002084F8C5
:104380003C00200000F00CF8022084F83D00211DC4
:10439000206800F0D4F8012084F83D00002010BD12
:1043A000704701000868C06850F001000A68D060DA
:1043B0000868006850F001000A681060002070472B
:1043C00010B504002068006980071AD52068C0680D
:1043D000800716D57FF00200216808610120207750
:1043E0002068806910F0030F03D0200000F0A4F8CB
:1043F00005E0200000F09FF8200000F09EF800206B
:1044000020772068006940071AD52068C0684007F7
:1044100016D57FF00400216808610220207720680B
:10442000806910F4407F03D0200000F085F805E09B
:10443000200000F080F8200000F07FF800202077B6
:104440002068006900071AD52068C068000716D5E3
:104450007FF0080021680861042020772068C06987
:1044600010F0030F03D0200000F066F805E02000F4
:1044700000F061F8200000F060F80020207720684C
:104480000069C0061AD52068C068C00616D57FF03E
:10449000100021680861082020772068C06910F4A6
:1044A000407F03D0200000F047F805E0200000F036
:1044B00042F8200000F041F80020207720680069D1
:1044C000C0070AD52068C068C00706D57FF0010084
:1044D000216808612000FFF7E6FD206800690006FA
:1044E0000AD52068C068000606D57FF080002168E4
:1044F0000861200001F019FA2068006940060AD519
:104500002068C068400606D57FF040002168086139
:10451000200000F013F82068006980060AD52068A2
:10452000C068800606D57FF0200021680861200061
:1045300001F0FAF910BD70477047704770470022CC
:1045400003681A00184B984208D0B0F1804F05D08C
:10455000164B984202D0164B984203D132F07002AB
:104560004B681A43104B984208D0B0F1804F05D0E9
:104570000E4B984202D00E4B984203D132F4407257
:10458000CB681A4332F080024B691A4302608B6891
:10459000C3620B688362044B984201D10B690363C9
:1045A0000123436170470000002C014000040040DB
:1045B00000080040F8B50400002500262078C00758
:1045C00066D5002781480068C0000DD47F48006888
:1045D00050F080507D4908607C48006810F08050A1
:1045E000009000980120070079480068C00513D4A6
:1045F0007748006850F4807075490860FFF774F8D8
:10460000050073480068C00506D4FFF76DF8401B2D
:104610006528F6D3032052E06E48006810F440701D
:104620000600002E23D0606810F4407086421ED031
:104630006848006830F44070060001206649086050
:1046400000206549086063480660F0070FD5FFF752
:104650004BF805005F480068800708D4FFF744F86E
:10466000401B41F289318842F4D3032027E05948A6
:10467000006830F440706168084356490860FFB232
:10468000012F05D15148006830F080504F49086033
:104690002078800707D55148006830F44040A16871
:1046A00008434E4908602078C00607D54B4800688B
:1046B00030F48000E1680843484908600020F2BDFA
:1046C0002DE9F04385B0040001A845491022FCF70C
:1046D000E7FE44480088ADF80000002500260027CA
:1046E0005FF000085FF000092000012832D00228A6
:1046F0005BD0102865D13948006880463A48006888
:10470000C00126D501A8C8F38341085C07005FEA11
:10471000C8300FD5684631490968C1F34041085C8B
:1047200005005FEAC83009D53048B0FBF5F07843A2
:10473000060003E02E4800FB07F00600274800684B
:10474000400201D5B14604E070000321B0FBF1F056
:10475000814636E01F480068804640F2023010EA89
:104760000800B0F5817F03D14FF4004081461BE083
:1047700018F44070B0F5007F07D11E48006880072C
:1047800003D549F6404081460EE018F44070B0F57C
:10479000407F07D114480068800303D54FF22440BE
:1047A000814601E0002081460BE0FEF720FF0B4927
:1047B0000968C1F38131491C4900B0FBF1F0814621
:1047C000FFE7484605B0BDE8F08300001C1002403A
:1047D0000070004020100240400442420410024099
:1047E000C8DB0008F61400080010024000127A002E
:1047F00000093D00241002402DE9F041040000258D
:10480000002600275FF00008002C01D1012095E070
:10481000A068002801D060690028A06A002807D19C
:104820000020E062002084F824002000FEF714FB42
:10483000200000F0E1FA0500A06AC00676D4EDB2CF
:10484000002D73D1A06A30F4885050F00200A062AD
:104850006068E1690843E16850EA41000743A068E5
:10486000B0F5807F02D0A068012802D14FF480709B
:1048700000E0002006436069012811D1E0680028AB
:1048800006D1A069401E400350F40060064307E0D3
:10489000A06A50F02000A062E06A50F00100E062DF
:1048A0002068406830F469403043216848602068DF
:1048B0008068DFF824150840384321688860A068C4
:1048C000B0F5807F02D0A068012802D14FF480703B
:1048D00000E00020B0F5807F03D12069401E000574
:1048E00080462068C06A30F4700058EA00002168F1
:1048F000C86220688068DFF8E4140840B84208D134
:104900000020E062A06A30F0020050F00100A062D6
:1049100012E0A06A30F0020050F01000A062E06ADD
:1049200050F00100E0620120050005E0A06A50F0AF
:104930001000A062012005002800C0B2BDE8F0818F
:10494000F8B504000D00160000272068DFF8981461
:10495000884204D02068DFF88814884205D1DFF847
:104960008404006810F4702000E00020002840F06B
:104970009A8094F82400012801D1022097E00120B8
:1049800084F82400200000F0EFF90700FFB2002FA8
:1049900040F08580A06ADFF85814084050F4807019
:1049A000A0622068DFF83814884209D1DFF83404A7
:1049B000006810F4702F01D1012002E0002000E017
:1049C000012000280ED0A06A30F48010A062206878
:1049D0004068400523D5A06A30F4005050F4805060
:1049E000A0621CE0A06A50F48010A0622068DFF88A
:1049F000F813884204D02068DFF8E413884205D118
:104A0000DFF8E003006810F4806000E00020002878
:104A100005D0A06A30F4005050F48050A062A06A23
:104A2000C00404D5E06A30F00600E06201E0002036
:104A3000E062002084F824000FF20940216A8862B5
:104A40000FF25540216AC8620FF25D40216A086387
:104A50007FF00200216808602068806850F4807050
:104A60002168886033002A00206810F14C01206A18
:104A7000FFF7D8F82068806810F46020B0F5602F48
:104A800006D12068806850F4A000216888600CE09E
:104A90002068806850F480102168886005E000205C
:104AA00084F8240001E0012007003800C0B2F2BD04
:104AB00038B50400002594F82400012801D1022013
:104AC00026E0012084F82400200000F095F905007C
:104AD000EDB2002D17D12068806830F48070216815
:104AE0008860206AFFF7EAF80500EDB2002D06D1D4
:104AF000A06A30F4885050F00100A06203E0A06A80
:104B000050F04000A062002084F824002800C0B2C9
:104B100032BD10B504002068406880062CD520689E
:104B20000068800728D5A06AC00603D4A06A50F4A4
:104B30000070A0622068806810F46020B0F5602FDB
:104B400013D1E068002810D12068406830F02000C0
:104B500021684860A06A30F48070A062A06AC00436
:104B600003D4A06A50F00100A0622000FFF76FFBA1
:104B70007FF012002168086020684068000637D581
:104B800020680068400733D5A06AC00603D4A06A35
:104B900050F40050A0622068806810F4E040B0F546
:104BA000E04F0DD02068406840051AD42068806826
:104BB00010F46020B0F5602F13D1E068002810D108
:104BC0002068406830F0800021684860A06A30F4B6
:104BD0008050A062A06AC00503D4A06A50F0010012
:104BE000A062200000F0E6F97FF00C002168086068
:104BF0002068406840060ED520680068C0070AD5C6
:104C0000A06A50F48030A062200000F006F87FF027
:104C100001002168086010BD70477047704778B484
:104C2000020000230020009092F82400012801D106
:104C3000022097E0012082F824004868072812D259
:104C40001068406B1F244D686D1E05267543AC40EF
:104C5000A0430C684D686D1E05267543AC4020438B
:104C60001468606327E048680D2812D21068006B52
:104C70001F244D68ED1F05267543AC40A0430C680A
:104C80004D68ED1F05267543AC4020431468206332
:104C900011E01068C06A1F244D680D3D052675435C
:104CA000AC40A0430C684D680D3D05267543AC40F3
:104CB00020431468E06208680A2812D31068C068AC
:104CC00007240D680A3D03267543AC40A0438C6859
:104CD0000D680A3D03267543AC4020431468E0602C
:104CE0000FE01068006907240D6803267543AC4087
:104CF000A0438C680D6803267543AC4020431468BC
:104D000020610868102802D00868112825D1106891
:104D1000354CA0421BD11068806800021DD4106879
:104D2000806850F400001468A0600868102814D14E
:104D30002E4800682F4CB0FBF4F00A24604300902A
:104D40000098002809D00098401E0090F8E7906A6B
:104D500050F02000906201200300002082F824001F
:104D60001800C0B272BC704738B50400002500209E
:104D7000009020688068C0072BD42068806850F0BD
:104D8000010021688860194800681A49B0FBF1F0F9
:104D900000900098002803D00098401E0090F8E78B
:104DA000FEF7A2FC050020688068C00711D4FEF75A
:104DB0009BFC401B0328F6D3A06A50F01000A062B1
:104DC000E06A50F00100E062002084F82400012035
:104DD00000E0002032BD0000FDF7E1FFFE0E1FFFE6
:104DE000002801400424014000240140200100204B
:104DF000FEF1FFFF40420F0038B504000025206897
:104E00008068C0071BD52068806840084000216882
:104E10008860FEF769FC050020688068C0070ED531
:104E2000FEF762FC401B0328F6D3A06A50F0100086
:104E3000A062E06A50F00100E062012000E0002082
:104E400032BD000038B50400656AA86A10F0500F42
:104E50001CD1A86A50F40070A8622868806810F419
:104E60006020B0F5602F0DD1E86800280AD1A86A4B
:104E700030F48070A862A86AC00403D4A86A50F015
:104E80000100A8622800FFF7E2F903E02000296A88
:104E9000096B884731BD000038B50400656A2800F9
:104EA000FFF7BAFE31BD000038B50400656AA86A94
:104EB00050F04000A862E86A50F00400E862280060
:104EC000FFF7ACFE31BD000070B582B004000025D4
:104ED0000020009094F82400012801D1022068E00D
:104EE000012084F824002000FFF786FF0500EDB2C2
:104EF000002D59D1A06A30F4885050F00200A06211
:104F00000220FFF7DDFBDFF8B0100968B1FBF0F01D
:104F1000400000900098002803D00098401E0090A8
:104F2000F8E72000FFF720FF2068806850F00800B5
:104F300021688860FEF7D8FB0600206880680007BB
:104F40000FD5FEF7D1FB801B0B28F6D3A06A30F0FB
:104F5000020050F01000A062002084F8240001201C
:104F600027E02068806850F0040021688860FEF720
:104F7000BBFB06002068806840070FD5FEF7B4FB36
:104F8000801B0B28F6D3A06A30F0020050F010000E
:104F9000A062002084F8240001200AE0A06A30F01A
:104FA000020050F00100A062002084F824002800D4
:104FB000C0B276BD70470000200100202DE9F04FFF
:104FC00085B004000D0016001F00DDF83880DDF804
:104FD0003C90B6B2B00000F0ABFC8346BBF1000FD2
:104FE0000DD0542000F0A4FC8246BAF1000F02D08C
:104FF000CAF830B005E0584600F026FD01E0002078
:105000008246BAF1000F14D000200390CDF808A01A
:10501000CDF80490CDF800803B00B6B232002900F4
:10502000200000F00DF8504600F06EF801200490CA
:1050300002E05FF0FF300490049805B0BDE8F08F07
:105040002DE9F14F0C0015001E000A9FDDF82C80A1
:10505000DDF83090D9F8300010EB8500001F824653
:105060005FEADA0A5FEACA0A1AF00700002807D0E6
:10507000502080F31188BFF34F8FBFF36F8FFEE78F
:1050800000208346BBF1100F0CD21BF804001BEB71
:10509000090181F834001BF80400002802D01BF13C
:1050A000010BEFE7002089F84300072F01D306200A
:1050B0000700C9F82C70C9F844700020C9F84800EE
:1050C00019F1040000F083FD19F1180000F07FFDD4
:1050D000C9F81090D7F10700C9F81800C9F8249052
:1050E0000020C9F84C00002089F8500032000099D7
:1050F000504600F047FBC9F80000B8F1000F01D09E
:10510000C8F80090BDE8F18F10B5040000F0A3FBD3
:10511000DFF818040068401CDFF810140860DFF89E
:105120001004006800280AD1DFF804040460DFF8E6
:10513000FC030068012811D100F014FA0EE0DFF83A
:10514000F4030068002809D1E06ADFF8E413096875
:10515000C96A884202D3DFF8D8030460DFF8D803B5
:105160000068401CDFF8D0130860DFF8F403006823
:105170000121E26A91400843DFF8E4130860211D31
:10518000DFF83404E26A142303FB020000F022FD7E
:1051900000F07EFBDFF89C03006800280FD0DFF8EA
:1051A00090030068C06AE16A884208D25FF08050CC
:1051B000DFF8E0140860BFF34F8FBFF36F8F10BDAF
:1051C00038B504000025002C15D0DFF89C040068D9
:1051D000002807D0502080F31188BFF34F8FBFF312
:1051E0006F8FFEE700F047F80021200000F068FA1A
:1051F00000F049F80500002D08D15FF08050DFF87D
:1052000094140860BFF34F8FBFF36F8F31BD1CB58F
:10521000DFF88C0401900020009000234022DFF88A
:1052200084140FF21930FFF7C9FE0400012C16D1C7
:10523000502080F31188BFF34F8FBFF36F8F5FF063
:10524000FF30DFF8641408600120DFF8E81208601E
:105250000020DFF85C14086000F0B9FA0AE014F1ED
:10526000010F07D1502080F31188BFF34F8FBFF398
:105270006F8FFEE713BDDFF8F0030068401CDFF816
:10528000E8130860704770B500240025DFF8D803E4
:105290000068002807D1502080F31188BFF34F8F9A
:1052A000BFF36F8FFEE700F0D6FADFF8BC030068AB
:1052B000401EDFF8B4130860DFF8AC030068002874
:1052C0005CD1DFF868020068002857D0DFF8CC0313
:1052D000006800282AD0DFF8C403C068C068040052
:1052E00014F1180000F09FFC201D00F09CFCDFF87A
:1052F000700200680121E26A91400843DFF8601201
:105300000860211DDFF8B002E26A142303FB0200EB
:1053100000F060FCE06ADFF818120968C96A884288
:10532000D4D30120DFF81C140860CFE7002C01D093
:1053300000F082F9DFF874030668002E0ED000F04A
:1053400021F8002803D00120DFF8F8130860761E4A
:10535000002EF4D10020DFF854130860DFF8E403D6
:10536000006800280AD0012005005FF08050DFF8B7
:1053700024130860BFF34F8FBFF36F8F00F088FADC
:10538000280070BD2DE9F0410026DFF8DC0200683E
:10539000002840F08080DFF818030068471CDFF821
:1053A00010030760002F24D1DFF8080300680068AD
:1053B000002807D0502080F31188BFF34F8FBFF330
:1053C0006F8FFEE7DFF8EC0200688046DFF8E80246
:1053D0000068DFF8E0120860DFF8DC02C0F8008047
:1053E000DFF8D8020068401CDFF8D012086000F037
:1053F00023F9DFF8B402006887423ED3DFF8B40235
:1054000000680068002805D15FF0FF30DFF89812CF
:10541000086032E0DFF89C020068C068C0680400E1
:1054200060680500AF4203D2DFF87C02056024E02B
:10543000201D00F0F8FBA06A002803D014F118002A
:1054400000F0F1FBDFF8180100680121E26A9140E9
:10545000084343490860211DDFF85C01E26A142318
:1054600003FB020000F0B6FBE06A31490968C96A33
:105470008842C3D301200600C0E7DFF83C012C4975
:105480000968C96A142202FB01000068022809D3D6
:105490000120060006E0DFF814020068401CDFF877
:1054A0000C120860DFF89C020068002801D001207F
:1054B00006003000BDE8F081DFF8AC01006800288C
:1054C00004D00120DFF87C1208602DE00020DFF816
:1054D0007412086022490968B1FA81F1D1F11F0103
:1054E00008003549142202FB00110968002907D180
:1054F000502181F31188BFF34F8FBFF36F8FFEE709
:105500002D4A142303FB002211004A6852684A60A6
:105510004A6811F108039A4202D14A6852684A6007
:105520004968C968024A116070470000542400208D
:1055300044240020602400207024002010B50400C2
:1055400000F03EF81C4800680228F9D35FF0805054
:10555000DFF800120860BFF34F8FBFF36F8FEFE7E4
:105560005C24002010B500200400072C07D212484C
:10557000142101FB040000F01BFB641CF5E7DFF8BD
:10558000D80100F015FBDFF8D40100F011FBDFF8C3
:105590000C0100F00DFB094800F00AFB3E4800F04A
:1055A00007FBDFF8B401DFF80C110860DFF8AC018D
:1055B000DFF8AC11086010BD2C2100209C230020D6
:1055C00038B5DFF8A001006800282BD0FFF753FEA4
:1055D000DFF894010068002801D1012400E00024D4
:1055E000FFF751FE002CECD100F035F9DFF878011F
:1055F000C068C0680500281D00F015FBDFF84C01ED
:105600000068401EDFF844110860DFF858010068A8
:10561000401EDFF85011086000F03AF9280000F051
:1056200002F8CEE731BD10B50400206B00F00CFA93
:10563000200000F009FA10BDDFF878100968096849
:10564000002905D15FF0FF31DFF85C20116009E02F
:10565000DFF860100968C968C96808004168DFF8A8
:1056600048201160704700007C240020DFF8FC1007
:105670000968002902D10121080009E0DFF8F010D3
:105680000968002902D10221080001E00021080078
:105690007047000004ED00E0B023002088230020C4
:1056A00078240020A4DC0008742400206424002056
:1056B00058240020482400204C2400206C24002082
:1056C000F8B504000D002048076821480068001D57
:1056D00000F0A9FA00280BD11D4800682549096887
:1056E0000122C06A12FA00F031EA00002149086084
:1056F00014F1010F08D1002D06D015480068011DD6
:105700001D4800F067FA1BE0E01906001048006829
:105710004660BE4207D20E480068011D104800686E
:1057200000F064FA0CE00A480068011D13480068A4
:1057300000F05CFA12480068864201D21048066008
:10574000F1BD0000682400205824002054240020CB
:105750004424002004ED00E0602300207423002096
:105760004C240020502400209C2300206024002092
:105770007C2400205C240020B0230020482400204A
:1057800074240020001F5FF080730360001F4B082B
:105790005B000360001F0FF20D030360143802600A
:1057A000203870475748006810F1010F07D050208B
:1057B00080F31188BFF34F8FBFF36F8FFEE7502048
:1057C00080F31188BFF34F8FBFF36F8FFEE700B5F3
:1057D00083B04D4801780191FF21017001788DF867
:1057E00000109DF8001011F05001484A1170072177
:1057F000474A11609DF8001009060AD54449096816
:10580000491E434A11609DF8001049008DF80010B0
:10581000F0E73F49096809023D4A11603C490968BF
:1058200011F4E0613A4A1160019901703948006849
:1058300050F47000374908603648006850F07040F6
:105840003449086000F051F800202E49086000F04B
:1058500032FA00200EBD502080F31188BFF34F8F25
:10586000BFF36F8F27480068401C26490860254811
:10587000006801280BD128480068000607D0502096
:1058800080F31188BFF34F8FBFF36F8FFEE7704730
:105890001C480068002807D1502080F31188BFF30E
:1058A0004F8FBFF36F8FFEE716480068401E154903
:1058B000086014480068002802D1002080F3118895
:1058C000704780B5502080F31188BFF34F8FBFF32E
:1058D0006F8FFFF757FD002803D05FF080500E490F
:1058E0000860002080F3118801BD0C4800684FF467
:1058F0007A71B0FBF1F0401E0949086007200949A0
:10590000086070471C01002000E400E08A240020A9
:105910001424002020ED00E004ED00E02001002030
:1059200014E000E010E000E0704770470000000065
:105930002DE9F04104005FF00008FFF79CFC95485A
:105940000068002801D100F0BBF8934800680442C9
:1059500069D1002C15D091480068041914F0070F84
:105960000FD014F1080014F00701441A14F0070FC7
:1059700007D0502080F31188BFF34F8FBFF36F8F94
:10598000FEE7002C4FD086480068A0424BD38548E4
:1059900006008448006805006868A04205D22868AF
:1059A000002802D02E002D68F6E77A48006885426C
:1059B00039D030687949096808188046286830600D
:1059C0007648006840006968091B884214D2601953
:1059D000070017F00700002807D0502080F3118837
:1059E000BFF34F8FBFF36F8FFEE76868001B7860CF
:1059F0006C60380000F09BF8694800686968401ADC
:105A0000674908606648006867490968884203D2A8
:105A1000634800686449086068685F49096808432A
:105A2000686000202860FFF72EFC18F007000028AF
:105A300007D0502080F31188BFF34F8FBFF36F8FD3
:105A4000FEE74046BDE8F08170B504002600002C5A
:105A500035D052480068361A350068684E490968E2
:105A6000084207D1502080F31188BFF34F8FBFF356
:105A70006F8FFEE72868002807D0502080F3118838
:105A8000BFF34F8FBFF36F8FFEE768684249096825
:105A9000084214D02868002811D168683E49096876
:105AA00088436860FFF7E7FB3D48006869680818AD
:105AB0003B490860280000F03AF8FFF7E4FB70BDAE
:105AC00030B44FF48053394C220012F0070F05D048
:105AD000D21DD208D2009B1A344CE3181100314C6D
