:020000040800F2
:100000006805002089AA0008A9A60008ABA6000878
:10001000B3A60008BBA60008C3A6000800000000A5
:10002000000000000000000000000000477700080A
:10003000CBA600080000000001770008CDA600084C
:100040003DAB000841AB000845AB000849AB0008D8
:100050004DAB000851AB000855AB000859AB000888
:100060005DAB000861AB000865AB0008D5A60008D1
:1000700069AB00086DAB000871AB000875AB0008F8
:1000800079AB00087DAB000881AB000885AB0008A8
:1000900089AB00088DAB000891AB000895AB000858
:1000A00099AB0008E5A600089DAB0008A1AB0008CD
:1000B000A5AB0008A9AB0008ADAB0008B1AB0008C8
:1000C000B5AB0008B9AB0008BDAB0008C1AB000878
:1000D000C5AB0008C9AB0008CDAB0008D1AB000828
:1000E000D5AB0008D9AB0008DDAB00082DE9F04F17
:1000F00080460FF23060A5B015461E46D0E90023B9
:10010000CDE91223002004910D900DF1500A6FF0FB
:10011000004900E065190020ADF8020012AB4FF075
:10012000FF3229460DF1020001F093F80446012C3C
:1001300004DA2878441EA441E443E40FBDF8020029
:1001400025280CBFA4F1010BA346BBF1010F0EDB68
:100150002F4617F8011B0498C0470028049000F0B0
:10016000F3800D98401CBBF1010B0D90F1D1BDF84F
:100170000200252807D100200790089009900A90D6
:100180000B900C9005E00028C4D10D98D2E240F00D
:10019000010015F8011F2029F9D023290DD02B29A2
:1001A00004D02D2906D030290AD00CE040F00200FE
:1001B00080B2EEE740F00400FAE740F00800F7E70D
:1001C00040F01000F4E72A290ED13168316051F86F
:1001D000042B3160002A0F9204D5514240F00400F4
:1001E0000F9180B26D1C11E000210F9109E00F9971
:1001F000494505D001EB810302EB430130390F91F2
:100200006D1C2A78A2F130010A29F0D329782E2911
:1002100003D04FF0FF310E911DE015F8011F2A2980
:1002200007D1316831606D1C51F8042B31600E929A
:1002300011E000210E9109E00E99494505D001EB2E
:10024000810302EB430130390E916D1C2A78A2F133
:1002500030010A29F0D3ADF840000FF2D0402978E0
:1002600001F014F808B115F8010B8DF842009DF863
:100270004200682802BF29786829622005D06C28CE
:1002800004BF28786C2803D171208DF842006D1CC2
:1002900014A8069015F8014BB4F125002AD01C389B
:1002A00000F0D480001F022840F2D080133800F004
:1002B000F580093800F0CA80801E00F05C81401E85
:1002C00000F03581401E022840F2C080001F00F07F
:1002D0002E81401F00F08B80401E00F0DF80401E0A
:1002E00035D0C01E0BD0801E00F0D880C01E00F09C
:1002F000D58063E125208DF85000012067E19DF84D
:1003000042006C283068306014D050F8047B3060B4
:1003100005970E9C002C04D5384600F0C3FF044618
:1003200006E022460021384600F0D8FF00B1C41B89
:1003300008944DE150F8042B306002A9404600F0CB
:1003400033FA002840F144814FF0FF30F2E1316888
:1003500031603C2451F8040B31600021CDE90201E9
:1003600014A80590DDE90201069F11B908B90E9A9B
:10037000B2B10206120FA0EB02123032D2B2631EEB
:100380003A2AA8BF27320009DA5540EA0170090964
:1003900008BF00281C4603D0059AE3199A42E8D307
:1003A000E0190590C4F13C010E980891814209DAE8
:1003B000401A0A904FF6EF71BDF840000840ADF8C2
:1003C000400005E1002840F103819DF8400000F065
:1003D0001400102840F0FC800F98079A801A0A9A9F
:1003E000801A441A012CC0F2F3800A94F0E09DF8C0
:1003F000420062281AD0682806D06A280CD06C28DF
:100400001CD0712808D019E03068306050F8041B07
:1004100030600D980880DBE03068306050F8042BC5
:1004200030600D98C117C2E90001D1E0306830603A
:1004300050F8041B30600D980870C9E030683060D7
:1004400050F8041B30600D980860C1E03068C01D92
:1004500020F007023260D2E9000108323260CDE9B3
:100460000201002902D507982D210AE0BDF84000BD
:10047000810702D507982B2103E0C00705D507980F
:10048000202100F80A10401C079014A807990818AA
:100490000590214602A800F091FB99E09DF84200EA
:1004A0006C280DD0712818BF6A2809D13068C01D8A
:1004B00020F007023260D2E900010832326005E024
:1004C0003168316051F8040B31600021CDE902013F
:1004D0009DF84200682803D1DDE9020180B20BE0FB
:1004E000622803D1DDE90201C0B205E0742818BF1B
:1004F0007A2804D1DDE902010021CDE902019DF84D
:10050000400000072ED5DDE90201002908BF0028C0
:1005100028D044F02000782824D10798302100F812
:100520000A10401C411C079100F80A401AE09DF88F
:100530004200314600F001F9CDE90201002902DA5A
:1005400007982D210AE0BDF84000810702D50798E1
:100550002B2103E0C00705D50798202100F80A10D9
:10056000401C079014A8079908180590214602A876
:1005700000F0A0FA2CE09DF842006C2809D0012080
:1005800007903068306050F8041B30608DF85010D0
:100590001EE03068306001AA50F8041B3060ADF8EE
:1005A00004100020ADF8060002A94FF0FF300E90B5
:1005B000404600F0F9F800280AD5C5E625208DF858
:1005C0005000012007901CB18AF8014002200790DA
:1005D0000F980799401A0A99401A0899401A0B99DE
:1005E000401A0999401A0C99441A9DF84000400796
:1005F00010D42020012C8DF800000BDB27460123AE
:100600006A4602A9404600F000FE00287FF49CAE36
:100610007F1EF4D1DDF81CB0BBF1000F14AF0DD07C
:1006200017F8011B0498C047002804903FF48CAED3
:100630000D98401CBBF1010B0D90F1D130208DF8CD
:1006400000000A9F012F0ADB01236A4602A94046E7
:1006500000F0DBFD00287FF477AE7F1EF4D1DDF8DB
:1006600020B0059FBBF1000F0DD017F8011B0498B7
:10067000C047002804903FF467AE0D98401CBBF1C2
:10068000010B0D90F1D130208DF800000B9F012F50
:100690000ADB01236A4602A9404600F0B6FD0028A5
:1006A0007FF452AE7F1EF4D105980899DDF824B08E
:1006B0000F18BBF1000F0DD017F8011B0498C047AD
:1006C000002804903FF440AE0D98401CBBF1010B94
:1006D0000D90F1D130208DF800000C9F012F0ADB26
:1006E00001236A4602A9404600F08FFD00287FF4EE
:1006F0002BAE7F1EF4D19DF8400040077FF50BAD77
:100700002020012C8DF80000FFF605AD01236A467C
:1007100002A9404600F079FD00287FF415AE641E62
:10072000F4D1F8E40000000000000000686A6C7476
:100730007A4C000025B0BDE8F08F622826D06828EA
:100740001DD06A2808D06C2827D0712804D07428BE
:1007500023D07A280CD020E00868C01D20F00700C4
:100760000860D0E900230830086019461046704739
:100770000A680A6052F8040B0A60002170470A6890
:100780000A6052F8040B0A6000B20BE00A680A60C3
:1007900052F8040B0A6040B204E00A680A6052F89A
:1007A000040B0A60C11770472DE9F44F0D4694B051
:1007B000D5F830A0BAF1000F804648BF6FF0004A6C
:1007C00000F0B8FD696B401801900FF66C20D0E97D
:1007D0000023CDE9022395F83800400702D40198A0
:1007E000412805D240200DF110090190002609E0B2
:1007F00000F0A6FD5FEA0009F8D14FF0FF3056E1A6
:10080000AAEB040ABAF1010FC0F2CE801498018855
:1008100002AA0DF1010000F0EBFD0028044600F1F2
:10082000DE801498008810B9641E00F1D880A245BB
:10083000C0F2BA80686901992218914280F0A280C2
:100840006E634042296A401AA969401A696A401ACF
:10085000E969401AA96A461A95F83800400710D489
:100860002020012E8DF800000BDB374601236A465D
:100870002946404600F0C9FC002840F0B0807F1EA9
:10088000F4D1D5F814B0BBF1000F4F460DD017F8D6
:10089000011BA868C0470028A86000F0A080E86A93
:1008A000401CBBF1010BE862F1D130208DF8000053
:1008B0002F6A012F0ADB01236A462946404600F0D1
:1008C000A4FC002840F08B807F1EF4D1D5F818B02E
:1008D000EF68BBF1000F0CD017F8011BA868C047E8
:1008E0000028A8607BD0E86A401CBBF1010BE862DD
:1008F000F2D130208DF800006F6A012F09DB01234F
:100900006A462946404600F080FC002867D17F1ED9
:10091000F5D1E868A969D5F81CB00F18BBF1000F34
:100920000CD017F8011BA868C0470028A86056D053
:10093000E86A401CBBF1010BE862F2D130208DF86F
:100940000000AF6A012F09DB01236A4629464046B1
:1009500000F05BFC002842D17F1EF5D195F83800ED
:1009600040070DD52020012E8DF8000008DB012363
:100970006A462946404600F048FC80BB761EF6D108
:1009800000266E61224668690DF10101484400F0BD
:100990003DFD6869201868611498801C1490801EC1
:1009A000008800287FF42CAF686B6969401A296AB7
:1009B000401AA969401A696A401AE969401AA96A85
:1009C000A0EB010A95F83800400710D4BAF1010FE6
:1009D0000DDB5446A8682021C047A86010B94FF02D
:1009E000FF365DE0E86A401C641EE862F2D16B6984
:1009F0004A462946404600F008FC0028EFD12C6A00
:100A0000012C0ADBA8683021C0470028A860E6D086
:100A1000E86A401C641EE862F4D1AB69EA682946C2
:100A2000404600F0F2FB0028D9D16C6A012C0ADBA9
:100A3000A8683021C0470028A860D0D0E86A401CD0
:100A4000641EE862F4D1E868A969EB690A182946CE
:100A5000404600F0DAFB0028C1D1AC6A012C0ADB69
:100A6000A8683021C0470028A860B8D0E86A401CB8
:100A7000641EE862F4D195F8380040070ED5BAF14B
:100A8000010F0BDBA8682021C0470028A860A6D072
:100A9000E86A401CBAF1010AE862F3D16E616E6344
:100AA00004A881451CBF484600F0ECFC304615B058
:100AB000BDE8F08F2DE9FA4E05460A462F696F2AE8
:100AC00008BF082405D041F02000782814BF0A246C
:100AD00010243C26D5E90001642A18BF692A814602
:100AE0008A4605D1002903DAD9F100096AEB4A0ADE
:100AF000BAF1000F08BFB9F1000F0CD1286B50B943
:100B0000082C36D195F83800000732D530203B2626
:100B100087F83B002DE0E31748465146224600F097
:100B2000F1FCA4FB0023A9EB02023032D2B2A6F101
:100B3000010B3A2A5E4603DB9DF80030513B9A18C0
:100B40000BF8072081465FEA010A08BFB9F1000FE0
:100B500003D0E868F1198842DDD3082C09D195F853
:100B60003800000705D5F05D302802D0761E302011
:100B7000F055C6F13C00A861F119E960296B884283
:100B800008DA081A28624FF6EF71288F0840288784
:100B9000BDE8F38E00290ED595F8381001F0140148
:100BA000102908D1696B6A69891A2A6A891A0E1A8A
:100BB000012EA8BF2E62BDE8F38E00002DE9F24F92
:100BC00004468EB0D4E90001CDE9020104AF9DF8DE
:100BD000380040F0200BBBF1610F0AD0206B0028D9
:100BE00048BF062004D408BFBBF1670F01D1012024
:100BF00020636168C1F30A5040F2FF7290421CD139
:100C0000080304BF2068002809D10320A0619DF8D3
:100C1000380061381A2836D30FF2306108E003201B
:100C2000A0619DF8380061381A2829D30FF21461A9
:100C3000E068032200F0EAFBBEE1012816DA204654
:100C400000F0D7FC012811DB00250020BBF1610F6B
:100C500020D1E168302201F8012B4A1CE2609DF8A6
:100C60003820612A0CBF782258220FE0626840F2D7
:100C7000FE3161F31E52451A62604FF0FF30E5E726
:100C80000FF2BC51D4E70FF2C051D1E70A7061698D
:100C9000891C616110B90026002584E1BBF1610F58
:100CA00040F09880206B00284CBF2126461CD4E9D8
:100CB00000ABDDE902010022002300F0BBFC36B2EC
:100CC0003ABF8BF00040CDE902A0CDE902AB06F1BE
:100CD00001082D1FB8F1010F8DF810200DF111073B
:100CE00036DBDDE902010022002300F0BBFC2FD23D
:100CF0001C2102A800F0CEFCDDE9020100F050FD4D
:100D0000A8F10708B8F1010F814609DB00F074FD76
:100D100002460B46DDE9020100F086FDCDE9020145
:100D2000F81D072105E009F00F0200F8012D4FEA38
:100D30002919B9F1010F01DB491EF4D5491E5CBF29
:100D4000002200F8012DF9D5C71DB8F1010FC8DA4E
:100D50000DF11100391AB142B8BF0E4636B230005B
:100D60000DF111072FD4884206DA04A941184978F9
:100D70000829A8BF0F2100DA002104AA821800E088
:100D8000761E12F80139401E8B42F9D00F2904D18A
:100D900004A941184A78521C4A70002802D504AFB1
:100DA000761C2D1D36B2701E0DD4C1190A78303252
:100DB000D2B23A2A03DB9DF838303A3B9A18401EEB
:100DC00001F80129F2D5206B002840F1EC80701E5B
:100DD0002063E8E0DDE902010022002300F02AFCA4
:100DE0003CBF81F00041CDE902012DB247F297509E
:100DF00068434B49DFF82C9190FBF1F52DB2C5F11A
:100E0000070ABAF1010F90461CDBDDE902675FEAD1
:100E1000CA7007D542464B463046394600F0C4FDFD
:100E200006460F464046494642464B464FEA6A0A46
:100E300000F0BAFDBAF1000F80468946E7D1CDE94E
:100E4000026724E0CAF1000A0026374F14E05FEA87
:100E5000CA7007D542464B463046394600F0A4FDDD
:100E600006460F464046494642464B4600F09CFD2A
:100E70004FEA6A0A80468946BAF1000FE7D1DDE9F8
:100E8000020132463B4600F061FECDE90201BBF1B2
:100E9000660F0CBF05F10A000620216BDFF88C906D
:100EA0004618142EA8BF132630208DF810000DF11F
:100EB0001107012E3CDBDDE9020100F087FC07F1A0
:100EC000080104220A23B0FBF3F303EB8307A0EB32
:100ED0004700303001F8010C0A20B3FBF0F000EBC2
:100EE0008007A3EB47033033521E01F8023DE9D1DE
:100EF000083E012E01F10807DBDBDDE9020100F00D
:100F000065FC00F083FC02460B46DDE9020100F0BF
:100F10008BFC00224B4600F047FDCDE90201CAE7F9
:100F2000A0860100000024400000F03F84D79741D4
:100F30000DF11100381A0DF1110702E0401E6D1E6F
:100F40007F1C39783029F9D0BBF1660F02D12DB260
:100F5000691C04E0BBF1650F0CBF01210021226B6D
:100F60008E1836B2B042B8BF064636B231001AD437
:100F7000814204DAC85D3528A8BF392000DA302064
:100F8000CA19521E00E0761E12F80139491E83422A
:100F9000F9D0392802D1C85D401CC855002902D5B6
:100FA0007F1E761C6D1C2DB29DF83810009533B253
:100FB0003A46204600F003F80FB0BDE8F08F2DE967
:100FC000F04786B006468A4690461D4600F007FF69
:100FD000012D406A376B90F8009002DA01250FF27C
:100FE00070284AF02000BDF93840662808BF641C0C
:100FF00012D0672876D114F1040F79DBBC4277DA7E
:1010000096F83800641C000702D4BD42B8BF2F46D2
:1010100024B23F1B48BF002724B2F068B169012CFD
:1010200021DA4A1C30230B54012F03DA96F83810CA
:10103000090702D502F80090521CB261E742B8BF1E
:101040007C4224B26142E7197162AF42B8BF3D46AB
:10105000B3692DB2F5612A464146181800F0D6F959
:10106000781BB062BAE00818A54216DA2A46414653
:1010700000F0CCF9B1696918601B012FB161706291
:1010800003DA96F83800000705D5F06801F80090FB
:10109000F069401CF061B762A0E02246414600F0D2
:1010A000B5F9B06920182D1B012F03DA96F8381016
:1010B000090703D5F16800F80190401C2DB2B0611A
:1010C000AF42B8BF3D46F068B3692DB22A4604EB83
:1010D0000801181800F09AF9B0692818B061781B57
:1010E00070627BE0BAF1610F14D14FF0700A16E024
:1010F000BD4204DA96F83810090758BF2F467F1E04
:1011000048BF0027BAF1670F14BF4FF0450A4FF0F0
:10111000650A04E0BAF1410F08BF4FF0500AB16907
:10112000F0684A1CB261012F18F8013B0B5403DA36
:1011300096F83810090715D5531CB36102F80090D2
:10114000012F0FDB6D1E2DB2AF42B8BF3D462DB251
:101150002A464146181800F059F9B0692818B061BC
:10116000781B7062F068B1690918200081F800A04E
:1011700004D42B20487001F1020804E02D224A70AB
:1011800001F102086442002502AF08E00A22684625
:1011900000F03EFE019807F8010B6D1C009C21B287
:1011A0000129F3DA022D06DA4AF02000652804BF8F
:1011B000302008F8010B4DB9302008F8010B07E08A
:1011C0006D1E02A8285C303008F8010B012DF7DAFB
:1011D000F068B1690818A8EB0000F06196F83800D3
:1011E00000F0140010280DD17069B1690818716AF7
:1011F0000818F1690818B16A0818716B8842BCBFF9
:10120000081A306206B0BDE8F087F8B504460D460E
:1012100016461F46002077B116F8011BA868A047A4
:10122000A86030B1E86A401CE86200207F1EF3D15C
:10123000F2BD4FF0FF30F2BD0000000000000000E2
:101240006E616E004E414E00696E6600494E46006A
:101250003000F8B504460D4616461F4600F0E0FD86
:101260003B4632462946204601B0BDE8F04000F03A
:10127000EEBD8268521C8260426832B10268531C23
:10128000036011704168491E416070470278C9B21D
:101290008A421AB11CBF10F8012FF9E718BF0020CD
:1012A0007047010200F10103810704D010F8011B0F
:1012B00089B18107FAD10268B2F10131914311F08D
:1012C000803F04BF50F8042FF6E710F8011B11B15E
:1012D00010F8011BFBE7C01A70470102C9B283076F
:1012E00006D0521E22D310F8013B9942F7D11FE0DD
:1012F000083A13D302F1040241EA012141EA014113
:1013000050F8043B121F21BF4B40A3F1013C2CEAD3
:10131000030C1CF0803FF3D0C9B2001F083210F854
:10132000013B521E28BF91EA030FF8D818BF0120D5
:10133000401E704780B500F073FD012002BD000023
:1013400070B5054605F10F00C408C046C046E4006C
:10135000A54232D2082C04D2082402E0083000F062
:1013600091F82248026811000CD1011D0A6802B3ED
:101370001368A34238BF111DF8D310E01D68A542C1
:101380000DD2191D0B68002BF8D11268011D00E069
:10139000191D0B6893420CD01D68A542F8D361B1AA
:1013A0000D682A68A2F10803A3420AD26A680A609B
:1013B0000FE000F06FFD0028D0D1C046C0460020ED
:1013C00070BD63190B60121B6E685E600B681A605B
:1013D0002C60096800291DBF4A68002A091D0021E8
:1013E0000160C046C04605F1080070BDA81E00207F
:1013F00070B504460D46164600F012FD32462946E9
:101400002046BDE8704000F015BD000062B38B07B8
:1014100008D0521E11F8013B00F8013B00F0248077
:101420008B07F6D1830740F0208000BF103A07D326
:1014300030B4B1E83810103AA0E83810F9D230BC16
:10144000530724BFB1E80810A0E8081044BF51F8C2
:10145000043B40F8043BD20724BF31F8022B20F8AC
:10146000022B44BF0B7803707047083A07D3B1E8EA
:101470000810083A40F8043B40F804CBF7D2530771
:10148000E4E7000000B9704738B5A0F1080420680F
:10149000082833D310F0070F30D1C046C046184893
:1014A000416809B18C4203D26160446017E019467B
:1014B0004B680BB1A342FAD30B685D18AC421BD347
:1014C000A54204D12268D2180A600C4607E04A6897
:1014D0001AB123681B199A420ED362604C6061688E
:1014E00051B1226813198B4206D1002303600868AA
:1014F0008018206048686060C046C04631BD00006A
:10150000A81E00201B4213D1094236D12AB18446BD
:10151000B0FBF2F002FB10C2704700F0D1BCFCD36C
:101520000022002370470B000200002100207047BA
:10153000904271EB030CF6D370B5B1FA81F4B3FAB3
:1015400083F52C1BA340C4F1200532FA05F6334382
:10155000A2405FF00046E64002E05B085FEA32022C
:10156000841A71EB030524BF204629467641F4D343
:1015700002000B003000002170BD012ACFD970B5E8
:10158000140C20D0B1FA81F4B2FA82F5C4F120042F
:101590006419B4F12006D6D3B2405FF00044F440A1
:1015A000002502E052085FEA3303C61A71EB020E0F
:1015B00024BF3046714664416D41F3D302000B00F5
:1015C0002000290070BD0C46B1FBF2F102FB114571
:1015D0002D0445EA1045B5FBF2F402FB145580B228
:1015E00040EA0545B5FBF2F002FB105240EA044028
:1015F00070BD30B4436803F0004201211B031B0B94
:10160000436004BF0368002B08D10DE00368DD0FC1
:1016100045EA440444605B000360491E4468E302F9
:10162000F4D523031B0B436043681A43426008460A
:1016300030BC70474FF4001C1CEB410F94BF1CEBF7
:10164000430F09E041EA030C50EA4C0C52EA0C0C3F
:1016500003D2994208BF9042704714BF8B42824226
:10166000704700004FF4001C1CEB410F94BF1CEBB3
:10167000430F09E041EA030C50EA4C0C52EA0C0C0F
:1016800003D28B4208BF8242704714BF99429042F6
:101690007047000070B504460D466068C0F30A50FC
:1016A00040F2FF71884207D16068000304BF2068E0
:1016B000002817D0022070BD20B92046FFF799FFFF
:1016C000012866DA012D0FDB40F2FF71091A8D4205
:1016D0000AD36068002847BF00202F4900202F4907
:1016E000C4E90001012070BD4142A942616806DAE7
:1016F0006FF31E51401941EA0050606040E0401E07
:1017000063684519012205F1350062F31F5335283E
:1017100001F00041636003D361600020206070BD70
:10172000002015F11F0F04DA206823600022203505
:1017300062606A4212D0401E25688041C2F12003D7
:10174000C0439D4045EAD07025686668D54006FADA
:1017500003F32B4323606368D340636062680A43EA
:10176000B0F1004F626003D80DD12078C0070AD5D0
:101770002068401C2060206828B96068401C6060B8
:101780004FF0FF3070BD6068884204BF20680028B9
:10179000F6D1002070BD00BF0000F0FF0000F07F18
:1017A000F446400D40EAC120490006D200F014F88A
:1017B000004248BF6FF00040604700F00DF84FF066
:1017C000004188428CBF084640426047400D40EAD5
:1017D000C120490080F00D8040F00040490DA1F586
:1017E0008061491C05D4D1F11F0154BFC840C01706
:1017F00070474FF000007047010040F10980F44647
:10180000404200F005F851F000416047010000BF80
:1018100009D0B0FA80F18840C91CC1F5846109057E
:1018200001EBD02140057047F0B44FF0004591EA3C
:10183000030F44BF6B4000F045BB00BF841A71EB3F
:10184000030604D26E40001BB141121973414FF4DC
:10185000001C1CEB410F34BF7CEB430684E00C0DF5
:10186000A4EB1356362E7DDC012E43DC45EAC32360
:1018700043EA525312BFD20292025B08240545EAA2
:10188000C12141EA5051D2EBC020994125D407D162
:10189000B0FA80F610FA06F164D00020203608E095
:1018A000B1FA81F6B140C6F1200220FA02F21143EA
:1018B000B0404FEAF474B4EB465434F001064FEAFA
:1018C00074040AD8D6F50016760D04F00044F040F2
:1018D00061FA06F25040F1404840C00A40EA4150E7
:1018E00021F0004128BF5FEA500550F1000044EBB1
:1018F000D12137E045EAC323DB0A45EAC121C90A01
:10190000B6F120050EDD42EA0242120CC5F12006B6
:1019100003FA06F6EB4042EA06056D42984161F192
:1019200000010DE062FA06F5F240554063FA06FC4C
:1019300082EA0C02F3405A406D42904161EB030190
:1019400011F4801F05D1641E620502D06D00404174
:10195000494121F48011430875F1004350F1000022
:1019600041EB0451F0BC70471CEB410F15D223F042
:10197000004352EA43060BD04FEA4C0CBCEB410F3C
:1019800004D80C0D661E342EB7DDEBE7801A9941A2
:1019900050EA410608BF0021E4E708BF1CEB430FF3
:1019A00028BF6FF00001DDE7B0B581EA030C0CF051
:1019B000004C40F2FF7515EA11541DBF15EA13578C
:1019C000AC42AF4239E0E41923EA455343F48013B3
:1019D000C90241F0004141EA505EC7021100A7FB75
:1019E000020200284FF00000EEFB01204FF0000142
:1019F000E3FB072118BF42F00102401800214941D2
:101A0000E3FB0E01A4F580640F0302D252004041B3
:101A1000494154F101046CDD470872F1004250F174
:101A2000000051EB0451A1F580115CBF41EA0C01AB
:101A3000B0BD4CEA05510020B0BD05EA1357AC42D9
:101A400014BFAF4241E050EA410E1CBF52EA430EC0
:101A500002E061460020B0BD24423C441BD15FEA55
:101A6000070EF6D0090302BF01460020AEF1140EA6
:101A7000B1FA81F7AEEB070401FA07FE0C37C7F1A4
:101A8000200100FA07F7C8404EEA000E23EA45534A
:101A900043F48013A2E733F00043B3FA83F704BFA3
:101AA000B2FA82FE77440B3FE41BB7F1200E2FBF42
:101AB00002FA0EF3BB40C7F1200E22FA0EFE38BF29
:101AC00043EA0E03BA40641C82E750EA410E14BF99
:101AD00052EA430E6FF000014FF4001717EB430F6B
:101AE0008ABF194617EB410FB5E74CEA05510020B4
:101AF000B0BDD4F10104B4F120070FDAC4F120071E
:101B0000520828BF42F0010210FA07F501FA07F760
:101B1000E1BF2A43E0403843E1400FE0352C98DC38
:101B2000C7F1200452EA400220FA07F218BF42F03F
:101B3000010231FA07F0A1400A43002172F100428C
:101B400050F1000051EB0C01B0BD00002DE9F04157
:101B500040F2FF7581EA030C0CF0004C15EA1154B9
:101B60001DBF15EA1357AC42AF42E9E0BC41C1F3D7
:101B70001301C3F31303801A994143F4801304D271
:101B8000641E4000494180185941C90241EA505140
:101B9000B1FBF3F603FB1611A2FB0675D7EBC020D1
:101BA000A94102D2761E80185941C90241EA50511A
:101BB000B1FBF3FE03FB1E11A2FB0E75D7EBC02099
:101BC000A94103D2AEF1010E80185941890241EAC0
:101BD0009051760546EA8E2EB1FBF3F603FB161103
:101BE000A2FB0675D7EB8020A94102D2761E801891
:101BF0005941C90241EA50514EEA060EB1FBF3F6D3
:101C000003FB1611A2FB0675D7EBC020A94102D237
:101C1000761E80185941C90241EA5051B1FBF3F7D1
:101C200003FB1711A2FB0735D3EBC020A94167F1D5
:101C300000070CBF004247F0010766F3D5274FEAC3
:101C40001E31B80814F5806414DDBD0775F100423B
:101C500050EB0E5051EB045111F5801F5CBF41EA6F
:101C60000C01BDE8F0814CF07F6141F0E0410020C3
:101C7000BDE8F081BD076D0840EA0E5041F48011C7
:101C8000D4F10104B4F120060ADAC4F120060200FE
:101C9000E04001FA06F3E1401843B24015430EE07C
:101CA000342C14DCC6F1200445EA40056D0820FA06
:101CB00006F2154321FA06F0A1400D43002175F10B
:101CC000004250F1000051EB0C01BDE8F081002012
:101CD0005FEA0C01BDE8F081CFB992185B41B3FA1D
:101CE00083F704BFB2FA82F6BF190B3FB7F12006A3
:101CF0002FBF02FA06F3BB40C7F1200622FA06F610
:101D000038BF3343BA401CB1E419641E2FE77F4249
:101D100031F00041B1FA81F404BFB0FA80F6A419A1
:101D20000B3CB4F120062FBF00FA06F1A140C4F12C
:101D3000200620FA06F638BF3143A0403C1B16E7C8
:101D4000AC421ABF05EA1357AF4214E050EA41060D
:101D50001CBF52EA4306BFE750EA410730466146DE
:101D60001CBF41EA0551BDE8F08152EA430C08BFAF
:101D7000C143BDE8F08100204FF4001616EB410F7F
:101D800098BF16EB430F08BF16EB410F24BFC143AA
:101D900005E016EB430F0CBF61464CEA0551BDE868
:101DA000F081000080B5134800F0F6F80FF24C0205
:101DB0000FF244010160426241600FF2440282630B
:101DC00081600FF24402C160016141618161816201
:101DD000C16201634163C2630164416401BD10B526
:101DE000044800F0D9F80446206808B9FFF7DAFF84
:101DF000204610BD64000020000000002E000000FE
:101E000066616C7365000000747275650000000007
:101E100091FBF2F303FB1211C0E90031704700009F
:101E200080B5DFF80C0000F0B7F8806902BD000053
:101E3000F400002030B430B90FF24800D0E900457A
:101E4000C2E900451BE00170012030BC704730B48E
:101E500031B90FF23800D0E90045C3E900450EE082
:101E60001AB930BC6FF00100704708B10A780280DF
:101E70000978481E804130BCC043C00F7047002025
:101E800030BC7047000000000000000000000000AF
:101E9000000000000749086808B1002070470648A4
:101EA000C008C00008600549C908C900091A0160D6
:101EB000704700BF281F00206F0500206807002022
:101EC00070470000841A71EB030603D2001BB14176
:101ED000121973414FF4001C1CEB410F34BF7CEB13
:101EE000430443E00C0DA4EB1356352E50DC45EAB9
:101EF000C323DB0A45EAC121C912B6F120050DDD75
:101F000063FA05F6EB4086EA0305124218BF45F076
:101F10000105C01851F100010CD213E062FA06F578
:101F2000F2405540F3415A40B340F3405A408018C4
:101F3000594107D349085FEA30005FEA350528BFF9
:101F400045F0010501F58011420875F1004250F19C
:101F5000000041EB0451F0BC4FF4001C1CEB410F9E
:101F600038BF70470020090D090570471CEB410F71
:101F700010D252EA43060BD0BCEB410F05D80C0D32
:101F8000AB43661E342EB5DD02E0AB4380185941E9
:101F9000F0BC7047F0BC704770470000BF000303FF
:101FA0000404040505091200FC0AFD0BFF01990356
:101FB000330A20200500E8332107B20B331E092223
:101FC00008457A33245C042314A7097394242289D6
:101FD000E4A224915C9424228904002411B8F8F22C
:101FE0008416158A90CA28A1A81865002513A80888
:101FF0007346148A8424918AA5121145C23401269D
:1020000013A808738612994426114E47148A4885EE
:1020100034122707427B330E01280DC4FAB2242262
:1020200089486F229900290EC4FA32642299482FF8
:10203000228908002A0D7818F354546C348B361911
:10204000002B0C7818F3C46A8798580D002C0843AD
:10205000EB322C14002D061749330E2E06230B33BA
:102060000C2F0DA808B3A562A9B254592A06300D49
:10207000A709B3661235BE49D44600310DA808F34E
:10208000A4439A44ACB74300320CA709B366123597
:10209000A9A28E07330DA70933AE42C5B12A494420
:1020A000023410A70933853392444922921CA52A91
:1020B00000350DA709330E52D5B22A494402361015
:1020C000A709B34842A9B4A422A349D44600370DB6
:1020D000A70933AE42A9502A946A033811A709B35D
:1020E00066123589DA4CA24693A88D003910A709EB
:1020F000B36612359A4432AA2A8A48003A08730B0A
:1021000033EC20033B0A93EB32EC200B05003C0937
:1021100096093365BAEA003D08472933EE08073EC1
:1021200009960933A4BAE9083F0EA709B366123528
:10213000A950AB1C2A034016A908B36A2A22092514
:1021400085924249A1A4904872480900410EA7090E
:10215000F3A2C33589A824516313420EA709332C77
:1021600032B64344C6ED1001430DA709B34822AA75
:102170009E45220A00440CA709334A2A327E9294D3
:1021800000450CA709330E52D59254EB01460CA71B
:1021900009330E52D592545700470FA709B3661260
:1021A00035AA528D26511B01480BA7093364DC0E5A
:1021B00034DE044909A609334C42FD644A0EA709DE
:1021C000F38852BD8824221109004B11A7093364FA
:1021D0002489126D489388546434014C09A709334B
:1021E000A4FAEB014D0DA709336495432542E39B07
:1021F000004E0DA7093364B4928562AA71134F0B88
:10220000A709732A32FE26A900500EA709334A2ACD
:1022100032264949AA15005117B8F9B28612914CD5
:102220002293C82432894C22214984758000520EA1
:10223000A709332C326E8788928A8C26530FA70900
:10224000732A32AAB82C95D2241500540AA6093351
:102250004C42FD0900550BA7093364FC4DA2360220
:102260005610A70933646C12258948221BAEC6009C
:102270005711A7093364BC4428114AE45099C42279
:10228000005810A70933643489DA341C9D49D46896
:1022900002590EA80833844489484615EB0D005AAC
:1022A0000AA70933AE8A7A951E5B09C5FA326EFA1F
:1022B000B7025C13A80833E400B11C200788E500CE
:1022C00039402C07085D09C4FA3248FA27035E0A30
:1022D0004868F3A4349144285F0718F8320E01606F
:1022E0000734AA33640A610C770973CA52C92146BC
:1022F0009318620DA70933A4AA16196F8708006303
:102300000C7709732A32AA36490500640BA70973B2
:10231000B51C62BC490C650D7709732A32DA812A33
:10232000935400660DA609B346121D6534A136000C
:102330006712A7D9720E218948221291C415194D2E
:102340005201680BA70933A4AA1619DF04690BA66A
:1023500009B3847208514F066A0ED5DAF2D40133FC
:10236000BD51289209006B0FA70933A49A244A345F
:102370009A44A422136C09A6093388FA93016D10BC
:102380007808332E2A1409454291502444016E0ADC
:10239000770933244B34DE046F0D7709B3661235A9
:1023A0003689DA0800700EA7D9324A2A324E929244
:1023B000541500710DA7D9B22A221A9B4424AA6A87
:1023C000720B77093324A389AA8E00730C770973E3
:1023D0002A32729926A900740D9709B3A4329B542E
:1023E00017D904007509770933647C9318760E7742
:1023F00009336434899244369CC6007710780833D8
:10240000842C128A8422394C441200780D770933C7
:102410006412B569742651137912A7D932643489CC
:10242000924424910D87B28850087A097609338C3A
:10243000321D0D7B0CB609B328426D52A156027CA9
:1024400007C2FB323E0C7D0DB60933A642AD23A177
:10245000A619007E0A3878734614096902A005009F
:10246000E833A109A20C3344878300A210870973C3
:102470004315512526898D24A52800A310A8F8F21C
:1024800068226569512CAC450E5200A40F772933A0
:10249000640789522C24911C6402A510A808338477
:1024A00044894846330A8D623500A609B2FB320ED4
:1024B000A3C300A710B6F97228222A45C424A1920A
:1024C000241400A80825BA33241401A917B808B3A6
:1024D0006816E1842209452441492822A10C2536A9
:1024E0001200AA0A75397386128B845AAB138818A6
:1024F000F3242289482292C824428950229408ACAD
:10250000075729335E35AD061649330CAE17B808A8
:10251000B36816E184220945241449922422194AF9
:102520006C2400AF072699330E05B00A458973263F
:10253000128A6402B10C9619B3844A26A13AC400E7
:10254000B20A654973266A22A502B30B6549732650
:102550004A428A6402B40834AAB3244A00B50D97EB
:10256000E932643C550E11AA1400B613A709730E84
:102570001317C944241149441291442411B7062366
:102580004B330CB80A36D9F22422090500B9096484
:10259000497324232D04BA0B753973261216C9B852
:1025A00000BB14881833244289502294C8242289FD
:1025B000482292C800BC10B80873A4638D119965B5
:1025C0004893C8CA02BD0EB80873A4632DA39149ED
:1025D000AAB900BE13B808738621B1540E10A948D9
:1025E000166912595900BF0EA709F3A472A850AB7F
:1025F0008C26A900C011E70973C4EAD0E8704D2207
:102600002A49D4D804C110E70933B583A3C3358957
:10261000A824516313C213E709F3A233891C181DC0
:10262000AE494425891A9B00C312D70973269439F1
:10263000303A5C93884A12353601C412D709739434
:1026400024726074B8261195246A6C02C514E709D7
:10265000B366129144368D0ED724A292448D4D005C
:10266000C614A709B34A24894822921C2422894807
:1026700022928806C711E7C9B24822AA9E4522A223
:102680005824918D00C80EE70973C4EAA08354B59D
:1026900024D57AC90EE70933B5C30E52D59254EB4F
:1026A00001CA10E709F3A233891C7290AA96A45AB2
:1026B0000FCB0FD70973942472C841AA5A926A3D6E
:1026C000CC0CE60973A4EA0093503F19CD0CE6093F
:1026D0003365EA1093503F19CE0DE609F382238942
:1026E000D824D44F06CF0BD60973743609F593015D
:1026F000D014A808736A223589CC249149641299B0
:1027000044242A01D111D7097326943944462B5900
:1027100028A61A3701D20EE70973C4EAB08A8CBF23
:10272000492A00D30DE70933B5032B32FE26A90051
:10273000D410E709F3A233891C5491F137490500FD
:10274000D50FD70973269439A822E36F920A00D6D1
:102750000FD709739424725045C6DF241500D70F94
:102760007818338412918C2AA589244201D812C783
:10277000F9722587508BE510B1944A87881400D9E7
:102780000EE70973C4EA20197F93A88D00DA0DE7DC
:102790000933B5C364FC4DA23602DB10E709F3A28E
:1027A00033891C22E36F12B51100DC0FD709739433
:1027B0002472888CBF49D44600DD10E80833A5EAAE
:1027C000502151229251C57A03DE0EA70933A4523B
:1027D0008B8CED1091AA02DF14A709B3482A228935
:1027E000A822521149441291440500E00FB7097321
:1027F000C4EAB0B2547288D12406E10EB70933B5E9
:1028000003CB52C921469318E211B709F3A23389C9
:102810001C54964A0E319AC400E310A709732694FB
:1028200039A82C951C62348901E410A709739424FB
:102830007250592A39C4681203E511B709B36612F8
:10284000D91C56964A0E319AC400E61278087326AF
:1028500042894C223948641295890400E710B7C9AF
:10286000722A32AA3649512C92C84600E810B7099C
:1028700073C4EAB08A8C76A0CA241500E90FB709A0
:1028800033B5032B32DA812A935400EA11B709F3E6
:10289000A233891C5491D10E5499A402EB11A709BB
:1028A000739424725045463B5065920A00EC0BB677
:1028B0000933A4EA10A29E0CED0BB6093365EA10A9
:1028C000A29E0CEE0DB609B38223891C40D493015D
:1028D000EF0AA609737426EAC900F010B70973D489
:1028E00086338954748871935400F10EA7097326B6
:1028F000943944B244E34D00F20FB70973C4EAC0FF
:1029000099448D4DA23602F30FB70933B5436712D0
:10291000353689DA0800F411B709F3A233891C3679
:1029200093A8B149D44600F510A709732694396CD1
:1029300026516393A88D00F610A70973942472D8CA
:102940004CA2C626511B01F70D7818F3C472E02182
:102950000E14CB00F81298F8F201218B4822B248ED
:102960004C1291C41407F90CB70973C4EA2019DF9B
:102970002406FA0BB70933B5C3647C9318FB0EB772
:1029800009F3A233891C22E39BC400FC0DA7097341
:10299000942472888C6F1203FD14E7D932B5C36496
:1029A0003489924424910D87B2885008FE0FB7E90C
:1029B00032A4D2928A8C93A4249502FF16D7D9729E
:1029C000942472888C2651928824B2E15016110A00
:1029D0000100000004FFFF0000000000F8B5040043
:1029E0000D0016001F00EDB2280028280ED029285F
:1029F0001CD02A2813D02B280DD02C2807D02D2806
:102A000019D04C2818D04D2817D017E016E0012017
:102A100000F0A0FC12E0012000F09CFC0EE0F6B2F9
:102A20000A2000FB06F000F095FC07E0F6B230004B
:102A300000F0A4FC02E001E000E0FFE70120F2BDAD
:102A40002DE9F04182B004000D0016001F00EDB228
:102A50002800142834D017280BD0182804D019289F
:102A60001FD020282CD02CE00020DFF8FC170870A5
:102A700029E0B846F6B2002E12D098F80000DFF830
:102A8000EC17DFF8E42712785054DFF8DC07007801
:102A9000401CDFF8D417087018F10108761EE9E72A
:102AA00011E04FF4FA600090DFF8BC0703789BB2A6
:102AB000DFF8B8277821DFF8B80700F033FD02E02F
:102AC00001E0002000E00120BDE8F68180B5DFF8DC
:102AD000A437DFF8A427DFF8A417DFF8A40701F074
:102AE0009FF8DFF89C0701F016F90021DFF8900746
:102AF00001F01AF901BD2DE9F04182B005000E0088
:102B000017009846089CE4B2002C06D0022C6ED028
:102B100038D3032C00F0A080D3E04046C0B2009030
:102B20002B00DBB23200D2B22900C9B2DFF8500765
:102B300001F00EF9F01CC0B20090EB1CDBB2F21CED
:102B4000D2B2E91EC9B2DFF8380701F001F9B01CB2
:102B5000C0B20090AB1CDBB2B21CD2B2A91EC9B28B
:102B6000DFF81C0701F0F4F8701CC0B200906B1C79
:102B7000DBB2721CD2B2691EC9B2DFF8040701F0E1
:102B8000E7F89EE04046C0B200902B00DBB2320076
:102B9000D2B22900C9B2DFF8E80601F0D9F8F01C7A
:102BA000C0B20090EB1CDBB2F21CD2B2E91EC9B27B
:102BB000DFF8CC0601F0CCF8301DC0B20090AB1CA1
:102BC000DBB2321DD2B2A91EC9B2DFF8B40601F0E1
:102BD000BFF8701DC0B200906B1CDBB2721DD2B288
:102BE000691EC9B2DFF8980601F0B2F869E030005A
:102BF000C0B200903B00DBB23200D2B22900C9B2B1
:102C0000DFF87C0601F0A4F8F01CC0B20090EB1CC9
:102C1000DBB2F21ED2B2E91CC9B2DFF8640601F0E1
:102C200097F8B01CC0B200902B1DDBB2B21ED2B21E
:102C3000291DC9B2DFF8480601F08AF8701CC0B23D
:102C400000906B1DDBB2721ED2B2691DC9B2DFF8F3
:102C5000300601F07DF834E03000C0B200903B0057
:102C6000DBB23200D2B22900C9B2DFF8140601F09B
:102C70006FF8701CC0B200906B1CDBB2721ED2B237
:102C8000691CC9B2DFF8F80501F062F8B01CC0B2E7
:102C90000090AB1CDBB2B21ED2B2A91CC9B2DFF8E5
:102CA000E00501F055F8F01CC0B20090EB1CDBB25F
:102CB000F21ED2B2E91CC9B2DFF8C40501F048F82F
:102CC000FFE7BDE8F38180B5DFF8B40501F0CEF889
:102CD00000F026F8DFF8AC15DFF8A40501F0A2FC3F
:102CE000DFF8A415DFF8980501F0E4FCDFF898356B
:102CF0002022DFF88C1591F83F10C0B2081A02218B
:102D000090FBF1F00100C9B2DFF8740501F030FC6E
:102D1000002000F068F8DFF8680501F0FDF801BD5B
:102D200010B588B00024DFF8640580780190DFF8E2
:102D30005C0540780090DFF854050378DFF85025F3
:102D4000092105A801F0C4FCDFF84805807801904E
:102D5000DFF8400540780090DFF838050378DFF8A9
:102D60003825092102A801F0B3FC0121DFF8100584
:102D700001F087FBDFF82415DFF8040501F052FCB1
:102D8000DFF8FC0490F97900DFF8F41491F97A1077
:102D9000401A04000221DFF8E80401F0C2FD05AB8F
:102DA000DFF8DC0490F879000200D2B20021DFF8ED
:102DB000D00401F0DDFB02A9DFF8C40401F07AFCC5
:102DC00002ABDFF8BC1491F879100A00D2B2DFF838
:102DD000B01491F83F10091AC9B2DFF8A40401F049
:102DE000C7FB08B010BD38B504000025E4B2002CC4
:102DF00004D0022C00F0AA8036D311E1DFF89C1435
:102E0000DFF87C0401F00EFCDFF8740490F979001F
:102E1000DFF86C1491F97A10401A05000221DFF8EE
:102E2000600401F07EFDDFF878040168DFF85004EB
:102E300001F040FCDFF868140B68DFF8441491F9E6
:102E40007910D1F14402D2B2DFF8341491F83F1076
:102E5000C0B2081A022190FBF1F00100C9B2DFF8FC
:102E6000200401F085FBDBE0DFF83014DFF810040C
:102E700001F0D8FBDFF8080490F97900DFF80014BE
:102E800091F97A10401A05000221DFF8F40301F0ED
:102E900048FDDFF80C04C368DFF8E40390F979001B
:102EA000D0F14402D2B20021DFF8D40301F060FB7C
:102EB000DFF8EC030369DFF8C80390F97900D0F17B
:102EC0004402D2B27621DFF8B80301F051FBDFF8FB
:102ED000D0034368DFF8A80390F97900D0F14402E9
:102EE000D2B22C21DFF8980301F042FBDFF8B003E7
:102EF0008368DFF88C0390F97900D0F14402D2B2F4
:102F00004821DFF87C0301F033FB032000903C23D1
:102F100018223C211220FFF7EEFD002000903F23F5
:102F2000262239212620FFF7E6FD012000903F23CD
:102F3000582239215820FFF7DEFD022000903C2363
:102F400073223C216D20FFF7D6FD69E0D349CC48C0
:102F500001F068FBCA4890F97900C94991F97A10E3
:102F6000401A05000221C64801F0DBFCCC48C368CA
:102F7000C34890F97900D0F14402D2B20021C04890
:102F800001F0F6FAC6484169BD4801F093FBC44917
:102F90004B69BB4991F97910D1F14402D2B2B849D9
:102FA00091F83F10091AC9B2B54801F0E1FABC48DE
:102FB0004368B34890F97900D0F14402D2B22C2191
:102FC000AF4801F0D5FAB6488368AD4890F979006A
:102FD000D0F14402D2B24821A94801F0C9FA022036
:102FE00000903C2318223C211220FFF784FD002092
:102FF00000903F23262239212620FFF77CFD012067
:1030000000903F23582239215820FFF774FD0320F8
:1030100000903C2373223C216D20FFF76CFDFFE7FD
:1030200031BD2DE9F04F83B005000E001700984622
:103030000C9C5FF000095FF0000AE4B201945FFAB3
:1030400088F8CDF80080FFB23B00934A082158462B
:1030500001F03EFB8A4800F009FFFFF761FE884857
:1030600090F97900864991F97A10401A81468D4984
:10307000834801F0D7FA0221814801F052FC5946F9
:103080007F4801F017FB5B4614227D4991F83F1001
:10309000C0B2081A022190FBF1F00100C9B27848D1
:1030A00001F066FA5946764801F004FB19F1020175
:1030B000C9B20091EDB2062101FB05F10D310B0003
:1030C000DBB212226E4991F83F10C0B2081A0221F9
:1030D00090FBF1F0062101FB0500411EC9B26848D2
:1030E00001F052FC6D49664801F09CFA6E49644853
:1030F00001F0E0FA6C4B2822614991F83F10C0B210
:10310000081A022190FBF1F00100C9B25C4801F0FD
:103110002FFA0220FFF767FE594800F0FDFEBDE8D8
:10312000F78F2DE9F14F82B00E00170098460C9CE6
:103130000D9D5FF000095FF0000A514800F096FE17
:10314000FFF7EEFD59494E4801F06CFA4C4890F9F2
:1031500079004B4991F97A10401A8146022148487A
:1031600001F0DFFB0299464801F0A4FA029B10220D
:10317000434991F83F10C0B2081A022190FBF1F0C8
:103180000100C9B23E4801F0F3F949493C4801F059
:1031900049FA3B4890F97900394991F97A10401A77
:1031A00081460221364801F0BCFB002082465FFACE
:1031B0008AFAEDB2AA454ED21AEB080B5FFA8BFBE6
:1031C000E4B2A34547D2FFB25FFA8BFB5F451ED145
:1031D00019F10100C0B20090294890F83F305FFA21
:1031E00089F9D9F11A00401C5FFA8AFA5FFA89F965
:1031F000B9F1010101FB0A005FFA8AFA032101FB20
:103200000A000200D2B200211D4801F093FB5FFAD0
:103210008BFB56F83B101A4801F04CFA5FFA8BFB17
:1032200056F83B305FFA8AFA5FEA4A0109FB0A1155
:1032300011F11A02D2B2124991F83F10C0B2081A25
:10324000022190FBF1F00100C9B20D4801F090F9A4
:103250001AF1010AABE70120FFF7C5FD084800F0AD
:103260005BFEBDE8F78F00002F1F00201C1E002012
:10327000741C0020DD290008412A0008FCAA00086F
:10328000F41B00209C1F0008E4AA0008E41E002094
:1032900038AA0008E81E002048AA0008C4900008C8
:1032A000300000205C8000080CA900088877000826
:1032B000E088000800B593B00220099001200D902D
:1032C00010200E900020109009A801F0A7FB002804
:1032D00003D01521264801F07BFF0F200490002029
:1032E0000590002006900020079000200890002103
:1032F00004A801F0BEFD002803D023211C4801F0E2
:1033000067FF0220009000200290684601F07AFFDB
:10331000002803D02A21164801F05AFF01F0A7FE29
:103320004FF47A71B0FBF1F002F028F9042002F0BA
:103330002BF900220F215FF0FF3002F001F913B0EA
:1033400000BD10B5040020680A49884201D102F08E
:103350004EF910BD10B5040001F089FE0649B0FB1E
:10336000F1F0A4B26043002801D0401EFBE710BD7D
:103370007CA70008002C014040420F0010B504005B
:1033800001F075FE4FF47A71B0FBF1F0A4B2604326
:10339000002801D0401EFBE710BD000070B50400FE
:1033A00000250026002C01D10120BAE094F83D0050
:1033B000002805D1002084F83C00200002F0D6F956
:1033C000242084F83D0020680068400840002168FF
:1033D000086001F04FFE06006068DFF8D0128842F6
:1033E00008D2DFF8CC02864201D2012000E00020A2
:1033F000C0B207E0DFF8BC02864201D2012000E043
:103400000020C0B2012801D101208AE0DFF8A80223
:10341000B6FBF0F00500206845606068DFF88C12AC
:10342000884201D2681C08E04FF4967000FB05F05A
:103430004FF47A71B0FBF1F0401C216808626068BB
:10344000DFF86812884214D2701E61684900B0FB30
:10345000F1F0401C0005000D042801D204203EE0DC
:10346000701E61684900B0FBF1F0401C0005000DC2
:1034700035E0A068002809D1701E6168032251431D
:10348000B0FBF1F0401C0005000D0AE0701E616801
:1034900019225143B0FBF1F0401C0005000D50F41F
:1034A0008040000501D1012019E0A068002809D161
:1034B000701E616803225143B0FBF1F0401C00050F
:1034C000000D0AE0701E616819225143B0FBF1F053
:1034D000401C0005000D50F4804050F4004021686D
:1034E000C861E069216A0843216808602069E168D1
:1034F0000843216888606069A16908432168C86041
:103500002068006850F001002168086000202064F5
:10351000202084F83D0000202063002084F83E0035
:10352000002070BD2DE9F84304000D0016001F00B7
:10353000DDF820805FF0000902F061F8814694F820
:103540003D00202840F0AF80CDF8009019230122E3
:10355000DFF86811200000F065FA002801D0022091
:10356000A2E094F83C00012801D102209CE0012057
:1035700084F83C0020680068C00705D42068006813
:1035800050F00100216808602068006830F4006095
:1035900021680860212084F83D00102084F83E0056
:1035A0000020206466626785DFF81401E062608DA8
:1035B00020854B464246290089B2200000F04EF992
:1035C00000280CD0206C042804D1002084F83C0092
:1035D000012069E0002084F83C00032064E0002022
:1035E00000902068406900902068806900900098F1
:1035F000208D002846D04A464146200000F0A6FA19
:1036000000280CD0206C042807D12068006850F4F2
:10361000007021680860012046E0032044E0606AF1
:10362000411C6162007821680861608D401E6085E0
:10363000208D401E20852068406940070ED5208DD2
:1036400000280BD0606A411C616200782168086123
:10365000608D401E6085208D401E20854A46414673
:10366000200000F09CFA0028C2D0206C042807D16A
:103670002068006850F4007021680860012013E0A1
:10368000032011E02068006850F400702168086091
:10369000202084F83D00002084F83E00002084F8BB
:1036A0003C00002000E00220BDE8F283A18601007A
:1036B00080841E0000093D0040420F0002001000FF
:1036C0000000FFFF2DE9F04F83B005000E0017004A
:1036D0009846DDF830900D9CDDF838A05FF0000BC7
:1036E00001F08DFF834695F83D00202840F0AE8024
:1036F000CDF800B019230122DFF85C11280000F09A
:1037000091F9002801D00220A1E095F83C000128A1
:1037100001D102209BE0012085F83C002868006868
:10372000C00705D42868006850F0010029680860C7
:103730002868006830F4006029680860212085F856
:103740003D00402085F83E0000202864C5F8249004
:103750006C85DFF80001E862688D2885CDF804B03B
:10376000CDF800A043469BB23A0092B2310089B234
:10377000280000F0DBF800280CD0286C042804D1C5
:10378000002085F83C00012061E0002085F83C0025
:1037900003205CE0288D002833D05A46514628008B
:1037A00000F0D4F900280CD0286C042807D1286830
:1037B000006850F4007029680860012047E0032089
:1037C00045E0686A411C6962007829680861288DB3
:1037D000401E2885688D401E68852868406940071E
:1037E000D8D5288D0028D5D0686A411C6962007838
:1037F00029680861288D401E2885688D401E6885CF
:10380000C8E75A465146280000F0C9F900280CD0F4
:10381000286C042807D12868006850F400702968D3
:103820000860012013E0032011E02868006850F4CC
:10383000007029680860202085F83D00002085F888
:103840003E00002085F83C00002000E00220BDE89A
:10385000FE8F00000000FFFF020010002DE9F04184
:1038600082B004000D0016001F00D4F82C80B8F1BF
:10387000040F06D0B8F1010F03D0DFF89C0180459A
:1038800006D12068006850F480702168086008E064
:10389000206B122805D12068006850F480702168E0
:1038A00008600097330000225FF00111200000F053
:1038B000B9F8002801D0032036E02069B0F5804F28
:1038C00004D115F0FE00216808611CE015F4407079
:1038D00080B2C00950F0F000C0B2216808613B001E
:1038E0003200DFF83811200000F0E0F8002806D0A0
:1038F000206C042801D1012016E0032014E02800E8
:10390000C0B2216808613B003200DFF814112000CA
:1039100000F0CCF8002806D0206C042801D101204A
:1039200002E0032000E00020BDE8F6812DE9F84325
:1039300004000D0016001F00DDF82080DDF8249043
:103940002068006850F4807021680860CDF800900D
:10395000434600225FF00111200000F063F80028C8
:1039600001D0032056E015F0FE00216808614B46A7
:1039700042462B49200000F099F8002806D0206C20
:10398000042801D1012045E0032043E000200090FD
:1039900020684069009020688069009000984A463D
:1039A0004146200000F0D2F800280CD0206C0428FA
:1039B00007D12068006850F4007021680860012079
:1039C00028E0032026E0BFB2012F04D13000C0B2AE
:1039D000216808611DE0300080B2000AC0B2216891
:1039E00008614A464146200000F0B0F800280CD09B
:1039F000206C042807D12068006850F4007021680A
:103A00000860012006E0032004E03000C0B2216815
:103A100008610020BDE8F2830000FFFF08000100FC
:103A2000020001002DE9F04104000D0016001F0006
:103A3000DDF81880280CC0B201280AD1206840693E
:103A4000284080B2A9B2884201D101200BE00020B9
:103A500009E020688069284080B2A9B2884201D17B
:103A6000012000E00020002801D0012000E000201B
:103A7000F6B2B04217D117F1010FDBD0002F05D0FD
:103A800001F0BDFDB0EB08008742D3D200202063D7
:103A9000202084F83D00002084F83E00002084F8B7
:103AA0003C00032000E00020BDE8F081F8B50400F0
:103AB0000D0016001F00280CC0B201280AD1206892
:103AC0004069284080B2A9B2884201D101200BE0B0
:103AD000002009E020688069284080B2A9B28842AD
:103AE00001D1012000E0002000282DD1206840698C
:103AF000400515D52068006850F400702168086002
:103B00007FF48060216848610420206400202063E5
:103B1000202084F83D00002084F83C00012014E0BF
:103B200016F1010FC7D0002E04D001F068FDC01BB4
:103B30008642C0D200202063202084F83D0000206F
:103B400084F83C00032000E00020F2BD70B50400C2
:103B50000D0016002068406900061ED4200000F009
:103B600047F8002801D0012018E015F1010FF1D02D
:103B7000002D04D001F043FD801B8542EAD2206C69
:103B800050F02000206400202063202084F83D00B5
:103B9000002084F83C00032000E0002070BD70B5D8
:103BA00004000D0016002068406940071ED4200064
:103BB00000F01EF8002801D0012018E015F1010FD7
:103BC000F1D0002D04D001F01AFD801B8542EAD20D
:103BD000206C50F02000206400202063202084F816
:103BE0003D00002084F83C00032000E0002070BD70
:103BF00001000868406940050FD57FF480600A68BD
:103C000050610420086400200863202081F83D00F2
:103C1000002081F83C00012000E0002070470000F7
:103C20002DE9FC4104000D0016001F000097330031
:103C3000DFF82820DFF82810200001F0EDFD01A8B2
:103C400001F000FE80460095DFF818309DF8042052
:103C50004146200001F0FEFDBDE8F38105A3000808
:103C6000E9A4000851A5000801600268927C8277EF
:103C7000704738B504000023002228212000656920
:103C8000A8470023002214212000E568A84701224C
:103C90004B21200001F07EFE2068027929212000BE
:103CA00001F078FE00224B21200001F073FE206815
:103CB00002792921200001F06DFE01224B21200014
:103CC00001F068FE206842792921200001F062FE9F
:103CD00031BD2DE9FC4104000D0016001F00DDF888
:103CE00020808DF805508DF806608DF80470CDF8B1
:103CF00000806B4601220F212000D4F808C0E04765
:103D0000BDE8F68138B50400002300220921200017
:103D1000A568A84731BD38B50400002300220A2158
:103D20002000A568A84731BD70B504000D00002330
:103D30002A00D2B20B212000A668B04770BD38B56A
:103D400004000023002210212000A568A84731BDEF
:103D50002DE9F14F82B00D0016001F000C9C0020D1
:103D60008DF80200FFB2EDB2AF4202D2E81B8246EC
:103D700001E0781B8246E4B2F6B2B44203D2301BB3
:103D80008DF8010002E0A01B8DF801009DF80100F4
:103D90005FFA8AFA824517D201208DF802008DF869
:103DA00000A09DF8010082469DF800008DF80100FA
:103DB0008DF8005035009DF8000006008DF8007069
:103DC00027009DF800000400FFB2EDB2AF420BD215
:103DD0008DF800503D009DF8000007008DF8006050
:103DE00026009DF8000004005046C0B240088346FB
:103DF000F6B2E4B2A64203D201208DF8030003E03C
:103E00005FF0FF308DF80300B146FFB2FF2F00D105
:103E10007F1EA846FFB25FFA88F8474524D39DF875
:103E20000200002807D14A46D2B24146C9B20298E0
:103E300000F053FD06E04246D2B24946C9B20298AC
:103E400000F04BFD9DF80100BBEB000B4FFA8BFB24
:103E5000BBF1000F05D59DF9030010EB09091AEB22
:103E60000B0B18F10108D5E7BDE8F78FF8B5040092
:103E70002068007C050094F838004543ED000026DA
:103E8000676B32002900380001F092FDF1BD2DE989
:103E9000F84304000D0016002068007C8146EDB256
:103EA000A846606B07005FFA89F909FB08F81FFA5A
:103EB00088F85FEAC8081FFA88F818EB0707009728
:103EC0004B46DBB23200D2B200212000FFF701FFE7
:103ED000BDE8F1832DE9F04104000020050094F8CD
:103EE0003800060094F8390007002068407C8046BE
:103EF0003A00D2B22900C9B22000FFF7C8FF6D1CFA
:103F00007F1CEDB2F6B2B54204D2FFB25FFA88F878
:103F10004745EDD3BDE8F08110B504002000FFF760
:103F2000D9FF2000FFF70BFF10BD0000C9B2081831
:103F3000007870470200C9B28A1813781800521C22
:103F400000021378181880B2704738B504000D00CD
:103F500000212800FFF7EAFF207001212800FFF769
:103F6000E5FF607002212800FFF7E0FFA070032149
:103F70002800FFF7DBFFE07004212800FFF7D6FFE1
:103F8000207105212800FFF7D1FF6071062128006C
:103F9000FFF7CCFFA07107212800FFF7C7FFE071F2
:103FA00008212800FFF7C2FF207209212800FFF72F
:103FB000BDFF60720A212800FFF7B8FFA0720B2135
:103FC0002800FFF7B3FFE0720C212800FFF7AEFFD7
:103FD00020730D212800FFF7A9FF60730E21280030
:103FE000FFF7A4FFA0730F212800FFF79FFFE073E6
:103FF00010212800FFF79AFF207411212800FFF7F5
:1040000099FF608213212800FFF794FFA0821521F9
:104010002800FFF78FFFE08231BD70B40200937A71
:1040200015682D782800C0B2D8401C000C19E4B2E5
:10403000082C09DB0825ED1A1668761C1660166830
:104040003678AE403043083C01258D406D1E284037
:104050009472C0B270BC7047F8B504000D0029001E
:10406000C9B22000FFF7D9FF0600012007006D1E2E
:10407000AF40F61B300040B2F2BDDBB2002B03D0E4
:10408000022B05D002D305E0101804E0081802E066
:10409000801A00E0401AC0B27047DBB2002B03D098
:1040A000022B05D002D305E0081804E0801A02E0D4
:1040B000401A00E01018C0B270472DE9F64F83B0E7
:1040C000040014F1500A9DF80C0005009AF806004F
:1040D00006009AF8070007009AF808008346BBEB31
:1040E000060B8DF804B0EDB25FFA8BFB5D4501D293
:1040F0008DF804509AF8040080469AF8050081462D
:104100009AF80E303A0052B2310049B24046C0B27D
:10411000FFF7C3FF80469AF80E303A0052B23100E2
:1041200049B24846C0B2FFF7A8FF81469DF810008B
:10413000002810D09AF80C0084F87D009AF80E0040
:1041400000909DF804304A46D2B24146C9B22000E0
:1041500000F0A5FB13E09AF80B0000280FD19AF8A5
:104160000D0084F87D009AF80E0000909DF8043050
:104170004A46D2B24146C9B2200000F090FBEDB2EF
:104180005FFA8BFB5D4505D2AE198AF806608AF8A6
:10419000077005E0B5EB0B05002006007F1C9BE7D0
:1041A00005B0BDE8F08F70B504000D0014F15006A5
:1041B00035600020B07294F864103000FFF72DFFD6
:1041C000307294F865103000FFF727FF707294F892
:1041D0007D003073307B002801D1012000E00020F9
:1041E000707370BD2DE9F24F82B0040014F15007D6
:1041F00002992000FFF7D7FF94F95900060094F8C0
:1042000066103800FFF728FF8DF8050094F8671056
:104210003800FFF721FF8DF8040094F8681038008B
:10422000FFF71AFF050097F908000128C0F29180F6
:10423000BB7B76B29DF904008019424252B29DF9CF
:1042400005103879FFF729FF3871BB7B76B29DF9ED
:1042500004008019424252B29DF905107879FFF7A7
:104260000CFF78713879804678798246C146D3460A
:10427000B87B002805D0022815D009D3032821D007
:104280002AE097F9080010EB090916EB0B0B23E065
:10429000B8EB060818F1010819F1010997F90800AF
:1042A00010EB0B0B18E097F90800B8EB000818F1B9
:1042B000010819F10109BAEB060A1AF1010A1BF10A
:1042C000010B09E016EB090997F90800BAEB000A9F
:1042D0001AF1010A1BF1010B5846C0B200904B467F
:1042E000DBB25246D2B24146C9B2200001F0B6FB61
:1042F000002802D1280040B22DE00020B871002033
:10430000F87194F862103800FFF787FE8DF8070007
:1043100094F863103800FFF780FE8DF80600002245
:104320009DF807102000FFF7C8FE01229DF8061037
:104330002000FFF7C2FE01213800FFF76EFE0028C3
:10434000EDD197F9070076B2B042DADB387B84F81A
:104350007D00280040B2BDE8FE8F2DE9F041040049
:104360000D00A66C1736ADB2FF2D19DCADB2612D74
:1043700003DBB4F87400861905E0ADB2412D02DB11
:10438000B4F8720086197078002833D0307880B283
:10439000ADB2A84201D1B01C2DE070788619F2E7C9
:1043A000B4F876008619370000213800FFF7C2FD07
:1043B000861902213800FFF7BDFD80463F1D1FFA18
:1043C00088F8ADB2A845EFD3307880465FEA082878
:1043D000707850EA08081FFA88F8B8F1000F09D081
:1043E0001FFA88F8ADB2A84501D1F01C03E0B078FF
:1043F0008619E9E70020BDE8F0812DE9F8430400C3
:104400000D0016001F005FF0000884F8545084F877
:104410005560390089B22000FFF79FFF8146B9F14E
:10442000000F04D049462000FFF7DCFE80464046DE
:10443000C0B2BDE8F28370B504000D00290089B256
:104440002000FFF78AFF0600002E01D1002017E0B0
:1044500031002000FFF7A7FE94F8661014F1500019
:10446000FFF7FAFD84F87B0094F8671014F1500010
:10447000FFF7F2FD94F8681014F15000FFF7ECFD1F
:1044800070BD80F85B107047F8B504000D00160091
:104490001F0094F85E00002805D002280FD008D332
:1044A000032812D016E02000E16C8847801906002E
:1044B00010E02000E16C8847281A05000AE020007F
:1044C000E16C8847301A060004E02000E16C884760
:1044D000401905003B009BB23200D2B22900C9B29C
:1044E0002000FFF78AFFF2BD2DE9F04704000D0020
:1044F00016001F00200001F0D3FA00208246397810
:1045000020006268904780461FFA88F84FF6FF70D7
:10451000804502D15046C0B228E07F1C1FFA88F8BF
:104520004FF6FE708045EAD043469BB23200D2B2CD
:104530002900C9B22000FFF7A7FF814694F85E006A
:10454000002805D0022809D005D3032809D00AE0A5
:1045500019EB050507E019EB060604E0B5EB0905C4
:1045600001E0B6EB090619EB0A0AC8E7BDE8F087D7
:10457000F8B504000D0016001F00DFF84C01606064
:104580003B003200D2B22900C9B22000FFF7ACFFD5
:10459000F2BD816C00293ED090F86D1080F8791042
:1045A00090F86E1080F87A1090F87810002932D0C8
:1045B00090F87810012914D190F9791090F96F20B2
:1045C000914203DA90F86F1080F8791090F970102A
:1045D00090F97A2091421EDA90F8701080F87A10E3
:1045E00019E090F9791090F96A2090F96C309A18D6
:1045F000914206DA90F86A1090F86C20511880F811
:10460000791090F96C1090F97A20914203DA90F8C1
:104610006C1080F87A1070470100002070472B4919
:10462000C164704738B504000D00A06CA84208D0E2
:10463000A564290014F16000FFF787FC2000FFF754
:10464000A8FF31BD2DE9F04104000D00002084F8E1
:104650005800200001F024FA0020070000208046C6
:1046600029782000626890470600B6B24FF6FF70C6
:10467000864204D194F9580000280FD116E06D1C31
:10468000B6B24FF6FE708642EAD0310089B2200001
:10469000FFF7D1FE804618EB0707E1E7B7EB080705
:1046A00094F95800C71994F97B00C7193800C0B2B3
:1046B000BDE8F08138B504000D00034860602900B2
:1046C0002000FFF7BFFF32BDA95A000819460008B5
:1046D00008B400B584B005AB03930023029311B96D
:1046E0000093019302E00090481E019003AB6946DD
:1046F000074878441A30FBF7F9FC009911B1009A89
:1047000000211170002858BF029804B05DF808FB22
:1047100063CBFFFF30B403001C780D78EDB2E4B238
:10472000A5420AD2E4B2D2B2944203D215006D1E61
:104730000D7002E0002004001C70E4B2D2B294427A
:1047400001D300200AE0EDB2002D01D1002005E0E8
:10475000D2B2EDB2AA4200D20A70012030BC70473A
:104760002DE9F64182B005001E000A9C95F83B0039
:10477000804695F83A000700E4B2002C1DD19DF860
:104780000C005FFA88F8404540D29DF808008DF88B
:1047900004009DF8040030188DF804003A00D2B2ED
:1047A00001A902A8FFF7B6FF00282FD09DF804004A
:1047B00006009DF80800361A1BE09DF80800FFB2BD
:1047C000B84223D29DF80C008DF804009DF8040037
:1047D00030188DF804004246D2B201A903A8FFF7B1
:1047E00099FF002812D09DF8040006009DF80C00E7
:1047F000361A2000C0B200903300DBB29DF80C20C6
:104800009DF808102800D5F82CC0E047BDE8FF81CE
:104810002DE9F04182B005000E0090461F00089C73
:104820005FFA88F895F83900B8EBC008FFB2012F9D
:1048300018D195F83A00F6B2864212D295F83B00AC
:104840005FFA88F880450CD22000C0B200903B008F
:10485000DBB24246D2B23100C9B22800D5F82CC032
:10486000E0471AE0E4B2022C02D1F61B761C06E007
:10487000E4B2032C03D1B8EB070818F1010814F0D7
:1048800001042000C0B200903B00DBB24246D2B22D
:104890003100C9B22800FFF763FFBDE8F3812DE9BD
:1048A000F04182B005000E0017009846089C5FFAA0
:1048B00088F8B8F1000F0ED02000C0B20090434637
:1048C000DBB23A00D2B23100C9B22800D5F830C00C
:1048D000DCF804C0E047BDE8F38170B582B00400A5
:1048E0000D00160094F84300F6B2864218D394F8EF
:1048F0004400F6B2864213D294F84100EDB28542EC
:104900000ED394F84200EDB2854209D20020009007
:1049100001233200D2B22900C9B22000FFF7BFFF45
:1049200073BD80F87D10C9B2032902DB012280F833
:104930007D2070472DE9F04182B005000E00170080
:104940009846089CE019C0B2009018EB0603DBB251
:104950003A00D2B23100C9B2280001F07FF8002835
:1049600010D0E4B2002C0DD0002000904346DBB202
:104970003A00D2B23100C9B22800FFF790FF7F1C85
:10498000641EEEE7BDE8F3812DE9F84305000E0053
:1049900017009846089CB146E019C0B2009018EB89
:1049A0000603DBB23A00D2B23100C9B2280001F0EE
:1049B00055F8002830D0002000904346DBB23A0082
:1049C000D2B23100C9B22800FFF769FF0120009080
:1049D0002300DBB23A00D2B23100C9B22800FFF79F
:1049E0005EFF18EB0606761E012000902300DBB266
:1049F0003A00D2B23100C9B22800FFF750FFE719E0
:104A00007F1E002000904346DBB23A00D2B24946F6
:104A1000C9B22800FFF743FFBDE8F18370B582B04B
:104A2000040000252078C00740F18480DFF8D40618
:104A3000006810F00C0004280BD0DFF8C8060068EE
:104A400010F00C0008280ED1DFF8B8060068C0038B
:104A500009D5DFF8AC06006880036BD560680028D4
:104A600068D1012004E26068B0F5803F08D1DFF82A
:104A70009006006850F48030DFF88416086038E053
:104A80006068002810D1DFF87806006830F48030C4
:104A9000DFF86C160860DFF86806006830F48020E4
:104AA000DFF85C16086024E06068B0F5A02F10D134
:104AB000DFF84C06006850F48020DFF844160860E8
:104AC000DFF83C06006850F48030DFF834160860E8
:104AD0000FE0DFF82C06006830F48030DFF8201695
:104AE0000860DFF81C06006830F48020DFF810163C
:104AF0000860606800280ED000F081FD0500DFF836
:104B000000060068800315D400F079FD401B65287D
:104B1000F5D30320ACE100F072FD0500DFF8E005FD
:104B20000068800306D500F06AFD401B6528F5D3B8
:104B300003209DE1207880075CD5DFF8C805006878
:104B400010F00C0F0BD0DFF8BC05006810F00C0063
:104B500008281AD1DFF8AC050068C00315D4DFF8C7
:104B6000A0050068800704D52069012801D0012034
:104B70007EE1DFF88C05006830F0F800616950EAEA
:104B8000C100DFF87C15086034E0206900281ED0E1
:104B90000120DFF88015086000F031FD0500DFF826
:104BA00060050068800706D400F029FD401B03283B
:104BB000F5D303205CE1DFF84805006830F0F80029
:104BC000616950EAC100DFF83815086012E0002082
:104BD000DFF84015086000F012FD0500DFF8200541
:104BE0000068800706D500F00AFD401B0328F5D3B6
:104BF00003203DE1207800072CD5A069002816D0BD
:104C00000120DFF81415086000F0F9FC0500DFF85A
:104C100000050068800706D400F0F1FC401B032863
:104C2000F5D3032024E1012000F057FA12E0002020
:104C3000DFF8E414086000F0E2FC0500DFF8D004BF
:104C40000068800706D500F0DAFC401B0328F5D386
:104C500003200DE12078400740F1A7800026DFF80F
:104C6000BC040068C00010D4DFF8B004006850F045
:104C70008050DFF8A8140860DFF8A004006810F086
:104C800080500090009801200600DFF8940400682E
:104C9000C00516D4DFF88804006850F48070DFF88F
:104CA0008014086000F0ABFC0500DFF874040068B5
:104CB000C00506D400F0A3FC401B6528F5D30320F3
:104CC000D6E0E068012808D1DFF85804006850F009
:104CD0000100DFF85014086037E0E068002810D1C8
:104CE000DFF84004006840084000DFF8381408602E
:104CF000DFF83004006830F00400DFF828140860A2
:104D000023E0E068052810D1DFF81804006850F0AF
:104D10000400DFF810140860DFF80804006850F0A1
:104D20000100DFF8001408600FE0DFF8F803006806
:104D300040084000DFF8EC130860DFF8E803006883
:104D400030F00400DFF8DC130860E068002810D0C1
:104D500000F055FC0500DFF8CC030068800719D48B
:104D600000F04DFC401B41F289318842F3D303200F
:104D70007EE000F044FC0500DFF8A803006880072F
:104D800008D500F03CFC401B41F289318842F3D346
:104D900003206DE0F6B2012E07D1DFF88003006832
:104DA00030F08050DFF874130860E06900285ED0AE
:104DB000DFF85003006810F00C00082855D0E069B7
:104DC00002283FD10020DFF86013086000F017FCD4
:104DD0000500DFF82C030068800106D500F00FFC09
:104DE000401B0328F5D3032042E0206AB0F5803F42
:104DF00009D1DFF81003006830F40030A1680843DF
:104E0000DFF800130860DFF8FC02006830F474106B
:104E1000216A0843616A0843DFF8E812086001204C
:104E2000DFF80413086000F0EAFB0500DFF8D002A9
:104E3000006880011BD400F0E2FB401B0328F5D37F
:104E4000032015E00020DFF8E012086000F0D7FB37
:104E50000500DFF8AC020068800108D500F0CFFB48
:104E6000401B0328F5D3032002E0012000E00020CE
:104E700076BD70B504000D000026DFF8B0020068B2
:104E800010F00700A84211D2DFF8A0020068C008A5
:104E9000C0002843DFF894120860DFF89002006831
:104EA00010F00700A84201D00120A3E0207880077D
:104EB00009D5DFF85002006830F0F000A16808431F
:104EC000DFF8401208602078C00758D560680128D4
:104ED00006D1DFF82C020068800312D4012089E09B
:104EE0006068022806D1DFF818020068800108D443
:104EF00001207FE0DFF808020068800701D401206C
:104F000078E0DFF8000200688008800061680843EC
:104F10007C49086000F073FB0600606801280ED130
:104F20007848006810F00C00042828D000F067FBD7
:104F3000801B41F289318842F2D303205AE0606835
:104F400002280ED16F48006810F00C00082816D017
:104F500000F055FB801B41F289318842F2D30320D7
:104F600048E06848006810F00C0F08D000F047FBDC
:104F7000801B41F289318842F3D303203AE06B4829
:104F8000006810F0070085420ED268480068C0082B
:104F9000C0002843654908606448006810F00700B5
:104FA000A84201D0012025E02078400707D55548C8
:104FB000006830F4E060E1680843524908602078F6
:104FC000000708D54F48006830F46050216950EA66
:104FD000C1004C49086000F00EF85549494A126872
:104FE000C2F30312515CC84048490860002000F039
:104FF00069FD002070BD70B586B001A84D49102232
:10500000FCF714FA4C480088ADF80000002100229B
:105010000023002400203B4D2D68290011F00C05D1
:10502000042D02D0082D03D01DE0374D28001CE0D0
:1050300001ADC1F38346755D2C00CD030DD56D46E2
:10504000304E3668C6F34046755D2A002E4D05FB8E
:1050500004F5B5FBF2F52B0003E0384D05FB04F534
:105060002B00180001E0284D280006B070BD27482D
:105070000068704780B5FFF7FAFF3149214A12688E
:10508000C2F30222515CC84002BD80B5FFF7EFFFBA
:105090002B491C4A1268C2F3C222515CC84002BDAF
:1050A0000F220260174A126812F003024260154A8A
:1050B000126812F0F0028260124A126812F4E06282
:1050C000C260104A1268D20812F4E0620261174A04
:1050D000126812F007020A60704781B00B49096834
:1050E000C9084FF47A72B1FBF2F101FB00F10091B3
:1050F00000BF00994A1E00920029F9D101B0704703
:10510000001002400410024000127A004C000020FF
:105110002410024000004242800442421C1002401F
:105120000070004020100240600042420020024017
:1051300078AA000858AA0008A212000800093D0039
:10514000ECAA000880B500F041FAFEF7B3F800F0D1
:1051500001FD00F04BFD00F061FD00F0ADFD01BD73
:1051600000B595B00FA81D491422FCF75FF9002186
:105170000FA800F0DFFD1A4908600AA81949142297
:10518000FCF754F900210AA800F0D4FD1649086084
:1051900005A816491422FCF749F9002105A800F0DA
:1051A000C9FD13490860684612491422FCF73EF90C
:1051B0000021684600F0BEFD0F49086015B000BD33
:1051C00080B5FFF7BFFFFFF7CBFF00F0AEFDFEE7B6
:1051D0000A4A10600A4A1180FEE7000084A900080C
:1051E000C01E002098A90008C41E0020ACA9000819
:1051F000C81E0020C0A90008CC1E0020D01E002020
:105200002C1F0020F8B50400002500262078C007D8
:1052100066D5002781480068C0000DD47F4800682B
:1052200050F080507D4908607C48006810F0805044
:10523000009000980120070079480068C00513D449
:105240007748006850F480707549086000F0D7F91D
:10525000050073480068C00506D400F0D0F9401B73
:105260006528F6D3032052E06E48006810F44070C1
:105270000600002E23D0606810F4407086421ED0D5
:105280006848006830F440700600012066490860F4
:1052900000206549086063480660F0070FD500F0FC
:1052A000AEF905005F480068800708D400F0A7F950
:1052B000401B41F289318842F4D3032027E059484A
:1052C000006830F440706168084356490860FFB2D6
:1052D000012F05D15148006830F080504F490860D7
:1052E0002078800707D55148006830F44040A16815
:1052F00008434E4908602078C00607D54B4800682F
:1053000030F48000E1680843484908600020F2BD9D
:105310002DE9F04385B0040001A845491022FCF7AF
:1053200085F844480088ADF80000002500260027D5
:105330005FF000085FF000092000012832D0022849
:105340005BD0102865D13948006880463A4800682B
:10535000C00126D501A8C8F38341085C07005FEAB5
:10536000C8300FD5684631490968C1F34041085C2F
:1053700005005FEAC83009D53048B0FBF5F0784346
:10538000060003E02E4800FB07F0060027480068EF
:10539000400201D5B14604E070000321B0FBF1F0FA
:1053A000814636E01F480068804640F2023010EA2D
:1053B0000800B0F5817F03D14FF4004081461BE027
:1053C00018F44070B0F5007F07D11E4800688007D0
:1053D00003D549F6404081460EE018F44070B0F520
:1053E000407F07D114480068800303D54FF2244062
:1053F000814601E0002081460BE0FFF746FE0B49A5
:105400000968C1F38131491C4900B0FBF1F08146C4
:10541000FFE7484605B0BDE8F08300001C100240DD
:10542000007000402010024040044242041002403C
:1054300068AA0008DA1200080010024000127A0080
:1054400000093D002410024010F00702564B1B6873
:1054500019004FF6FF031940544B53EA0223194336
:10546000514B1960704750480068C0F302207047E4
:10547000012110F01F0291404D4A40B2430942F809
:105480002310704710B440B2002808D50A01494BD8
:1054900040B210F00F04E31803F8042C03E00A01F3
:1054A000454B40B2C25410BC704770B4030013F0B7
:1054B0000704D4F10706052E01D3042001E0D4F13E
:1054C0000700261D072E01D2002500E0E51E01265B
:1054D00016FA00F0401E0840A8400121A940491ECC
:1054E0001140084370BC7047BFF34F8F2E480068CF
:1054F00010F4E060314908432B490860BFF34F8F37
:1055000000BFFDE710B50400601EB0F1807F01D33D
:1055100001200EE0601E2A4908600F215FF0FF3075
:10552000FFF7B0FF002027490860072026490860E0
:10553000002010BD10B504002000FFF785FF10BD4E
:10554000F8B504000D0016000027FFF78CFF0700D8
:10555000320029003800FFF7A8FF0100200040B208
:10556000FFF790FFF1BD10B50400200040B2FFF737
:105570007FFF10BD80B5FFF7B7FF01BD10B5040078
:105580002000FFF7BFFF10BD042806D10E490968AF
:1055900051F004010C4A116005E00B49096831F033
:1055A0000401094A116070470CED00E00000FA05A3
:1055B00000E100E018ED00E000E400E00400FA057E
:1055C00014E000E018E000E010E000E080B50D48D5
:1055D000006850F010000B4908600320FFF7AAFF95
:1055E000002000F06FFA00F013F8002002BD074819
:1055F000006805490978081804490860704703489D
:10560000006870470020024062010020D81E002080
:1056100080B56648006850F001006449086063483E
:10562000006810F00100009000986148006850F098
:1056300080505F4908605E48006810F0805000901C
:1056400000980320FFF776FF002200217FF00B0077
:10565000FFF776FF002200217FF00A00FFF770FFBE
:10566000002200217FF00900FFF76AFF00220021DD
:105670007FF00400FFF764FF002200217FF00300A9
:10568000FFF75EFF00220F217FF00100FFF758FFB8
:1056900000220F215FF0FF30FFF752FF45490968F4
:1056A000080030F0E06050F000704249086001BD31
:1056B00010B586B0040020683F4988423CD13B4881
:1056C000006850F40070394908603848006810F4E8
:1056D000007000900098022001900320029001A920
:1056E000364800F055FB36483649086000203549F9
:1056F000486000203349886080203249C8604FF4F8
:105700008070304908614FF400602E4948612020C4
:105710002C4988614FF400502A49C861294800F09B
:10572000CBFC002803D080212748FFF751FD2548F6
:1057300020622448446217E020682449884213D13B
:105740001A48006850F480601849086017480068DB
:1057500010F48060009000980120019003200290D6
:1057600001A9164800F014FB06B010BD10B586B0B4
:10577000040020681649884215D1C02001901220EB
:1057800002900320049001A9124800F001FB084890
:10579000006850F40010064908600548006810F4DD
:1057A00000100090009806B010BD000018100240D4
:1057B0001C10024004000140002401400008014088
:1057C00008000240681D0020FCA6000800280140D7
:1057D00000540040000C014010B40400002010BC34
:1057E0007047002101600B4981600A49C160094985
:1057F0000161084941610021C177002180F8221030
:10580000002180F82310FF2180F82010FF2180F86C
:1058100025107047D95700082DE9F04104000D000C
:1058200016001F00DDF818802000FFF7DAFFA560E2
:10583000E6602761C4F814802000FEF763FABDE833
:10584000F0810000010008200870DFF804007047B4
:10585000681700202DE9F04104000D0016001F001C
:10586000DDF818800020A064E762656384F8386082
:10587000002084F83900002084F85B00002084F8C0
:105880007C00012084F87D00012084F87E00C4F8AB
:1058900030802000216B096888472000FEF7BFFE9A
:1058A000002084F85E00BDE8F08190F838201100F7
:1058B000C9B2C90080F83B100268127C1100C9B25D
:1058C000202901DB1F221100C9B2C90080F83A105B
:1058D00090F839201100C9B2C90080F83C1090F846
:1058E000382011000268527CC9B290F839305B1838
:1058F0009A4205DA0268527C90F83930D21A1100C7
:10590000C9B2C90090F83C2080F83D2090F83D20B5
:1059100080F83E2090F83E208A1880F83E20F02241
:1059200080F83F200268928AF12A03DA0268928A9C
:1059300080F83F200268D28A80F84020704710B576
:1059400004002000FFF7B1FF002084F8410094F824
:105950003A0084F8420094F83D0084F8430094F83B
:105960003E0084F8440010BD2DE9F04182B00500EE
:105970000E0017009846089C2000C0B200904346D5
:10598000DBB23A00D2B23100C9B22800FEF740FFC4
:10599000BDE8F381F8B504000D00160000233200C5
:1059A000D2B22900C9B220006769B847F1BD000032
:1059B00062F30F2262F31F42401810F0030308D075
:1059C000C91A1FD3DB0748BF00F8012D28BF20F8F4
:1059D000022D130030B414461546103928BF20E9B3
:1059E0003C00FAD8490728BF20E90C0048BF40F81E
:1059F000042D890028BF20F8022D48BF00F8012D92
:105A000030BC7047C91818BF00F8012DCB0728BF5C
:105A100000F8012D704710B40400D2B2C9B28A4216
:105A20000DD2E4B2DBB29C4201D2012014E0DBB221
:105A3000D2B2934201D201200EE000200CE0E4B289
:105A4000DBB29C4207D2DBB2D2B2934201D2012038
:105A500002E0002000E0002010BC70472DE9F0417A
:105A600005000E0017009846069C2300DBB23A00A2
:105A7000D2B295F8441095F84300FFF7CCFF002808
:105A800001D1002009E04346DBB23200D2B295F8E2
:105A9000421095F84100FFF7BEFFBDE8F08100001D
:105AA000002180F8231070470200C9B2002902D0FB
:105AB000C9B20A2902D14FF6FF7002E0C9B208004C
:105AC00080B2704770B588B004000025002600221F
:105AD00021001920FFF734FD1920FFF744FD194874
